S0140000736F635F746578745F424732322E7333372B
S214006000C00A0020896B0000856B0000856B0000CD
S214006010ED970000856B0000856B0000856B000027
S214006020856B0000856B0000856B0000856B0000AB
S214006030856B0000D427030031670000856B0000E5
S214006040856B0000856B0000856B0000856B00008B
S214006050856B0000856B0000856B0000856B00007B
S214006060856B0000856B0000856B0000856B00006B
S21400607091A80000856B0000856B00006169000038
S21400608051690000856B0000856B0000856B000081
S214006090856B0000856B0000856B0000856B00003B
S2140060A0856B0000856B0000856B0000856B00002B
S2140060B0856B000055EF0200856B000015F90200A5
S2140060C0CDF80200C9F8020021F1020011F9020021
S2140060D0D1F80200E9F80200D5F8020075F90200CE
S2140060E029D40200F1D5020055F90200856B0000A4
S2140060F0BD8D0000856B0000856B0000856B000081
S214006100856B0000856B0000856B0000856B0000CA
S214006110856B0000856B0000856B0000856B0000BA
S214006120856B0000856B0000856B0000856B0000AA
S214006130856B0000856B0000856B0000856B00009A
S21400614010B5054C237833B9044B13B1044800E06E
S21400615000BF0123237010BD100F002000000000B8
S214006160C871030008B5034B1BB10349034800E0A0
S21400617000BF08BD00000000140F0020C871030017
S214006180A3F5803A704700BF174B002B08BF134B90
S2140061909D46FFF7F5FF00218B460F461348144A2D
S2140061A0121A29F0B0FE0E4B002B00D098470D4B6C
S2140061B0002B00D098470020002104000D000D4859
S2140061C0002802D00C4800E000BF29F031FE200075
S2140061D0290000F08DFA29F017FE00BF0000080025
S2140061E00000000000000000C00A0020100F002081
S2140061F038280020000000000000000010B50E4CFB
S21400620041F28433238000F075FC00F074FC228891
S2140062100A490B4B186802F023FE002301221146A0
S214006220104601F0A5FF074B5B6C13F0020F02D17E
S214006230054B01221A7010BD660F0020C80F030020
S2140062400010002000C003402D0F002038B51B4B67
S2140062505B6C13F0020F02D1194B01221A70194B16
S2140062601B78012B0CD0184B1B881BB2174A1288C0
S214006270934204DD0023124A1370134A138038BD7C
S2140062800F4B1B78002BEED00F4B1B881BB20F4A10
S21400629012889342E7DC0E4D2A780B4C21880D4B72
S2140062A003FA81F3053A152101201CF09FFF22888E
S2140062B02B781344053B1BB22380D4E700C0034071
S2140062C02D0F00202C0F0020680F0020660F0020E6
S2140062D0650F0020C010030070B588B00446036840
S2140062E023F47F4323F00703AA4A934200F09A81DF
S2140062F020D9A94A934200F09B8102F10172934291
S21400630040F09481B0F80530152B40F08F81C379AA
S214006310012B40F061810389DBB2012B00F0328152
S214006320002B40F083819D4B00221A709C4800F0A1
S21400633085FB7BE1A2F5002293420CD002F5A02259
S214006340934240F073810023944A1370954A137069
S214006350954A13806AE10DF1170106A81CF05CFF50
S214006360054640B3914E924C3146206802F078FDC7
S2140063709049206802F074FD00F0BCFB00F0BBFB07
S2140063808D4B009340F2B5138C4A8D49206802F07D
S21400639067FD2B468B4A8C49206802F061FD284633
S2140063A000F0D2FB8949206802F05AFD3146206889
S2140063B002F056FDFEE79DF81D308DF80C309DF876
S2140063C01C308DF80D309DF81B308DF80E30FF23F5
S2140063D08DF80F30FE238DF810309DF81A308DF8AA
S2140063E011309DF819308DF812309DF818308DF860
S2140063F0133003AB0822002112201CF0E1FE0546F4
S21400640040B36A4E6A4C3146206802F029FD69495D
S214006410206802F025FD00F06DFB00F06CFB664B7B
S214006420009340F2C513654A6549206802F018FDDE
S2140064302B46644A6449206802F012FD284600F0A4
S21400644083FB6249206802F00BFD3146206802F0AB
S21400645007FDFEE75E481CF045FE054640B3534E7A
S214006460534C3146206802F0FBFC5249206802F08B
S214006470F7FC00F03FFB00F03EFB4F4B009340F272
S214006480C9134E4A4E49206802F0EAFC2B464D4A94
S2140064904D49206802F0E4FC284600F055FB4B49C5
S2140064A0206802F0DDFC3146206802F0D9FCFEE7E9
S2140064B00DF10A01FA201CF065FE00230093A022CD
S2140064C01146434800781CF025FE054640B3374E7B
S2140064D0374C3146206802F0C3FC3649206802F08B
S2140064E0BFFC00F007FB00F006FB334B009340F2C6
S2140064F0D313324A3249206802F0B2FC2B46314AA6
S2140065003149206802F0ACFC284600F01DFB2F49FC
S214006510206802F0A5FC3146206802F0A1FCFEE7E8
S214006520022211462A4B18781CF016FE0646002852
S2140065307CD01E4D1E4C2946206802F091FC1D4959
S214006540206802F08DFC00F0D5FA00F0D4FA1A4B61
S214006550009340F2D913194A1949206802F080FCCA
S2140065603346184A1849206802F07AFC304600F094
S214006570EBFA1649206802F073FC2946206802F000
S2140065806FFCFEE7054A13700179124A1170054A3E
S21400659013704BE0A0000900A00006012C0F00209D
S2140065A0300F00202D0F0020680F0020EC0F030096
S2140065B000100020F00F0300B0100300F80F0300D7
S2140065C00410030010100300141003002C10030026
S2140065D0C00A0020640F0020334E344D3146286830
S2140065E002F03EFC3249286802F03AFC00F082FADB
S2140065F000F081FA2F4B009340F2FD132E4A2F49EC
S214006600286802F02DFC2E4A2E49286802F028FC45
S214006610E2792D49286802F023FC3146286802F00A
S2140066201FFCFEE7B0F80520284B1A7008B070BDB6
S2140066300023274A1370274A1380274A13702748D7
S21400664000F0FCF902221146254B18781CF084FD58
S21400665005460028EAD0144E144C3146206802F055
S214006660FFFB1349206802F0FBFB00F043FA00F042
S21400667042FA104B009340F222230F4A0F4920683B
S21400668002F0EEFB2B46174A1749206802F0E8FB9B
S214006690284600F059FA1549206802F0E1FB314619
S2140066A0206802F0DDFBFEE7EC0F03000010002080
S2140066B0F00F0300B0100300F80F030004100300EF
S2140066C0401003004810030060100300650F002010
S2140066D02C0F0020680F00202D0F0020300F002008
S2140066E0C00A002010100300141003002C10030032
S2140066F008B504F0F0F8FFF781FD04F0F8F8FFF7AE
S214006700A5FD03F065FAF8E708B509F013F80AF0F6
S214006710E6FC10F03BF90CF07EFE10F0B7FE08BD6C
S21400672008B514F033FC1BF034FE15F039F808BD3C
S21400673008B508F087FE08BD10B5054C2046FFF7E3
S214006740EFFF204608F02CFC024808F059FC10BD6C
S2140067505C2703003C27030008B5FFF7BDFD08BD16
S2140067600120704700B5C3B008F084FD08F0ADFD09
S21400677010B943B05DF804FBFFF7F2FF0028F8D02D
S21400678001A81CF0A8FC0028F3D101A8FFF7E4FF3D
S214006790EFE708B50321802001F026F903214FF426
S2140067A0806001F021F903214FF4906001F01CF99C
S2140067B009214FF4C06001F017F909214FF4F06089
S2140067C001F012F909213E2001F00EF909212D20D1
S2140067D001F00AF9002008BD08B5164B1B68C3F384
S2140067E00743012B12D002F0CFF802F061F802F056
S2140067F0E7F802F081F802F0C1F8FFF7CAFF02F0EE
S21400680069F800F05FFA03F01BF908BD0A4B5A6EF0
S21400681003F580534FF48021596603F51043042195
S214006820196212F4802FDED1A3F500434FF48022C4
S2140068305A66D8E70080E00F00800040704708B531
S21400684002F00AF802F012F8FFF776FF08BD08B566
S21400685000F052F908BD704708B500F00DF908BD04
S21400686008B5FFF77FFF08BD704708B500F064F86D
S21400687008BD08B503F02CFD02F0A6F802F03CFBBC
S21400688006F079FF02F0E8FEFFF7EFFF08BD000014
S21400689010B592B0134C0DF12C0CA646BEE80F00B6
S2140068A0ACE80F009EE807008CE8070003238DF88D
S2140068B045300DF11C0E04F11C030FCB8EE80F00C3
S2140068C00DF10C0C04F12C030FCB8CE80F00064BDB
S2140068D0009373460BAA6146044802F0C1FD12B04D
S2140068E010BD00BF8C2703006C0F0020D40F0020C3
S2140068F008B5831EDBB2012B04D90239C9B20129BF
S2140069000CD908BD0129F8D80A4B1B69C3F34013FC
S21400691004220521002001F02BFCF2E70128F0D824
S214006920044B1B69C3F3401300220521104601F0F7
S2140069301FFCE6E700C0034008B50349034803F020
S21400694005F9FFF7A5FF08BD140B0020AC0F0020CB
S21400695008B5024B186802F053FE08BDD40F00209D
S21400696008B5024B186802F04BFE08BDD40F002095
S21400697008B5024B1A6A1868904708BDD40F002065
S214006980012070470120704738B508F0DFFC044648
S21400699000F0A6F8054600B12546FFF7F1FF00B166
S2140069A0284638BD38B503F0E3F9044608F0DCFCA9
S2140069B0042817D0022817D00025FFF7D9FF04288F
S2140069C015D0022815D000F081F8042813D002282C
S2140069D013D0FFF7D7FF042813D002280FD08DB1AD
S2140069E000240FE00125E8E700250124E5E701255E
S2140069F0E9E70124E7E70125EBE70124E9E70124BD
S214006A00EDE70024204638BD0B4B1B68002201E052
S214006A101A465B6A0BB18342FAD1834201D000204A
S214006A2070471AB1436A536201207047426A024BAC
S214006A301A600120704700BFF80F0020B0B110B5F3
S214006A40044603F081FC2046FFF7DEFF80B194F891
S214006A5028300BB900200CE001F0D1F9054A136884
S214006A60013B136001F0D1F9002002E022207047BC
S214006A70002010BDFC0F0020124B1B680BB310B596
S214006A80114B1C6804E0E369216A20469847646A53
S214006A90B4B194F82830002BF9D001F0B0F90023F7
S214006AA084F82830074A1368013B136001F0ADF9FB
S214006AB094F82930002BE6D12046FFF7A5FFE2E741
S214006AC010BD7047FC0F0020F80F0020034B1B681A
S214006AD00BB9012070470420704700BFFC0F002050
S214006AE0034B1B680BB9012070470020704700BF9E
S214006AF0FC0F00207047704708B5084B01221A703B
S214006B00074B00221A70074B04221A70064B1F22EE
S214006B101A7002F063F9054B186008BD1C0B0020C4
S214006B20041000201D0B00201E0B0020001000206B
S214006B3008B50349034B186802F092F908BD00BF78
S214006B40C82703000010002070B506460A4C0B4903
S214006B50206802F085F902F041F90546206802F047
S214006B6031F93046FFF7E4FF284602F02BF90449D6
S214006B70206802F075F970BD00100020CC270300D5
S214006B80D0270300FEE7000008B500F013F8064B18
S214006B90064A03E052F8041B43F8041B04498B42E0
S214006BA0F8D3FFF7F1FA00BFC00A0020D071030047
S214006BB0100F0020044B054A9A60D3F8882042F450
S214006BC07002C3F88820704700ED00E00060000007
S214006BD0014B1868704700BF240B002008B5094B0E
S214006BE01B6F03F00703022B04D0032B05D0012BE9
S214006BF006D0FEE7FFF7ECFF03E0034B186800E063
S214006C00024808BD00800040280B0020002D3101FE
S214006C1008B5FFF7E3FF054B1B6FC3F303330133E0
S214006C20B0FBF3F0024B186008BD00BF00800040C8
S214006C30200B00200048704700B4C404014B1868BD
S214006C40704700BF280B002008B5064B1860064B9F
S214006C501B6F03F00703032B00D008BDFFF7D8FF18
S214006C60FBE700BF280B0020008000400020704794
S214006C7000487047002D31014FF4004070474FF434
S214006C807A707047014B1868704700BF2C0B0020C5
S214006C9000230360704703680B60016070470000C4
S214006CA00346064A10680344054A934202D8034A3C
S214006CB0136070474FF0FF30704700BF300B002066
S214006CC00080002008B5034B1968034B186821F0B4
S214006CD039FA08BD380B0020340B0020B0F1FF3F16
S214006CE001D010B97047024870470248704700BF8D
S214006CF021E000F024E000F08908002301E00430E1
S214006D0001338B4205D20268B2F1FF3FF7D0002074
S214006D10704701207047704738B504462AF03CF9A2
S214006D20FFF7DCFF054650B9074B9B680A3303F0B4
S214006D301F03012199402046FFF7DEFF08B12846D1
S214006D4038BD024DFBE700BF0080E00F0EE000F00C
S214006D50F8B505460E46940022462AF025F9FFF7B8
S214006D60BDFF074608B13846F8BD224631462846DC
S214006D7029F092F80028F6D0004FF4E710E000F073
S214006D8008B50346084613F0030F02D111F0030FAF
S214006D900AD09200194629F08FF8002008BD53F853
S214006DA0041B40F8041B013A002AF8D1F5E700005E
S214006DB010B582B0044601A801F016FB9DF8063017
S214006DC023800122E2700020A070054B9B680A33E6
S214006DD003F01F0302FA03F3636002B010BD00BFA6
S214006DE00080E00F08B501F053FA08BD08B501F0C1
S214006DF03FFA002008BD000008B500F0F9FF014B7F
S214006E00186008BD9816002008B5024B186800F0F8
S214006E10F3FF08BD9816002008B50A464118013948
S214006E2002F07EFC08BD0000024B4FF480321A6769
S214006E30704700BF0090004038B505460C46FFF787
S214006E40CDFE05B128600CB10D23237038BD0000BF
S214006E5038B505460C460F4BD3F8203103F0030334
S214006E60022B0ED0032B10D0012B06D00023184681
S214006E7005B1286004B1237038BDFFF7A9FE0523CD
S214006E80F6E7FFF7DBFE0323F2E7FFF7F1FE022348
S214006E90EEE700BF0080004030B583B005460C46E4
S214006EA0002301930D4BD3F8803103F00303012B2D
S214006EB009D0022B0DD000230DB1019A2A6004B12F
S214006EC0237003B030BD002101A8FFF7C1FF0F23D8
S214006ED0F2E7FFF7CDFE01900223EDE700800040C9
S214006EE038B505460C46164BD3F8243103F0070395
S214006EF0013B052B20D8DFE803F0030F171B0B130D
S214006F00FFF766FE052305B1286004B1237038BD7F
S214006F10FFF75EFE0623F6E7FFF790FE0323F2E791
S214006F20FFF78CFE0423EEE7FFF7A2FE0223EAE754
S214006F30FFF79CFE0723E6E700231846E3E700BFBB
S214006F400080004038B505460C46104BD3F80001CB
S214006F5000F00300032815D8DFE800F002080C1044
S214006F60012305B1286004B1237038BDFFF766FE23
S214006F700323F6E7FFF786FE0823F2E7FFF776FE21
S214006F800723EEE700231846EBE700BF008000402B
S214006F9038B505460C460F4BD3F8403103F00303D3
S214006FA0022B0ED0032B10D0012B06D00023184640
S214006FB005B1286004B1237038BDFFF75DFE0923D4
S214006FC0F6E7FFF75FFE0823F2E7FFF758FE0B230E
S214006FD0EEE700BF0080004008B50B4BD3F8203228
S214006FE003F00303012B08D0022B09D008B10023BD
S214006FF0036021B100230B7001E0FFF729FF08BDF5
S214007000FFF7C6FFFBE700BF0080004030B583B047
S21400701005460C46002301934FF0E0231B6913F04E
S214007020040F0ED0FFF7F4FD01900C238DF803300B
S2140070300DB1019B2B6014B19DF80330237003B093
S21400704030BD0DF1030101A8FFF7A2FFF0E7000035
S21400705038B505460C46124BD3F8003203F007034A
S214007060013B032B18D8DFE803F0020A0E12FFF7E5
S21400707003FE092305B1286004B1237038BDFFF76D
S21400708001FE0823F6E7FFF7FAFD0B23F2E7FFF70A
S214007090BFFD800A0E23EDE700231846EAE700BF8F
S2140070A00080004038B505460C460F4BD3F84032FA
S2140070B003F00303022B0ED0032B10D0012B06D0B7
S2140070C00023184605B1286004B1237038BDFFF7C9
S2140070D0D3FD0923F6E7FFF7D5FD0823F2E7FFF710
S2140070E0CEFD0B23EEE700BF0080004038B5054616
S2140070F00C460F4BD3F8603103F00303022B0ED07F
S214007100032B10D0012B06D00023184605B12860AB
S21400711004B1237038BDFFF7AFFD0923F6E7FFF78C
S214007120B1FD0823F2E7FFF7AAFD0B23EEE700BF49
S21400713000800040B0F5207F20D00ED8B0F5007F4C
S21400714016D020D810B1B0F5C07F04D10F4B186F01
S214007150C0F3033018E0002016E0B0F5607F05D1DC
S2140071600A4BD3F88000C0F301100DE000200BE0BE
S214007170064BD3F89000C0F3046005E0034B186F8D
S214007180C0F3802000E000200130704700800040FF
S21400719038B505460C46104B4FF400329A66002070
S2140071A0FFF7C8FF05FB00F00C4BDA6902F48032EB
S2140071B041F67131D9639B6823F44013084988422D
S2140071C001D9002C05DD05498B600AB10022CA638F
S2140071D038BD43F48013F6E70090004000000340FB
S2140071E0005A620208B5FFF725FD0021FFF7D0FF21
S2140071F008BD0000430907D0012B10D0022B01D098
S214007200094A02E0094A00E0002200F01F0041B1EE
S21400721002F58052012303FA00F010607047044A1A
S214007220F3E702F50052F5E7608200406880004010
S2140072306480004010B582B0002301930093B0F53F
S214007240807F00F2EF802028C0F0E7802038E0281A
S21400725000F2E580DFE810F02C011E012C011E0173
S21400726033013301330133011E011E0160014F015A
S2140072703E016A014F011E011E011E01E300E300EC
S214007280E300E300E300E30046015B011E011E018C
S2140072901E01F4006F011E01E300E300E300E300BB
S2140072A0E300E300E300E300E300E300E300E300C1
S2140072B0E3002C01E3002C012C012C013301E30038
S2140072C0E300E300E300E300E300E300E300E300A1
S2140072D0E300E300E300E3002C012C01E300E300FD
S2140072E0E300E300E300E300E300E300E300E30081
S2140072F0E300E300E300E300E300E300E300E30071
S214007300E300E300E300E300E300E300E300E30060
S214007310E300E300E300E3004B01E300E300E300E7
S214007320E300E300E300E300E300E300E300E30040
S214007330E300E300E300E300E300E300E300E30030
S214007340E300E300E300E300E300E300E300E30020
S214007350E300E300E300E300E300E300E300E30010
S214007360E300E300E300E300E300E300E300E30000
S214007370E300E300E300E300E300E300E300E300F0
S214007380E300E300E300E300E300E300E300E300E0
S214007390E300E300E300E300E300E300E300E300D0
S2140073A0E300E300E300E300E300E300E300E300C0
S2140073B0E300E300E300E300E300E300E300E300B0
S2140073C0E300E300E300E300E300E300E300E300A0
S2140073D0E300E300E300E300E300E300E300E30090
S2140073E0E300E300E300E300E300E300E300E30080
S2140073F0E300E300E300E300E300E300E300E30070
S214007400E300E300E300E300E300E300E300E3005F
S214007410E300E300E300E3006501002848D001989C
S21400742002B010BDB0F5906F71D00ED9B0F5D06F28
S2140074307CD049D9B0F5E06F7DD0B0F5F06FEED1D5
S214007440002101A8FFF752FEE9E7B0F5407F52D0D1
S2140074500FD9B0F5607F2FD100216846FFF7ECFC0E
S214007460009C4FF46070FFF765FEB4FBF0F40194E7
S214007470D5E7B0F5007F0AD1FFF7B0FB04464FF41E
S2140074800070FFF757FEB4FBF0F40194C7E7B0F5C1
S214007490207F0AD1FFF7BCFB04464FF42070FFF7AD
S2140074A049FEB4FBF0F40194B9E7B0F5C07FB6D15D
S2140074B0FFF7AEFB0190B2E7B0F5806FAFD10021C9
S2140074C001A8FFF7C5FCAAE7B0F5B06F24D0B0F569
S2140074D0C06F04D1002101A8FFF75AFD9FE7B0F561
S2140074E0A06F9CD1002101A8FFF776FD97E7FFF774
S2140074F075FB019093E7FFF78BFB04464FF4207073
S214007500FFF718FEB4FBF0F46408019487E7002147
S21400751001A8FFF7E5FC82E7002101A8FFF7BCFC05
S2140075207DE7002101A8FFF771FD78E7002101A89B
S214007530FFF78EFD73E7002101A8FFF7B3FD6EE7A6
S21400754008B58020FFF776FE034B984203D8034B1E
S2140075504FF480321A6708BD005A620200A000404D
S21400756000B583B000238DF80730B0F5807F00F0BB
S214007570898011D9B0F5D06F00F08A803AD9B0F57D
S214007580006F4DD052D9B0F5086F70D10DF10701DC
S2140075900020FFF7D7FC6AE052281ED8242866D3BE
S2140075A024382E2863D8DFE800F0676767676262D2
S2140075B05D622F73626262626262626262627962B6
S2140075C0626262477F626262626262626262626294
S2140075D062626262626262626700802847D1354BEF
S2140075E01B6F03F00703013B032B40D8DFE803F0D3
S2140075F0362A2E32B0F5A06F50D00BD9B0F5B06F4A
S21400760030D0B0F5C06F32D10DF107010020FFF782
S214007610BFFC2CE0B0F5806F2ED0B0F5906F26D171
S2140076200DF107010020FFF75BFC20E0B0F5E06FEE
S2140076303AD0B0F5F06F1AD10DF107010020FFF730
S21400764055FD14E005238DF8073010E003238DF870
S21400765007300CE007238DF8073008E002238DF88A
S214007660073004E00DF107010020FFF715FC9DF838
S214007670070003B05DF804FB0DF107010020FFF7DB
S214007680E7FBF4E70DF107010020FFF7BFFCEEE78C
S2140076900DF107010020FFF7DBFCE8E70DF107011D
S2140076A00020FFF799FCE2E70DF107010020FFF745
S2140076B0F9FCDCE70080004008B5FFF751FF08281A
S2140076C011D013D30938C0B2012812D80C4B4FF48E
S2140076D000125A6603F5D8335B6A13F0010F0BD01D
S2140076E04FF4FA7001E0074B188808BD4FF6FF709C
S2140076F0FBE74FF6FF70F8E74FF6FF70F5E700BFC1
S21400770000900040580B002010B504468020FFF77C
S21400771027FF032800F094804A4B4FF400225A6655
S21400772003F5405345F60E02C3F8802003F5805259
S2140077300221916203F5005301229A62424B9B6D2F
S21400774013F48033FAD121786278120542EA016296
S214007750E17842EA0142217942EA0132617942EA5D
S2140077608112A1790A4338490A618A6902F0004207
S214007770E07942EA8062207A42EA0062607A42EA6F
S2140077800042A07A42EA0022E07A02438A610A6A4C
S21400779022F00D02617B01B108231343227B43EAEA
S2140077A082030B43284A1362637B002B35D1936A0E
S2140077B023F03303A17B43EA4113E17B43EA011341
S2140077C043F001039362204B9A6D03F58043033325
S2140077D09343F8D11C4B03F5805102228A621A6546
S2140077E0194B9B6D13F0804FFAD1174B1A6922F490
S2140077F07002A17842EA01521A6103F580534FF0F5
S21400780000429A61237C13B9104B02229A62637C71
S21400781083B90E4B01229A620CE00B4A936A23F05E
S2140078203303A17B43EA4113217C43EA4103617C95
S2140078300B439362A37C1BB1034B054AC3F880201D
S21400784010BD00BF0090004000C0004000E00040B7
S214007850F1A7FFFF014B93F9000070474C1700207B
S21400786008B51B4B4FF400125A6603F5D8330222B4
S2140078705A60184B9B6813F4803FFAD1012806D053
S214007880144B00225A62134B00225A6008BDFFF7C1
S214007890D5F9114B984212D003F5122303F5F8637D
S2140078A0984210D000EB8002520A400A0B4BB3FB02
S2140078B0F0F0084BDA62186301225A62E3E745F6F5
S2140078C07A10074AF5E745F61A00064AF1E700BFC0
S2140078D0009000400040024000F049026466666680
S2140078E0D8B80500BBCF050008B5002903DD012187
S2140078F0FFF74EFC08BD0021FFF74AFCFAE7000040
S214007900B0F5207F4AD02FD8B0F5007F3BD04ED8B8
S21400791010B1B0F5C07F26D110B54C1EFFF762FC43
S21400792000F048F8FFF780FA214B196F21F47041F8
S21400793041EA04311967FFF76BF94FF04023D3F89B
S214007940843013F0100FF8D14FF04023D3F8841092
S214007950C1F38111C1F10201FFF7C6FF00F032F852
S214007960FFF7EEFD10BD7047B0F5607F0AD1013914
S2140079700F4AD2F8803023F0300343EA0111C2F8F0
S2140079808010704770470139094AD2F8903023F0CA
S214007990F85343EA0161C2F8901070470139044A6F
S2140079A0136F23F4806343EA8121116770477047A1
S2140079B00080004008B502214FF42070FFF7A0FFBA
S2140079C008BD000008B54FF4C070FFF733FC054B48
S2140079D0984205D902214FF42070FFF791FF08BDA9
S2140079E00121F8E780F0FA0270B50C46B0F5807F0A
S2140079F000F0298121D9B0F5D06F00F0A58161D9BA
S214007A00B0F5006F00F0858040F28F80B0F5086F0B
S214007A1040F0FE80072900F0B481082900F0B38109
S214007A20032900F0AC810021A04AD2F8003123F0EF
S214007A3003030B43C2F80031EAE0522837D8242863
S214007A40C0F0E68024382E2800F2E280DFE810F04E
S214007A50E500E500E500E500E000E000D300E0001A
S214007A6047007C01E000E000E000E000E000E0000D
S214007A70E000E000E000E0009D01E000E000E00043
S214007A80E0007400AF01E000E000E000E000E0008D
S214007A90E000E000E000E000E000E000E000E000E1
S214007AA0E000E000E000E000E000E000E500802804
S214007AB040F0AE808B1E052B51D8DFE803F096848D
S214007AC050995093B0F5A06F00F05F811AD9B0F5C9
S214007AD0B06F00F09080B0F5C06F40F099800A2C2F
S214007AE000F20881092C80F00981082C40F00881FA
S214007AF002226E49D1F8403123F003031343C1F844
S214007B00403185E0B0F5806F00F08780B0F5906F6B
S214007B107ED1023C052C00F20181DFE814F003015F
S214007B20010109010B0107010501B0F5E06F00F046
S214007B303E81B0F5F06F6BD10A2C00F2E580092C7F
S214007B4080F0E680082C40F0E58002225749D1F804
S214007B50603123F003031343C1F8603158E0002579
S214007B602E460121022000F015FAFFF73BFBFFF737
S214007B7021FFFFF759F94D4A136F23F007033343EC
S214007B801367FFF745F84FF04023D3F8843013F01F
S214007B90100FF8D14FF04023D3F88410C1F38111B1
S214007BA0C1F10201FFF7A0FE0121002000F03CFA1F
S214007BB0FFF708FFFFF7C4FC55BB032C28D13C4B4E
S214007BC001229A6224E03B4B4FF400225A6603F5EA
S214007BD040539D6AC5F3400503F5805301229A621F
S214007BE00326BEE700250426BBE700250126B8E7E6
S214007BF000250226B5E7022C0BD00F2C0BD1012155
S214007C002A4AD2F8803123F003030B43C2F88031AE
S214007C1070BD0221F4E70021F2E7032C0FD0052CFB
S214007C200FD0022C09D00021204AD2F8203123F0B0
S214007C3003030B43C2F82031EAE70321F4E70221ED
S214007C40F2E70121F0E7A1F10804082CE0D801A32F
S214007C5053F824F0797C0000797C0000117C000049
S214007C60797C0000C17C0000117C0000117C0000C3
S214007C70117C0000797C00000C4B596E03F5805394
S214007C804FF480325A660C4A136A43F001031362BB
S214007C9011F4803F03D1094B4FF480325A664FF0FF
S214007CA0E022136923F004031361B1E7008000406B
S214007CB000E000400090004000C0074000A00040E8
S214007CC0484B596E03F580534FF480325A66464A45
S214007CD0136A23F00103136211F4803F03D1434B70
S214007CE04FF480325A664FF0E022136943F00403E3
S214007CF013618DE70B2C05D10322FAE60122F8E684
S214007D000022F6E60022F4E60B2C05D103221DE73E
S214007D1001221BE7002219E7002217E700210AE0EC
S214007D20022108E0032106E0042104E0052102E028
S214007D30062100E001212B4AD2F8243123F0070364
S214007D400B43C2F8243163E7083C062C05D8DFE86D
S214007D5004F0060C0C0804040A00002106E00221C8
S214007D6004E0032102E0042100E001211D4AD2F8CC
S214007D70003223F007030B43C2F8003248E7012124
S214007D8052E6032150E602214EE60F2C0BD0102CB3
S214007D900BD10221134AD2F8203223F003030B43FF
S214007DA0C2F8203234E70121F4E70021F2E70A2C7A
S214007DB00DD8092C0FD2082C0FD102220949D1F870
S214007DC0403223F003031343C1F8403220E70B2C64
S214007DD005D10322F2E70122F0E70022EEE70022B7
S214007DE0ECE700BF0080004000C0074000A0004055
S214007DF0EFF3108072B6704700B962B67047EFF3C3
S214007E001180302383F31188704780F31188704700
S214007E1090B9254B00221A60244B4FF400325A6664
S214007E2003F598335B68012B00D07047204BD3F8DE
S214007E3000211D4B1A6070471B4B1B68002BF4D0AB
S214007E401C4A5268012AF0D010B5194AC2F800310F
S214007E508020FFF785FB052803D0174B01225A60C8
S214007E6010BD4FF4C070FFF765F90446012815D021
S214007E70104B03F500520721116103F580530122D0
S214007E805A600C4B1B6913F0010FFAD0012CE7D196
S214007E9001214FF4C070FFF733FDE1E702214FF4F4
S214007EA0C070FFF72DFDE3E750170020009000405C
S214007EB00080004000C0014000D001404FF040224A
S214007EC0536F23F44073417843EA012353677047A6
S214007ED07047704738B50546B8B9114A136943F07C
S214007EE00403136102F04AF8FFF7F2FFFFF780FF82
S214007EF0044629F061F82046FFF77EFFFFF7E9FF0A
S214007F0002F052F82DB945B138BD0020FFF780FFCA
S214007F10E3E70120FFF77CFFF5E7FEF779FEF3E7DE
S214007F2000ED00E038B5054698B90F4A136943F0EE
S214007F300403136102F022F8FFF75AFF044629F003
S214007F403BF82046FFF758FF02F02EF82DB945B152
S214007F5038BD0020FFF75CFFE7E70120FFF758FF7A
S214007F60F5E7FEF755FEF3E700ED00E008B5002064
S214007F70FFF74EFF08BD08B50120FFF749FF08BD13
S214007F804FF04022D36E23F0300301790B43D366C3
S214007F9070477047F8B504464FF04023D3F8843056
S214007FA013F0100FF8D14FF04023D3F88430C3F30A
S214007FB081139C4231D0FEF711FE0646012C12D0EA
S214007FC0FFF716FF05464FF0402707F500534FF022
S214007FD000725A662046FFF7DCFF621E4FF480638D
S214007FE093403B6707E00121FFF77EFCE8E74FF090
S214007FF04023D3F884304FF040235B6E13F0007FAD
S21400800006D14FF04023D3F8843013F0200FEED083
S2140080102846FFF7F1FE022C00D0F8BD00213046BE
S214008020FFF762FCF9E7000010B50C46034650B1B6
S214008030094A127812B1094A934208D92146022009
S214008040FFF7A8FF10BDFEF7C9FD0346F0E721467F
S2140080500120FFF79FFFF5E754170020005A620241
S21400806008B50278034B1A7001210020FFF7DCFFE9
S21400807008BD00BF541700201B4B4FF000425A6645
S21400808003F50B2303F58052012151605A6C0A4018
S2140080904AF6CD31196498B99B6813F0010F07D0E2
S2140080A0124B01219960124BDB6A13F0010FFAD0D4
S2140080B00E4B0121596012B10D4B0E4A1A647047DF
S2140080C00B4BDB6A13F0080FFAD1094B03F500518E
S2140080D02020486203F5805301219960044B5B6AB7
S2140080E013F0200FFAD0E6E7009000400060094049
S2140080F0004009403254FFFF10B51A4B4FF00042C3
S2140081005A66194A02F5805301215960546C0C4096
S2140081104AF6CD33136443788B400B434FF040212F
S214008120CB63936823F07403827843EA0213C27821
S214008130B2B1042213430C4A93600179837943EA6F
S214008140012313614179C37943EA0123536100781F
S214008150FFF792FF14B1044B044A1A64012010BDC5
S2140081600022E7E700900040004009403254FFFF3D
S2140081702DE9F04704460E461F46904662B1D3B33B
S21400818001228A4000EB40031B0103F1804303F504
S214008190703341F210015A50072E39D804EB4403CD
S2140081A01B01DFF8C4909944B3004FF00F0A0AFA97
S2140081B003FA08FA03F5FFF71BFED9F8002085EA54
S2140081C0020303EA0A035340C9F80030FFF714FE1F
S2140081D0B8F1000F0DD1C7B3012101FA06F604EB82
S2140081E04404240104F1804404F5703441F2100381
S2140081F0E650BDE8F08701228A4000EB40031B01F1
S21400820003F1804303F5703342F210015A50C3E77E
S21400821004EB44031B01DFF854909944A6F10802CE
S21400822092004FF00F0A0AFA02FA08FA02F5FFF770
S214008230DFFDD9F8003085EA030202EA0A025A4056
S214008240C9F80020FFF7D8FDC2E7012101FA06F6BB
S21400825004EB4404240104F1804404F5703442F233
S2140082601003E650C5E700BF04C003400CC003403F
S214008270064B4FF400329A6603F51C3341F6713212
S214008280DA6303F500530122DA607047009000407D
S214008290074B41F67132DA6303F500520121D160D3
S2140082A00022DA63A3F518334FF400329A6670475B
S2140082B0000003400B784A7843EA8203CA7843EA10
S2140082C042130A7943EA021300EB4002920002F1DD
S2140082D0904213630B78012B00D070478A78024BCC
S2140082E043F82020F9E700BFE88003404FF09043B2
S2140082F05B680BB9002837D04FF090435B6843B1FA
S2140083004FF090435B6823B14FF090439B6A002B7D
S214008310F6D180B1154B01225A604FF090435B684E
S21400832023B14FF090439B6A002BF6D14FF0904359
S2140083300122DA6070474FF090435B6823B14FF03C
S21400834090439B6A002BF6D14FF090430222DA60EE
S2140083504FF090435B6823B14FF090439B6A002B2D
S214008360F6D1034B01225A60704700BF0010004848
S214008370002000484FF090435B6843B14FF09043B5
S2140083805B6823B14FF090439B6A002BF6D1154BE8
S21400839001225A604378E3B113468278DAB10222AA
S2140083A01343C278CAB104221343027943EA021384
S2140083B0427943EAC2034FF09042936002F580523E
S2140083C001235360037853B101224FF09043DA60E3
S2140083D070470023E1E70022E2E70022E4E70222FA
S2140083E0F3E700BF00200048074B4FF480325A6680
S2140083F003F5E6235B69C3F38512827003F03F0240
S21400840042701B0B03707047009000400A4B984266
S21400841007D00A4B984209D0C36D43F08003C3656A
S2140084207047A3F51033C3F88C11F5E7A3F5203396
S214008430C3F89C11F0E700BF00C0054000000640EE
S21400844070B5054616461C460846D1B1402C21D0CC
S2140084501CD80CB3202C13D1082106FB01F14B08C5
S21400846003EB4013B3FBF1F3203B0C4A02EAC303D1
S214008470AA6822F06002AA60AA681443AC60EB61A6
S21400848070BD4FF42070FEF7D5FEDFE7602CF7D105
S2140084900421E2E70621E0E71021DEE7F8FF7F008F
S2140084A000F5805301225A60CB43934003F00A0341
S2140084B04361416111B900F5005042607047000009
S2140084C000F5805301225A6040F6AA6343610023F8
S2140084D08360C36541F20502C2600361C361C36481
S2140084E000F500520C49916483650C4B984203D00A
S2140084F003F58043984201D100230365074B984259
S21400850003D003F58043984201D10023436500F56C
S2140085100050012343607047FFFF010000C0054084
S21400852038B505460C46FFF7CBFF05F5805301220C
S2140085305A60A37C1BB1AB6843F08043AB60E37C1E
S214008540002B42D1637B228A1343E2891343EB60FC
S214008550237BA26861682846FFF772FF637D1BB124
S214008560AB6843F48033AB60A37D1BB1AB6843F4C8
S2140085700043AB60E37D1B0703F0E043227E120559
S21400858002F4E0021343AB65637E023BDBB2012BD1
S21400859020D9214B9D4236D003F580439D4230D0F2
S2140085A04FF0FF335B0103F1804303F5703342F273
S2140085B01C6202219950637E012B26D0032B24D007
S2140085C005F500530422DA6523E0217D2846FFF7EF
S2140085D01DFFB7E7104B9D4211D003F580439D4227
S2140085E00BD04FF0FF335B0103F1804303F570338C
S2140085F041F21C6202219950DDE70123F3E70023D4
S214008600F1E70123CEE70023CCE705F580530422EB
S214008610DA6523786B6138BD00C00540836913F0C6
S214008620800FFBD0406AC0B27047836913F0400FDA
S214008630FBD0C1637047000038B5044620F0CCFE7E
S214008640054DA446BCE80F000FC59CE8030085E86E
S2140086500300002038BD00BF5817002047F6FF7300
S2140086609A4275D0022975D870B53C4B03EBC10011
S21400867090F802C0604613F83130012B22D0374BF9
S21400868003EBC1035C68002C66D0B4F90050954239
S21400869004DBB4F90250954200DC1546A388FF2B94
S2140086A02BD02826C8230022AE465B1B93FBF6F38E
S2140086B013442A4A02EBC1014D78691E994231D310
S2140086C019462FE0254B03EBC103D878A0EB0C002E
S2140086D00025A8420ED9431BA0EB53031F4C04EB06
S2140086E0C104646834F91340944201DC1D46F0E787
S2140086F0581EEEE76044C0B229E0B4F90630B4F97B
S21400870008600122D0E703F5FA73154AA2FB03239B
S2140087109B094A1C954210D904EBC206B6889E42B5
S2140087200BD3114604EBC1029368B2F9062002FB94
S2140087300E33002BE7DA0023E5E704EBC1018A8855
S2140087409A4200D31A46624500D31046C0B270BDA6
S214008750FF207047002070470020F8E758170020D9
S214008760D34D621002296DD8394B13F83130012BE6
S21400877023D010B5364B03EBC1035C68002C63D0E6
S21400878014F1040C62D0324B03EBC1039B78934286
S2140087902BD22F4B03EBC103DB78934228D92C4B0B
S2140087A003EBC10191F801E00EF1FF3E5FFA8EFE89
S2140087B0A388FF2B1FD0002321E0254B03EBC1032A
S2140087C0DB78934200D21A46214800EBC10080783D
S2140087D0121AD2B21B1A9A4200DD00221C4B03EB7F
S2140087E0C1014B6833F912007047B4F9020010BD9E
S2140087F0B4F90000FBE7012301E00133DBB2734567
S21400880005D2591C3CF8310091B28842F5D24FF49B
S2140088107A7101FB02F20CEBC30CDCF80430D31ABD
S214008820BCF9022002EBD27103EB610393FBF2F377
S214008830B4F900009842DADBB4F902009842D6DCBC
S21400884018B2D4E7034870470248D0E70148CEE79D
S214008850581700200080FFFF08B50348FFF7ECFE1E
S214008860012020F0BBFD08BD3828030000B587B006
S21400887000230193029303930493059302238DF838
S21400888004300A4A02928DF80D3004228DF80E202C
S2140088908DF8133005238DF814300DEB02014FF0E0
S2140088A0FF3020F001FE07B05DF804FB006A1800F8
S2140088B000B583B0064A6B4692E8030083E80300DF
S2140088C01846FFF719FC002003B05DF804FB00BF54
S2140088D0BC28030010B582B04FF04022536F43F01F
S2140088E001035367002400948DF804406846FFF7A0
S2140088F047FB204602B010BD30B587B001AC1B4D1B
S2140089000FCD0FC42B6824F8023B1B0C2370184BAA
S214008910D3F84C3113F4002F10D1154BD3F8504137
S214008920E4B2B4F1FF3F13D08DF80E40FEF792FF8D
S21400893024180FD4FF2C0EDDFF240CE04FF0FF347C
S2140089400C4B1B884FF6FF729342EAD01C46E8E7B2
S2140089508C24E9E700248DF80D400748FEF774F9EB
S21400896001A8FEF7D1FE002007B030BDC4280300E2
S2140089700080E00F0001E00F00F0490208B501207A
S214008980FEF76EFF002008BD6FF0040308E003F159
S214008990604202F56142502182F8001301335BB257
S2140089A03F2B08DC002BF2DA03F00F01034A0A44DF
S2140089B050211176F2E70020704700BFFCEC00E083
S2140089C008B500F087F808BD10B501F081FC044634
S2140089D008B1204610BD01F087FD4FF4167100FB6C
S2140089E001F101F5742101F23F210A4BA3FB01318D
S2140089F0890C094B1960002308E0084A42F8231046
S214008A00074802680A4402600133DBB2092BF4D936
S214008A10DFE700BF83DE1B43AC1700207C17002077
S214008A20781700207047000008B5044B01221A7022
S214008A3001F04EFD024B186008BD00BF7417002001
S214008A40A8170020184B1B7803B9704770B501F0C3
S214008A503FFD164B1B68C01A154B186000B9012065
S214008A60134B1860134C2378134D55F82320111A16
S214008A70124E3268521A326045F823000932104905
S214008A80A1FB0202D2080F4802600133DBB223705A
S214008A90A1FB0312D20802EB8202A3EB420323706F
S214008AA0014B00221A7070BD74170020A817002012
S214008AB070170020A41700207C17002078170020CD
S214008AC0CDCCCCCCAC170020014B1868704700BF4B
S214008AD0AC1700200B49202381F82C330A4B4FF4A7
S214008AE000225A6603F5405303F50050074A4267D2
S214008AF002674FF48050C1F88401486003445A6707
S214008B00704700BF00E100E000900040010000A0B8
S214008B10024603E00023184663B95AB1064B9B6D24
S214008B2013F0010FF6D0054B1B780BB10023F2E7CC
S214008B300123F0E7704700BF00C00040C4170020C4
S214008B402DE9F0418F4B1C6F9E6A06F002069D6A67
S214008B5005F0010514F001035FD08B4A13678B4BB9
S214008B601B78002B52D0894B00221A70884B1B783A
S214008B70012B45D8834B03F500520121916203F582
S214008B80805302229A627F4B9B6D13F4803FFAD18A
S214008B907C4A536B23F470637E4909680B43536326
S214008BA0936923F47F0323F47F437B4909680B43CF
S214008BB07A4909680B439361136923F47F6323F0B2
S214008BC00F03774909680B43764909680B4313611D
S214008BD0936923F0FF03744909680B4393613EB918
S214008BE0694B02229A623DB1704B01229A6214E0F0
S214008BF06E4B02229A62F6E7634B01229A620CE001
S214008C00FFF710FF6A4B01221A7006E0FFF71AFF03
S214008C1001F0BEF85E4B00221A7014F0005278D0B5
S214008C20584B03F5005CCCF870204FF0010E574A05
S214008C3082F800E056490A7872440A705A6B02F4C9
S214008C40706054490860996901F47F415248016098
S214008C50986900F47F00514F38609F69FFB2DFF8D3
S214008C604881C8F800701F6907F47C67DFF8308118
S214008C70C8F800701F6907F03F07DFF82881C8F8BA
S214008C800070CCF828E003F5805302279F624FF06F
S214008C9000479F623B4B9B6D13F4803FFAD1394BE4
S214008CA003F500574FF0004CC7F828C022F4706256
S214008CB042F400725A63B1F5C84F02D8B0F5C80F37
S214008CC00CD9304A936923F47F0323F47F43394950
S214008CD0096843EA012343EA0143936129490B6982
S214008CE023F47F6323F00F03334A1268900843EAA5
S214008CF0920343EA80130B618B6923F0FF031A4348
S214008D008A6156B9204B02229A6255B1274B01223E
S214008D109A62002C09DBBDE8F081244B02229A629D
S214008D20F3E7194B01229A62F3E704F00044164B6E
S214008D301C671F4B1B78002BEDD0124B03F500521F
S214008D400121916203F5805302229A620D4B9B6DBE
S214008D5013F4803FFAD1154B4FF000429A6146B9A2
S214008D6003F5805302229A623DB1104B01229A62AB
S214008D70D1E70E4B02229A62F6E7034B01229A6273
S214008D80C9E700BF00C0004000E00040C417002054
S214008D90C5170020C8170020BC170020C0170020E9
S214008DA0B4170020B8170020B017002000D00040ED
S214008DB0C6170020600B00205C0B002008B5FFF7EC
S214008DC0BFFE08BD10B50446FFF712F8024B1C6044
S214008DD0FFF712F8002010BDCC17002010B5FFF7E3
S214008DE007F8034B1C68FFF707F8204610BD00BFC6
S214008DF0CC17002070B50C461546034638B153B163
S214008E005E6856B12A4621461868B04770BDFFF71F
S214008E10E5FF0346F3E72320F8E72320F6E72DE9EE
S214008E20F04182B00E4617461C46054670B18CB11E
S214008E3095B1D5F80880B8F1000F0FD023463A4612
S214008E4031462868C04702B0BDE8F081FFF7C6FF8C
S214008E500546ECE701ACEBE72320F4E72320F2E736
S214008E600EB470B583B007AB53F8045B0193D0B172
S214008E700646FFF7B3FF0446864202D03046FFF7A9
S214008E80A1FF0199284627F0CFF90546B44202D043
S214008E902046FFF797FF002D0ADD002003B0BDE84F
S214008EA0704003B07047FFF799FF04460646E8E7B0
S214008EB03720F3E700207047FEE74FF400534B607F
S214008EC000207047012070470020704700B583B02F
S214008ED00020019001ABFFF7A2FF019810B103B08C
S214008EE05DF804FB4FF0FF30F9E710B5144600209C
S214008EF0FFF780FF204610BD08B5044B1868002316
S214008F0002221946806827F0CBF808BD840C0020A2
S214008F10034690F82A204AB190F82E00022801D085
S214008F2001207047012283F82E20704701207047E9
S214008F3080F82410704790F82400704790F82B00B3
S214008F40704770B504460D46FEF759FFA6699EB1F8
S214008F50E2692369D35C2B70236901332361226A9B
S214008F6093420CD0A369013BA361FEF74EFFA368B2
S214008F7020469847304670BDFEF747FFFAE70023C5
S214008F802361EFE72DE9F84304460F46154690F8AF
S214008F902460FEF734FF94F82A309BB9FEF735FFBD
S214008FA04EBB4FF00108AE4239D294F82630002B63
S214008FB0F9D02368397820469847804698BB013711
S214008FC00136F0E7FEF721FF94F82D90FEF710FF2C
S214008FD080460121484600F065FD4046FEF70CFF3E
S214008FE0FEF70DFF002384F82A30D7E723680D210B
S214008FF0204698470BE000264FF00108AE420ED2FE
S21400900094F82630002BF9D03B780A2BEED0236854
S21400901017F8011B2046984780460136EEE763683E
S2140090200121204698474046BDE8F88308B5FFF77B
S214009030A9FF002008BD2DE9F04182B007460E4684
S21400904090461D4600232B6003E001362C68013451
S2140090502C602B68434505D231463846FFF771FF32
S2140090600028F2D197F827302BB12B6883B1002067
S21400907002B0BDE8F08111238DF8073001220DF112
S21400908007013846FFF7D2FF012387F82730ECE7C1
S2140090901B20EDE770B5044690F82B300A4601B168
S2140090A013B102B983B970BD90F82C60FEF7A0FE2C
S2140090B005460121304600F0F5FC2846FEF79CFEEA
S2140090C0012384F82B30EEE794F82C60FEF790FE30
S2140090D005460021304600F0E5FC2846FEF78CFEEB
S2140090E0002384F82B30DEE738B504460568FFF722
S2140090F075FE844245D095F92830002B08DB03F036
S2140091001F015B0901228A406033204941F8232071
S21400911095F92830002B0CDB03F01F015B090122B8
S2140091208A402033194941F82320BFF34F8FBFF3FD
S2140091306F8F95F92930002B08DB03F01F015B09C0
S21400914001228A406033114941F8232095F92930DD
S214009150002B0CDB03F01F015B0901228A40203341
S2140091600A4941F82320BFF34F8FBFF36F8F0023C8
S21400917023606360A36023616361EB6828469847B9
S21400918038BD0020FFF71EFEB5E700BF00E100E097
S214009190F8B515465268002A00F0848006460C464C
S2140091A01F46AB68002B7FD030220021204626F0D9
S2140091B0AAFE6B68E361AB6823622B7B84F82430DD
S2140091C0AB7B84F82530012384F8263084F82730DA
S2140091D02760069A6260079AA260089AE26095F98C
S2140091E0002084F8282095F9012084F8292034608E
S2140091F02E4A72602E4AB2602E4A32612E4A726140
S2140092002E4AF2602E4A326284F82E302D4AB2611F
S2140092102D4AF2619DF8282084F82D209DF8242000
S21400922084F82C20002284F82B2084F82A30697BCE
S2140092302046FFF72FFF95F90130002B08DB03F0DF
S2140092401F015B0901228A406033204941F8232030
S21400925095F90130002B07DB03F01F015B090122A3
S2140092608A401A4941F8232095F90030002B08DB84
S21400927003F01F015B0901228A406033134941F85D
S214009280232095F90030002B07DB03F01F015B0954
S21400929001228A400D4941F823203046FFF792FD0F
S2140092A00020F8BD2220FCE72120FAE72D900000E0
S2140092B037900000318F0000378F0000E9900000E3
S2140092C0118F0000959000003D8F000000E100E047
S2140092D010B50446FEF793FDA269236A9A4203D3AB
S2140092E0FEF793FD002010BDFEF78FFD0120FAE784
S2140092F030B583B004460D46FEF781FD94F8253060
S2140093001BB1132D18D0112D1CD0E2696369D554FA
S214009310636901336361A2690132A261226A9342E2
S21400932016D0FEF772FD042384F82E30A269236A55
S2140093309A4210D003B030BD002384F82630FEF7E2
S21400934064FDF7E7012384F82630FEF75EFDF1E7BB
S21400935000236361E5E713238DF8073001220DF142
S21400936007012046FFF70EFE002384F82730E1E7CA
S21400937090F82A30BBB970B5044643680021984778
S214009380012384F82A3094F82D60FEF731FD054657
S2140093900021304600F086FB2846FEF72DFD02230E
S2140093A084F82E3070BD704729B1026BD36C43F041
S2140093B00103D3647047026BD36C23F00103D364BC
S2140093C0036B03F5005301229A647047026BD36C5B
S2140093D043F00403D364704710B50446236B9B69BF
S2140093E013F0400FFAD000231A4694F8371094F87A
S2140093F03600FEF7BDFE00231A4694F8391094F89E
S2140094003800FEF7B5FE94F83E3013F0010F0ED18B
S21400941094F83E3013F0020F12D10021206BFFF7B4
S2140094203FF80021A08EFDF7E5FE002010BD0023CA
S2140094301A4694F83B1094F83A00FEF799FEE7E7D0
S21400944000231A4694F83D1094F83C00FEF790FE70
S214009450E3E708B5006BFFF7E8F8002008BD00005A
S2140094602DE9F04186B016461C460C9D0123049358
S21400947003935E4B02935E4B01935E4B00935E4BF1
S2140094800A462946FFF784FE074618B1384606B056
S214009490BDE8F08123682B63A388AB86E37985F863
S2140094A03730A37985F83630637A85F83930237AF1
S2140094B085F83830E37A85F83B30A37A85F83A3079
S2140094C0637B85F83D30237B85F83C3001213A20CC
S2140094D0FDF790FE01230422E179A079FEF748FE0D
S2140094E001230222617A207AFEF742FE0121A0883B
S2140094F0FDF780FE4FF0000886F8008031462068B1
S214009500FFF70EF8A27B3D4B03EB42121421C2F884
S2140095101C16A179E079A27B41EA004103EB4212D6
S214009520C2F83416227A607AA17B42EA004203EB44
S2140095304113C3F82C2685F83E80737E032B53D840
S214009540DFE803F038022E33012385F83E3000268C
S21400955000230222E17AA07AFEF70AFEA27AE17AD6
S214009560A37B42EA0142B1335B0103F1804303F57A
S21400957070335A60236803F580530422DA65DEB937
S214009580A37985F83630E37985F837302268D36CCE
S21400959043F00403D36405212068FEF781FF75E7D6
S2140095A0022385F83E300126E9E7032385F83E309E
S2140095B00126CDE70026E2E700230422617B207B1C
S2140095C0FEF7D6FDA27B0D4B03EB421241F21C6167
S2140095D002205050227B607BA17B42EA0042B131E0
S2140095E003EB41139A60CBE723274FE7D99300009C
S2140095F0CD930000A99300005394000000C00340E0
S21400960010B50446036B9B6913F0800F0ED1236BD5
S2140096109A6C12F0010F08D003F5005301229A64E9
S214009620236B9B6913F0200F11D110BDFFF750FE7E
S21400963028B9226BD36C23F00403D364E7E7206BCE
S214009640FEF7ECFF01462046FFF752FEDFE7204616
S214009650FFF78EFEE9E7000070B4BFF34F8FBFF34D
S2140096606F8F294B5A6A22F480325A62D3F89420BC
S21400967022F00102C3F89420244B2548834240D0B0
S21400968020F01F012039204CD4F8C05085F0A002ED
S214009690D2B26A40C4F8C020B1F1005F0CD31D4DB1
S2140096A02A6841F00101C4F898201B4EC4F89C605B
S2140096B0C4F8A01001322A60834210D01F3323F072
S2140096C01F0343F00303134802680F49C1F89820AC
S2140096D0C1F89C30114BC1F8A03001320260BFF3D4
S2140096E04F8FBFF36F8F084B0522C3F894205A6A3A
S2140096F042F480325A62BFF34F8FBFF36F8F70BC55
S21400970070474FF08041BEE700ED00E0080F0020F4
S214009710E80C0020D017002003000020E1FFFF3FE8
S21400972010B4BFF34F8FBFF36F8F254B5C6A24F4E2
S21400973080345C62D3F8944024F00104C3F894406B
S2140097401F2A13D8BFF34F8FBFF36F8F1C4B052212
S214009750C3F894205A6A42F480325A62BFF34F8F9D
S214009760BFF36F8F00205DF8044B70471A46D3F89E
S214009770C04084F4807303F47F436340C2F8C03073
S21400978010F01F0F02D020F01F00203011F01F0F26
S21400979001D021F01F0120F01F0040F00300094C0B
S2140097A0236821F01F0141F00301054AC2F89830F2
S2140097B0C2F89C00C2F8A01001332360C2E700BFC5
S2140097C000ED00E0D0170020BFF34F8F0549CA68B0
S2140097D002F4E062044B1343CB60BFF34F8F00BF2D
S2140097E0FDE700BF00ED00E00400FA0508B5FFF74E
S2140097F0EBFF08BD0120012805D8431E034AD35CB1
S2140098000BB90130F7E7C0B2704700BF041800205C
S214009810F8B506460F46032903D8DFE801F00A0428
S2140098200608002506E0042504E0102502E0402591
S21400983000E00125032E05D8DFE806F002070A0D32
S21400984045F002050B4B1C6809E045F00805F9E7F2
S21400985045F02005F6E745F08005F3E7246844B1B7
S21400986063681A682A42F9D05B68394630469847DA
S214009870F4E7F8BD00180020134B1B7813B310B59F
S214009880124B1B785BB9002000F0E6FB68B9104B62
S21400989001221A700F4B1A780F4B1A7010BD00F089
S2140098A0B5FB0A4B00221A70EDE700F0E1FB064B11
S2140098B000221A70074C01212078FFF7A9FF012328
S2140098C02370EBE7704700BFFE170020F917002053
S2140098D0FD170020F01700201018002008B50B4BCD
S2140098E01B78024660B101210B4408490B7032B167
S2140098F0074B1B78012B02D9064B1B7813B108BD0A
S214009900FF21F1E7FFF7B8FFF9E700BF04180020D2
S214009910F0170020FD17002010B5FEF769FA044680
S214009920054B1B782BB9FFF7A7FF2046FEF764FA16
S21400993010BDFEF761FAFBE7F817002010B5FEF73A
S21400994057FA0446164B1B78D3B1164B1B782BB927
S214009950144B01221A70144B00221A70134B1B78FA
S21400996093B92046FEF748FA012000F075FBFEF793
S2140099703FFA04460B4B1B7863B9094B00221A705A
S2140099802046FEF739FA10BD00F040FB074B0022D8
S2140099901A70E6E700F06CFB024B00221A70ECE748
S2140099A0FE170020F8170020FD170020F9170020EA
S2140099B010B584B0A0B1831EDBB2012B13D803A967
S2140099C0002000F04FFD70B9184B1B68039A9A42AE
S2140099D012D80120FFF782FF154B01221A7002E011
S2140099E0134B1B780BB904B010BD0020FFF776FFB1
S2140099F00F4B00221A70F6E70E4B1C6800F074FB43
S214009A0020440399884206D30120FFF767FF084BDE
S214009A1001221A70E7E70223019300230093064A07
S214009A20091A064800F0C0FCDDE700BFF417002066
S214009A30081800201418002019990000D4170020D8
S214009A4038B5FEF7D5F90446114B1B786BB900F014
S214009A503FFC0546C0B900F047FD0E4B18600E48A7
S214009A60FDF716F90D4B00221A6000F0E1F900F040
S214009A7035FB0B4B1860064B01221A702046FEF78A
S214009A80BBF90025284638BD2046FEF7B5F9F9E7AC
S214009A90FA1700200C1800200018002014180020C8
S214009AA0F417002038B50138144B1B5C0A46A1B1E8
S214009AB001210B4411490B5472B1114B1D78012D35
S214009AC00AD9FFF797FE0446012808D9032D09D0C6
S214009AD00B4B1878A0420AD138BDFF21E9E7FFF703
S214009AE02DFFF5E70228F3D100F016FBF0E721463C
S214009AF0FFF78EFE024B1C70EEE700BF0418002036
S214009B00F017002010B50446FEF772F9084B1B78D4
S214009B1064B101221344DBB2054A1370B3FA83F32F
S214009B205B09044A1370FEF767F910BDFF22F1E7E0
S214009B30071800200618002010B5FEF759F904464D
S214009B40FFF79AFE2046FEF757F910BD38B50446D3
S214009B504160FEF74DF9054621460348FDF79BF8A0
S214009B602846FEF749F938BD00180020014B186852
S214009B70704700BF1418002038B5FEF739F90546BF
S214009B80094B1B78012B0AD9FFF7F0FF044600F0BB
S214009B90ABFA04442846FEF72FF9204638BDFEF7F8
S214009BA02BF90024F9E700BFF0170020064B1B68CE
S214009BB003FB00F000F5742000F23F20034BA3FBEC
S214009BC00030800C704700BF0C18002083DE1B435B
S214009BD038B5FEF70DF9054600E000BFFCF7D4FEE9
S214009BE0002842D100E000BF2846FEF705F9AAE0AB
S214009BF00020FFF773FE544B00221A7039E000F085
S214009C00B9F943E02146FFF703FE4AE04F4B002236
S214009C101A7020F0EDF84DE04D4B01221A704D4BB6
S214009C20187800F041FA4C4B1B781BB14B4B1A7856
S214009C30484B1A7000E000BF2846FEF7DDF8FEF736
S214009C40D7F80546464B1B7843B1454B00221A70A1
S214009C50404B1B78414A107883423BD0414800F085
S214009C6073FBFCF79FFE00283AD0374B1B78002B7F
S214009C70BED1FFF7BFFDFFF79BFEFFF7BBFD044617
S214009C80012803D9324B1B78002BB8D0314B1878FB
S214009C90A04208D02D4B00221A702F4B1B78002BA9
S214009CA0B0D02C4B1C70294B1B781BB1294B1B7852
S214009CB0022BABD0012CB2D9254B1B78002BAED192
S214009CC0294B1B78002BA7D100F09AF9274B0122CD
S214009CD01A70A1E701211F4B1970FFF799FDBDE728
S214009CE01A4B00221A701A4B1B78EBB11A4B1A70DB
S214009CF01E4B1B786BB9002000F0AEF978B9012036
S214009D0000F0D2F92846FEF777F8FEF771F8054618
S214009D10F1E700F07BF9154B00221A70EBE700F034
S214009D20A7F90B4B00221A700020FFF741FE094CE2
S214009D3000212078FFF76CFD0023237000E000BFB1
S214009D402846FEF759F838BD0818002006180020E7
S214009D50FE170020F0170020FD1700201018002026
S214009D60FC170020D417002007180020F917002041
S214009D7010B5FEF73DF8054B1C7800221A70FEF76A
S214009D803BF800F0ABFC2043C0B210BDFB17002030
S214009D9008B50A4B1B7813B1094B1B7803B908BDED
S214009DA000F066F90023064A1370064A1370012372
S214009DB0054A1370054A1370F1E700BFF01700203C
S214009DC0FD170020FE170020FB170020FC170020C0
S214009DD070470000144B1B78834223D010B582B026
S214009DE0044600238DF8043002238DF8053010B9A0
S214009DF000238DF8053001A8FEF760F854B1402026
S214009E00FFF7D4FE094A13681B1A1360064B1C7032
S214009E1002B010BD4020FFF7C9FE044A1368034491
S214009E201360F3E7704700BF640B00202018002083
S214009E3010B582B000248DF8044001A8FEF710F992
S214009E402046FFF7C7FF454B196F01F00701444A4C
S214009E501160D3F8202102F0030CD3F8240100F09F
S214009E60070003F580534FF400225A664FF4003281
S214009E705A6603F598339A69C2F34002394B1A7052
S214009E8003292ED0BCF1020F29D0002336490B70CF
S214009E90022808BF43F001030B705AB153B92F498B
S214009EA0D1F8001101F00301012908BF43F00103B6
S214009EB02D490B7052B1294BD3F8003103F0030340
S214009EC0022B42D0032B44D0012B0CD06420FFF78A
S214009ED06DFE264A13680344136002B010BD0123CA
S214009EE0D4E70123D2E7FCF7A9FE0246002AEDD00C
S214009EF01F4BDB68C3F30B03013303EB8303D80E5E
S214009F005901C91A60F10000400240EAD1504902E6
S214009F10C91840F100044FEA841C4CEA916C880191
S214009F20411A6CEB0400CB1840F10001501E1818C3
S214009F304FF0000341F1000125F0CEFDFFF736FE9D
S214009F400A4A136803441360C0E7FCF79BFE024608
S214009F50CCE7FCF78BFE0246C8E700BF0080004057
S214009F60181800201C1800201F1800202018002099
S214009F7000C0014008B5FDF7F9FF08BD08B5084B5D
S214009F801B7803B908BD064B00221A70054A136FEA
S214009F9023F0070343F001031367FCF739FEF1E7EC
S214009FA01D18002000800040114B1B7803B9704735
S214009FB010B5022000F05CFC00B910BD00F082FA7B
S214009FC00028FAD00B4B9B6D13F4803F04D0094B4E
S214009FD0DB6D13F0020F07D10124074B1C70FEF750
S214009FE023FD064B9C62E8E7044B01229A62E4E7F5
S214009FF01F18002000C000401E18002000D000409F
S21400A000014B01221A7070471D18002008B50E4B30
S21400A0101B78A3B10D4B1B7873B90D4B9B6D13F4D6
S21400A020803F04D00A4BDB6D13F0020F08D1FEF719
S21400A030FBFC084B01229A62044B00221A7008BDF2
S21400A040044B01229A62FAE71F1800201E1800200F
S21400A05000C0004000D0004008B5044B1B780BB988
S21400A060012008BDFEF754FDFBE700BF1F180020C7
S21400A07008B5FDF780FF084A136F23F0070307496A
S21400A08009680B431367064B1B7813B1054B012277
S21400A0909A62FCF7BDFD08BD00800040181800203D
S21400A0A01F18002000E0004008B502280BD0032847
S21400A0B00DD0012800D008BD074A136923F0040319
S21400A0C0136130BFF7E70020FDF704FFF3E7002039
S21400A0D0FDF728FFEFE700BF00ED00E008B54FF4FE
S21400A0E0C870FFF763FD08BD08B5064B1B7823B99B
S21400A0F00020054B1B68184408BDFEF7E5FC00EB86
S21400A100D000F6E71F18002020180020014B01227F
S21400A1101A7070471F180020704700000E4B1B680F
S21400A120002201E01A469B680BB18342FAD18342B3
S21400A1300ED14AB18368936083685BB141695A69FE
S21400A1400A445A61002070478268034B1A60F3E79E
S21400A15002207047002070473C1800200A4B1B68FE
S21400A16000220A490A7005E0084B01221A7070475F
S21400A17059690A44012A06D8D98811F0020FF3D18A
S21400A1809B68002BF4D170473C1800203018002044
S21400A19008B500F0F5FA0B4B1B680B4A1268821ADA
S21400A1A003E0521A002159619B683BB132B15969EC
S21400A1B09142F6D38A1A5A610022F5E7024B1860DC
S21400A1C008BD00BF3C1800202818002070B50546C2
S21400A1D00C46C3882BB16C61134B1B68FBB1002186
S21400A1E00CE0FFF7C9FC06468442F4D2FFF7A4FC55
S21400A1F03446F0E7A41A6C6119469B6823B15A6985
S21400A200A242F7D9002AF5D031B18D60AB6013B108
S21400A2105A69121B5A6170BD034A1560F6E7024B75
S21400A2201D600023AB60F6E73C18002010B50B4B12
S21400A2301B685B695BB10A4A14681C44022000F084
S21400A240ADFA204600F0BCFAFFF788FF10BD0220EA
S21400A25000F0A4FA022000F001FBF5E73C1800200D
S21400A2602818002070B504460E4615469DF81420A2
S21400A2700271049A0260002282600561C360BDF824
S21400A2801830C38000F07CFA2844A061CEB90023C1
S21400A2906361E36813B12168204698477DB1FDF7F6
S21400A2A0A7FD0646FFF774FF29462046FFF78EFFF8
S21400A2B0064B1B68A34206D03046FDF79DFD0020E6
S21400A2C070BD3546EBE7FFF7B1FFF5E73C18002019
S21400A2D010B5FDF794FD0446144B1B78DBB9144A01
S21400A2E01360144A1360144A138000F003FA012026
S21400A2F000F054FA00F0EAFA0246104B186078B103
S21400A30000230F4840F2E73125F0E6FB0D4B1860BE
S21400A310064B01221A702046FDF777FD002010BD7F
S21400A3202046FDF772FD2320F9E700BF2418002021
S21400A3303C1800202818002032180020381800206A
S21400A34018FCFFFF2C18002070B540B30546FDF73B
S21400A3504FFD0446FFF71CFF124B1B68AB420CD0A8
S21400A36000262846FFF7DAFE054640B95EB10D4BDB
S21400A3701B6843B1FFF75AFF08E00126F1E72046C5
S21400A380FDF73AFD05E0074B1B6823B12046FDF7B5
S21400A39033FD284670BD022000F042FAF6E722257B
S21400A3A0F7E700BF3C180020B0B1F0B585B00F4607
S21400A3B014461D460646FFF7C7FFBDF82C3002932D
S21400A3C09DF82830019300952346002239463046F2
S21400A3D0FFF748FF05B0F0BD22207047B8B138B58A
S21400A3E00C460546A9B100230B70FDF708FD0A4B85
S21400A3F01B6801E0012222702BB122781AB9AB4209
S21400A400F8D09B68F8E7FDF700FD002038BD222055
S21400A41070472220FAE700BF3C180020F0B587B04E
S21400A42000248DF81740C8B10F4616461D46044650
S21400A4300DF11701FFF7D2FF9DF8173083B9BDF86D
S21400A440343002939DF83030019300953346002255
S21400A45039462046FFF706FF07B0F0BD2220FBE78F
S21400A4600320F9E7F8B505460F46FDF7C8FC064693
S21400A470124B1B68002407E000F082F9104B1B68A3
S21400A4801B1A1C440EE09B6893B15A691444DA8880
S21400A490AA42F8D100F074F9094B1B68C01AA04212
S21400A4A0EAD300243C603046FDF7AFFC002003E012
S21400A4B03046FDF7AAFC1B20F8BD00BF3C18002064
S21400A4C028180020014B1878704700BF301800206D
S21400A4D038B5FDF794FC054600F052F904462846C8
S21400A4E0FDF793FC204638BD014B1868704700BF47
S21400A4F0381800200C4B1B68834213D310B50C464B
S21400A5000A4B1968A1FB000140F2E733C0184FF46C
S21400A5107A724FF0000341F1000125F0DDFA206069
S21400A520002010BD212070472C180020381800206D
S21400A53008B501461E4B186810B3431E184220D1BA
S21400A540CA0E4B015B1A62F10002920042EA937255
S21400A5509B00591842F10003DB0043EA5173C9001F
S21400A560B0FA80F0C0F11F0200F1010CC04321FADE
S21400A57002F203FA0CFC42EA0C0223FA00F0104343
S21400A58008BDCA0E4B015B1A62F10002920042EA55
S21400A59093729B00591842F100024FEAC20C024621
S21400A5A00023C8004CEA517125F096FAE8E700BF90
S21400A5B0381800202DE9F843044610F0010F04D1A6
S21400A5C014F0020F10D1BDE8F883414A13889BB2FD
S21400A5D001339BB21380FFF7DBFD3E4B1B68002B5D
S21400A5E0EED0FFF723FEEBE7FDF709FC0546FFF785
S21400A5F0CFFD00273E4621E09B683BB15A692AB949
S21400A60021791A799142F7D91C46F5E72846FDF7D5
S21400A610FCFB2569CDB90025A8462F4645B323691E
S21400A62003B17DB3E7880136E36813B1216820469D
S21400A6309847FDF7E4FB0546FFF7AAFD254B1C6887
S21400A6408CB363697BBB2346D7E7A84600F098F82F
S21400A650A369C71AFA17BD424FF0000171EB020258
S21400A66004DA22691344A3610125D7E70025D5E75C
S21400A670FDF7C5FB81462046FFF750FD4846FDF72F
S21400A680C4FBCCE7B8EB0707FDF7B9FB0546394630
S21400A6902046FFF79BFD2269A3691344A361284661
S21400A6A0FDF7B3FBBEE70C4B00221A70012E06D056
S21400A6B054B1FFF7BBFD2846FDF7A7FB83E7022F43
S21400A6C0F6D101221A70F3E7022000F0A9F8F2E7AB
S21400A6D0321800203C1800203418002010B5FDF772
S21400A6E08EFB034B1C78FDF790FB204610BD00BF89
S21400A6F03418002010B584B01F4B93E80300029076
S21400A700ADF80C10083393E8030000908DF80410A1
S21400A71001213E20FCF76EFD00248DF808408DF8E0
S21400A7200C4002A8FDF726FE8DF800406946012081
S21400A730FDF7C0FD4FF090439A6922F47F7222F035
S21400A74003029A6103F5005340F2FF325A614FF05C
S21400A75090439B6A13F0080FF9D14FF09043002204
S21400A7601A620120FDF7C2FD044B4FF48052C3F875
S21400A77080211A6004B010BDD828030000E100E074
S21400A7804FF090439B6A13F0080FF9D14FF09043B7
S21400A790186A70474FF09043186C704710F0010F1E
S21400A7A00BD1002310F0020F01D043F040034FF00E
S21400A7B0904291690B43936170470123F2E70000D2
S21400A7C038B50446FFF7DCFF0546FFF7E3FF4FF01A
S21400A7D090435B6913F0400F04D1431B032B01D851
S21400A7E085420DD1631B022B00D8EC1CB4F1FF3F51
S21400A7F038BF013C4FF090431C640220FFF7CEFFA9
S21400A800064B1B7843B14FF09042D36B43F00203E4
S21400A810D363024B00221A7038BD00BF650B0020C0
S21400A82010F0010F15D1002110F0020F0AD041F0F0
S21400A8304001094B01221A704FF09042D36B23F06F
S21400A8400303D3634FF09042936923EA01039361B5
S21400A85070470121E8E700BF650B002010F0020FEB
S21400A86002D0024B40225A61704700BF00100048D9
S21400A8704FF090435B69012804D0022805D1C3F34A
S21400A8808010704703F001007047002070470000FA
S21400A89010B5FDF7B4FA04464FF090435B6913F029
S21400A8A0010F0FD1002013F0400F01D040F002003E
S21400A8B003F05103044A5361FFF77CFE2046FDF780
S21400A8C0A4FA10BD0120EEE70020004808B53E209F
S21400A8D0FCF7B0FC08BD08B5FBF77EFFFBF7AEFF44
S21400A8E0FBF7C7FFFBF7ABFFFBF7B1FF08BD08B5EB
S21400A8F0FBF7B1FFFBF7B0FFFBF7B2FFFBF7B4FFC8
S21400A90008BD38B50446FDF773FA0546204625F01F
S21400A910B3FA04462846FDF76FFA204638BD70B5F0
S21400A92004460E46FDF764FA05463146204625F0F5
S21400A93063FA04462846FDF75FFA204670BD38B530
S21400A9400546FDF755FA0446284625F09DFA2046AA
S21400A950FDF752FA38BD000031B108B50A46034B80
S21400A9601B680021984708BD704700BF680B002091
S21400A97000F4E040B0F5805F06D0B0F5005F01D08F
S21400A980002070470120704701207047B0F5105F27
S21400A9900DD018D8B0F5885F10D0B0F5905F0DD008
S21400A9A041F20103984209D06FF085007047802974
S21400A9B004D0C02902D0B1F5807F07D111F0070F6F
S21400A9C007D1002070476FF0850070476FF0860053
S21400A9D070476FF086007047114B0340B3F1607FFD
S21400A9E010D0B3F1707F15D101F4E043B3F5005FEA
S21400A9F013D1C1F30221012303FA01F1994206D9CA
S21400AA0000207047B1F5885FEBD1002070476FF0EB
S21400AA10860070476FF0860070476FF086007047BC
S21400AA200000C07F8A4200F075812DE9F04106469D
S21400AA300C46154622F0FF03A84A934210D0A2F512
S21400AA40807293420CD025F4FF7222F00102B2F11C
S21400AA50062F05D0A2498B4202D0A24B9A421DD1A6
S21400AA6024F0FF039D4A934210D0A2F580729342D1
S21400AA700CD024F4FF7222F00102B2F1062F05D0AA
S21400AA8097498B4202D0974B9A4207D114F0FF03A6
S21400AA9004D043F00073944A93420ED004F0FE476D
S21400AAA0B7F1A06F10D0B7F1407F23D0B7F1106F89
S21400AAB000F00D810020BDE8F0816C4034F0FF030B
S21400AAC00CBF01200020F6E705F0FE43B3F1A06FAF
S21400AAD0E9D185EA040333F47E13E4D114F4004F7D
S21400AAE0E1D0C4F30544C5F3054084428CBF002082
S21400AAF00120E0E705F0FE43B3F1407FD6D185EABA
S21400AB00040030F47E18D1D131462046FFF764FFAA
S21400AB10002840F0018115F47C101ED0C5F30540D6
S21400AB20724B2B40B3F1607F6DD0B3F1707F00F0B5
S21400AB309880C4F3054314F47C1F00F0C38015F41A
S21400AB407C1F02D1434500F0E98014F4004FADD0DD
S21400AB5083428CBF00200120ADE7644B2B40B3F14D
S21400AB60607F0CD0B3F1707FDAD106F4E043B3F522
S21400AB70005FD5D1C6F3022301209840D0E7EBB2A0
S21400AB8043F000735A4A934225D00132934224D0B0
S21400AB900132934223D00332934222D001329342B1
S21400ABA021D00132934220D0013293421FD001328D
S21400ABB093421ED0013293421DD0033293421CD0E2
S21400ABC0013293421BD0013293421AD00132934293
S21400ABD0A6D14020A4E71020A2E71420A0E7142066
S21400ABE09EE71C209CE720209AE7302098E740202C
S21400ABF096E71C2094E7202092E71C2090E7202070
S21400AC008EE730208CE7EBB243F00073384A93426D
S21400AC1034D00132934234D00132934234D00332DE
S21400AC20934234D00132934234D00132934234D02E
S21400AC300132934234D00132934234D001329342EF
S21400AC4034D00332934234D00132934234D00132AE
S21400AC50934234D0013293427FF46BAF4FF04008FA
S21400AC6067E706F4E043B3F5005F7FF462AFC6F330
S21400AC7002264FF0010808FA06F85AE74FF01008C7
S21400AC8057E74FF0140854E74FF0140851E74FF019
S21400AC901C084EE74FF020084BE74FF0300848E717
S21400ACA04FF0400845E74FF01C0842E74FF02008F9
S21400ACB03FE74FF01C083CE74FF0200839E74FF01D
S21400ACC0300836E7404514BF00200120F3E624F0A4
S21400ACD01F6323F470236BB10020ECE6000300062C
S21400ACE00009000600040006FF0000020000C07F06
S21400ACF00300000205F0FE43B3F1106F01D0002000
S21400AD00D9E60748284040F01060A04214BF002053
S21400AD100120D0E6012070470020CCE60120CAE6DC
S21400AD200000FFF6F8B5002A60D006460D46144629
S21400AD3022F0FF03334A93421FD0A2F5807293425B
S21400AD401BD024F4FF7222F00102B2F1062F14D0B9
S21400AD502D498B4211D0A1F5A0618A420DD004F096
S21400AD60FE43B3F1407F3BD0B3F1A06F3BD0274BFF
S21400AD709C4214BF0023012320E0224A934212D0B3
S21400AD80A2F5807293420ED024F4FF7222F00102E4
S21400AD90B2F1062F07D01C498B4204D01C4B9A42B6
S21400ADA001D000230AE014F0FF0306D043F000733E
S21400ADB0164A934212D0002300E00023CBB9224665
S21400ADC071682846FFF72EFE0746A8B92246B168E6
S21400ADD02846FFF727FE88B13846F8BD0123EDE781
S21400ADE0C4F3C033EAE7C4F3C033E7E76FF086077F
S21400ADF0F2E76FF08607EFE70027EDE76FF08407CE
S21400AE00EAE700BF0003000600090006FF00000294
S21400AE1000040006036823F47F4323F003030BB902
S21400AE20002070476FF0860070470B8813B10288C9
S21400AE30934208D10B6A4BB94B8853B14288934270
S21400AE4009D1002070476FF0860070476FF08600CB
S21400AE507047002070476FF08600704770B50D8809
S21400AE6000F0FE43B3F1407F40F0CE800446164625
S21400AE702946FFF7B1FDB0B914F47C1F14D0C4F313
S21400AE8005433370032B40F2C2801A46634B2340BF
S21400AE90B3F1607F65D0B3F1707F00F0908000253D
S21400AEA0AA4200F2B78070BD5C4B2340B3F1607FCE
S21400AEB004D0B3F1707F2FD00023E2E7E3B243F073
S21400AEC00073574A934234D00132934233D0013252
S21400AED0934232D00332934231D00132934230D083
S21400AEE0013293422FD0013293422ED00132934248
S21400AEF02DD0013293422CD0033293422BD0013214
S21400AF0093422AD00132934229D00132934201D093
S21400AF100023B6E74023B4E705F4E043B3F5005F4B
S21400AF2001D00023ADE7C5F3022201239340DBB234
S21400AF30A7E71023A5E71423A3E71423A1E71C2300
S21400AF409FE720239DE730239BE7402399E71C23B8
S21400AF5097E7202395E71C2393E7202391E73023E8
S21400AF608FE7E4B244F000742D4B9C4234D001339A
S21400AF709C4233D001339C4232D003339C4231D0C2
S21400AF8001339C4230D001339C422FD001339C4287
S21400AF902ED001339C422DD001339C422CD003335B
S21400AFA09C422BD001339C422AD001339C4229D0AC
S21400AFB001339C4201D0002572E7402570E705F476
S21400AFC0E043B3F5005F01D0002569E7C5F302252D
S21400AFD0012303FA05F563E7102561E714255FE70B
S21400AFE014255DE71C255BE7202559E7302557E744
S21400AFF0402555E71C2553E7202551E71C254FE73C
S21400B00020254DE730254BE76FF086004BE76FF0C5
S21400B010850048E76FF0860045E700BF0000C07F68
S21400B020030000020020704738B504460D46FFF7BF
S21400B0309FFC20B129462046FFF7A8FC38BD24F027
S21400B040FF04B4F5E24FF9D06FF08500F6E79942B9
S21400B05011D870B50C4616461D460A4601463046BF
S21400B06024F02AFF2A1B0021301924F04CFF049BF1
S21400B0701C60002070BD6FF08900704708B508227C
S21400B080002124F040FF08BD08B50822002124F066
S21400B0903AFF08BD2DE9F041884614461F4601F0E8
S21400B0A0A3F80646F8B9D8F80050298801F4E0431A
S21400B0B0B3F5804F0CD0EB6834EA03030BD197B19D
S21400B0C03A4605F10C00FFF72DFE064658B104E09F
S21400B0D024F00104EFE76FF084060023C8F8003080
S21400B0E0284601F0C5F83046BDE8F08170B5044644
S21400B0F045688668284601F0C7F8034608B1184632
S21400B10070BD284601F0C2F803460028F7D115F0B6
S21400B110FF0F13D1DEB904F10C00FFF77BFE0346E8
S21400B1200028ECD162884FF6F8739A4212D8238B27
S21400B13033F00103E3D06FF08603E0E70021A06858
S21400B14000F085FF0028E6D16FF08603D7E76FF0A2
S21400B1508603D4E76FF08503D1E770B582B00C465E
S21400B1601546194600230B602046FFF7BFFF8646AC
S21400B17010B1704602B070BD294601A800F0E4FF89
S21400B18086460028F5D12E683546A446BCE80F0052
S21400B1900FC59CE8070085E8070033790BB9019BCB
S21400B1A0B360338B23F001033383E2E708B54368CB
S21400B1B01B0A27D1438863B3028802F4E040B0F547
S21400B1C0805F22D0B0F5005F1FD047F201008242B8
S21400B1D021D044F20100824225D047F2020082428A
S21400B1E024D044F20200824226D022F0FF02B2F5BA
S21400B1F0E24F27D0B2F5824F27D10733DB105B0032
S21400B200013304E000F091FD04E00733DB10FBB1EE
S21400B2100B60002008BD5B080133DB10053303EB31
S21400B220C3030E33F3E7DB081033F0E7DB08053320
S21400B23003EB43034B33EAE7DB08053303EB430337
S21400B2403B33E4E70733DB10E1E76FF08500E1E727
S21400B2506FF08500DEE738B50446154603792BB156
S21400B260426A016A01F099F9034640B9A3682B6067
S21400B270204600F0FDFF034608B100222A6018466B
S21400B28038BD2DE9F04393B005460E4690469946E4
S21400B2901B9F1D9C00218DF84310242207A824F034
S21400B2A032FEDCB14FF48052334611A92846FFF730
S21400B2B0F1FE0446A8B124B11C9B1F6000238DF844
S21400B2C043309DF84300B84235D3119800F0D0FFC4
S21400B2D004B90446204613B0BDE8F0834FF400528C
S21400B2E0E2E707AC119D0FCD0FC495E8070084E890
S21400B2F007000DF1430207A93046FFF7AFFD0446ED
S21400B3000028D8D19DF84330BB4202D96FF089049B
S21400B310D2E7119A116A526A1C98049003931A9BFA
S21400B3200293CDF80490CDF80080334607A800F0CD
S21400B330E6FD0446BFE73A1A21211A9B184424F07A
S21400B340E2FDC2E710B584B000F0FE44B4F1106F21
S21400B3500ED120F01F6424F4702464B9089C029473
S21400B360079C0194069C009400F028FE04B010BDD3
S21400B3706FF08500FAE76FF08500F7E738B5036AE7
S21400B3804BB904460D460120FFF7C9FA206228B1E2
S21400B3906562002038BD6FF08A00FBE76FF08C0016
S21400B3A0F8E7F8B505460E4614461146FFF7E6FFE1
S21400B3B0074608B13846F8BD22463146286A24F0CA
S21400B3C07BFDF7E72DE9F8430A9DB0F800806AB3E5
S21400B3D00F461E4691464046FFF7CAFA48B32B680A
S21400B3E013B94FEAC9032B60B9F1005F24D22C6869
S21400B3F04FF6F8739C4222D821464046FFF7C6FA1D
S21400B400804680B90734E208089BB3EBD40F19D303
S21400B4104A451AD13946304624F04EFD2B6807338C
S21400B420DB08099A13604046BDE8F8836FF085088C
S21400B430F9E76FF08508F6E76FF08508F3E76FF039
S21400B4408508F0E76FF08908EDE76FF08608EAE711
S21400B45010B50446006A10B1616AFFF77DFA206AEB
S21400B460FFF76DFA00202062606210BD38B5044612
S21400B470FFF7EEFF0546E369012B06D128220021DF
S21400B480204624F040FD284638BD6FF09605F5E7C7
S21400B49018B108B5FFF7EAFF08BD704710B582B0CF
S21400B4A018B90024204602B010BD01A900F09CFE89
S21400B4B004460028F6D10198C369012B0AD80379FF
S21400B4C0FF2B11D05BB90198FFF7D0FF0028E9D019
S21400B4D00446E7E700F0CCFE6FF08304E2E78068FE
S21400B4E000F05FFF0446EEE76FF08404EBE730B54C
S21400B4F083B005460C46084600F0E4FB00231A46D7
S21400B50001A92846FFF7C6FD08B103B030BDA44622
S21400B510DDF804E0BEE80F00ACE80F009EE8070088
S21400B5208CE80700238B03F001032383019800F0C7
S21400B5309FFEEAE7F0B583B00D4617461E46048820
S21400B5402046FFF715FA50B924F4405244F201039E
S21400B5509A4204D004F44F44B4F5824F09D1099BB3
S21400B5600093089B324639462846FFF770FD03B025
S21400B570F0BD6FF08500FAE7F0B58DB072B30E46F9
S21400B5801C4617460023236001220BA9FFF782FD05
S21400B590054610B128460DB0F0BD2422002102A8B1
S21400B5A024F0B1FC0B9D0DF1080CAE46BEE80F0072
S21400B5B0ACE80F009EE807008CE80700296A6A6A74
S21400B5C001940097334602A800F050FC05460B98FD
S21400B5D000F04EFE002DDDD10546DBE76FF0890555
S21400B5E0D8E710B582B00C4611461A46B0F800C02F
S21400B5F02CF4405E44F201039E4504D00CF44F4305
S21400B600B3F5824F0FD10CF4E04CBCF5804F03D05D
S21400B6106FF0850002B010BD059B0093049B20468A
S21400B620FFF715FDF6E76FF08500F3E72DE9F0412B
S21400B6308CB0002A36D00E461C46174600221A60EA
S21400B64013460BA9FFF726FD054668B9DDF82C80E2
S21400B650B8F8003013F4804F0AD16FF086050B98C7
S21400B66000F006FE05B9054628460CB0BDE8F08198
S21400B6702422002102A824F046FC02ADC446BCE801
S21400B6800F000FC59CE8070085E80700D8F82010D3
S21400B690D8F8242001940097334602A800F0F6FB61
S21400B6A00546DCE76FF08905DEE72DE9F04188B056
S21400B6B01F4600230793069304923B60002A52D04D
S21400B6C005468846144606AB07AA01460020FFF743
S21400B6D044FD064640B11EB106990798FFF7D8FE0E
S21400B6E0304608B0BDE8F08104A92846FFF75EFDA5
S21400B6F006460028EFD10798036A3BB3079A53889B
S21400B7000593136A05A9029102F124010191526A78
S21400B710009222464146284600F082FB0646002854
S21400B720D9D1079A5388C3B9BDF814305380079C03
S21400B73029462046FFF779FB06460028CBD13A4635
S21400B74006992046FFF787FD0646C4E70499FFF7EB
S21400B75015FE06460028D1D0BDE7059A9342E6D0EE
S21400B7606FF08606B8E76FF08606B9E703680BB990
S21400B7700020704710B5044600F015FC0023237126
S21400B780627963F300026271236010BDF0B58DB07C
S21400B79004460D4616461F4600210B91242202A899
S21400B7A024F0B1FB2368002B3AD15FB14FF48052EE
S21400B7B033460BA92846FFF76DFC054628B1002D39
S21400B7C033D02FE04FF40052F2E702ADDDF82CC084
S21400B7D0BCE80F000FC59CE8070085E80700221D9F
S21400B7E002A93046FFF73AFB05460028E7D1637901
S21400B7F067F3000363714FB10B9B1A6A5B6A00968E
S21400B80002A9204600F091FB0546D8E70B9B1A6A72
S21400B8105B6A009602A9204600F09BFB0546CEE731
S21400B8206FF088052046FFF7A1FF0B9800F020FD7B
S21400B83005B9054628460DB0F0BD08B50123FFF74B
S21400B840A5FF08BD38B503686BB1044612B90025DC
S21400B850284638BD00F091FB05460028F8D0204663
S21400B860FFF784FFF4E76FF08805F1E72DE9F04174
S21400B8700446884615461E46036883B1437913F08E
S21400B880010F1CD00279EAB1AA4202D96FF08907EB
S21400B89007E0334600F07CFB074628B101E06FF076
S21400B8A088073560002323712079A8420DD32046EF
S21400B8B0FFF75CFF07B907463846BDE8F0816FF032
S21400B8C08807EEE76FF08807EBE72A1A2121404445
