S0140000736F635F746578745F424732322E7333372B
S214006000C00A002085700000C1700000C17000004A
S2140060103FBB0000C1700000C1700000C1700000EE
S214006020C1700000C1700000C1700000C1700000A7
S214006030C17000003C7B030049690000C17000008D
S214006040C1700000C1700000C1700000C170000087
S214006050C1700000C1700000C1700000C170000077
S214006060C1700000C1700000C1700000C170000067
S214006070ADD70000C1700000C17000006D6C00005C
S214006080596C0000C1700000C1700000C1700000B3
S214006090C1700000C1700000C1700000C170000037
S2140060A0C1700000C1700000C1700000C170000027
S2140060B0C1700000B5420300C1700000754C0300BB
S2140060C02D4C0300294C030081440300714C03004F
S2140060D0314C0300494C0300354C0300D54C0300FB
S2140060E08927030051290300B54C0300C170000046
S2140060F071A60000C1700000C1700000C1700000F1
S214006100C1700000C1700000C1700000C1700000C6
S214006110C1700000C1700000C1700000C1700000B6
S214006120C1700000C1700000C1700000C1700000A6
S214006130C1700000C1700000C1700000C170000096
S21400614010B5054C237833B9044B13B1044800E06E
S21400615000BF0123237010BD301000200000000097
S21400616040C5030008B5034B1BB10349034800E0D4
S21400617000BF08BD000000003410002040C503002A
S214006180A3F5803A704700BF174B002B08BF134B90
S2140061909D46FFF7F5FF00218B460F461348144A2D
S2140061A0121A2FF060F80E4B002B00D098470D4BBC
S2140061B0002B00D098470020002104000D000D4859
S2140061C0002802D00C4800E000BF2EF0E1FF2000BF
S2140061D0290000F05DFB2EF0C7FF00BF000008009E
S2140061E00000000000000000C00A00203010002060
S2140061F050290020000000000000000082B001903E
S2140062000091019B1A68009B22FA03F303F0010336
S214006210184602B0704700B583B0034600918DF86B
S21400622007309DF80730002B0AD09DF80730012B69
S21400623006D09DF80730022B02D09DF80730032BBE
S2140062409DF8072013465B0013441B01143303F12B
S214006250804303F5703300991846FFF7CFFF0346D7
S214006260184603B05DF804FB08B5114B41F28432C2
S2140062701A8000F0D3FE00F0D3FE0E4B1B680C4ACB
S21400628012880D49184604F039FC0023012201212A
S214006290012003F0E5F901210120FFF7BCFF0346CA
S2140062A0002B02D1054B01221A7000BF08BD00BFAB
S2140062B08610002020110020AC7603008A100020F3
S2140062C000B583B001210120FFF7A5FF0346002B90
S2140062D002D1284B01221A70274B1B78012B36D18E
S2140062E0244B1B78002B32D0244B1B881BB21A463B
S2140062F0234B1B889A422ADC224B1B78053B194607
S2140063001E4B1B881BB21A461F4B13440A46152108
S214006310012022F01BF90190184B1B881BB21A466D
S214006320174B1B889A4211DA164B1B789AB2134BFE
S2140063301B881BB29BB213449BB2053B9BB21AB29E
S2140063400E4B1A80019B002BD6D000E000BF0B4BF3
S2140063501B881BB21A460A4B1B889A4205DD054B62
S21400636000221A70054B00221A8000BF03B05DF8A9
S21400637004FB00BF8A1000204C100020881000206C
S21400638086100020851000202863030000B58DB01D
S2140063900390039B1B6823F47F4323F007039A4A6A
S2140063A0934200F08D81984A934200F23F82974ACA
S2140063B0934200F0F281954A934200F23782944A63
S2140063C0934200F0D881924A934200F22F82914A7B
S2140063D0934204D0904A934200F0D58126E20DF114
S2140063E0230209AB1146184622F0C6F80B900B9B09
S2140063F0002B31D0894B1B688949184604F07EFB78
S214006400864B1B688749184604F078FB00BF00F0EF
S21400641005FE00F005FE814B1868834B009340F2A2
S214006420B313824A824904F069FB7C4B18680B9BC5
S214006430804A814904F062FB0B9800F0C7FD774B59
S2140064401B687E49184604F059FB744B1B68744958
S214006450184604F053FBFEE79DF829308DF81830F7
S2140064609DF828308DF819309DF827308DF81A30B1
S214006470FF238DF81B30FE238DF81C309DF8263048
S2140064808DF81D309DF825308DF81E309DF824308F
S2140064908DF81F3006AB08220021122022F040F8AB
S2140064A00B900B9B002B31D05C4B1B685C4918464D
S2140064B004F024FB594B1B685A49184604F01EFB8F
S2140064C000BF00F0ABFD00F0ABFD544B1868564B18
S2140064D0009340F2C313554A554904F00FFB4F4B47
S2140064E018680B9B534A544904F008FB0B9800F0BD
S2140064F06DFD4A4B1B685149184604F0FFFA474B9E
S2140065001B684749184604F0F9FAFEE74C4821F0A4
S21400651099FF0B900B9B002B31D0404B1B684049DA
S214006520184604F0EBFA3D4B1B683E49184604F04B
S214006530E5FA00BF00F072FD00F072FD374B1868F8
S214006540394B009340F2C713384A394904F0D6FA5B
S214006550324B18680B9B374A374904F0CFFA0B9832
S21400656000F034FD2D4B1B683449184604F0C6FA7B
S2140065702A4B1B682A49184604F0C0FAFEE70DF1BC
S21400658016031946FA2021F0ADFF2D4B187800238C
S21400659000930023A022A02121F06CFF0B900B9B00
S2140065A0002B4FD01D4B1B681D49184604F0A6FA59
S2140065B01A4B1B681B49184604F0A0FA00BF00F0EF
S2140065C02DFD00F02DFD154B1868174B009340F27B
S2140065D0D113164A164904F091FA104B18680B9B13
S2140065E0144A154904F08AFA0B9800F0EFFC0B4B9E
S2140065F01B681249184604F081FA084B1B680849C4
S214006600184604F07BFAFEE7A0000A03A000060185
S214006610A0000900A0000100A00006002011002034
S214006620D0760300D476030094770300DC7603006C
S214006630E8760300F4760300F8760300107703008C
S214006640C00A00207F4B1B7802220221184621F048
S21400665033FF0B900B9B002B00F0EA807A4B1B68F5
S2140066607A49184604F04AFA774B1B687849184668
S21400667004F044FA00BF00F0D1FC00F0D1FC724BED
S2140066801868744B009340F2D713734A734904F0AA
S21400669035FA6D4B18680B9B714A724904F02EFA56
S2140066A00B9800F093FC684B1B686F49184604F083
S2140066B025FA654B1B686549184604F01FFAFEE785
S2140066C0039BB3F805309BB2152B40F0B380039BB9
S2140066D0DB79012B1ED1039B1B899BB2DBB2012BFE
S2140066E00AD1624B01221A70039B1A79604B1A700A
S2140066F0604B01221A709DE0039B1B899BB2DBB2A4
S214006700002B40F09780594B00221A705A4800F030
S214006710A1FB8FE04C4B1B684C49184604F0EEF981
S214006720494B1B684A49184604F0E8F900BF00F0D8
S21400673075FC00F075FC444B1868464B009340F21D
S214006740FB13454A454904F0D9F93F4B1B684B4AB1
S2140067504B49184604F0D2F93B4B1868039BDB798B
S2140067601A46484904F0CAF9374B1B683749184699
S21400677004F0C4F9FEE7039BB3F805309BB2DAB227
S214006780414B1A7059E0394B00221A70394B0022DF
S2140067901A703E4B00221A804FE0344B00221A70CB
S2140067A03A4B00221A80334B00221A70324800F00F
S2140067B051FB244B1B7802220221184621F07CFE56
S2140067C00B900B9B002B37D01F4B1B681F4918469E
S2140067D004F094F91C4B1B681D49184604F08EF90A
S2140067E000BF00F01BFC00F01BFC174B1868194B91
S2140067F000934FF40873184A184904F07FF9124BB7
S21400680018680B9B164A174904F078F90B9800F0A5
S214006810DDFB0D4B1B681449184604F06FF90A4B54
S2140068201B680A49184604F069F9FEE700BF04E051
S21400683000BF02E000BF00E000BF00BF0DB05DF883
S21400684004FB00BFC00A002020110020D076030001
S214006850D476030094770300DC760300E876030022
S214006860F4760300F8760300107703004C1000203F
S214006870841000208A100020501000202477030087
S2140068802C77030044770300851000208810002032
S21400689008B506F0D4FFFFF7E7FC06F0DDFFFFF7CC
S2140068A00FFD05F091F9F8E782B003468DF8073042
S2140068B09DF90730002B0CDB9DF8073003F01F0214
S2140068C005499DF907305B09012000FA02F241F8FC
S2140068D0232000BF02B0704700E100E082B003460C
S2140068E08DF807309DF90730002B0DDB9DF807303B
S2140068F003F01F0206499DF907305B09012000FAE4
S21400690002F2603341F8232000BF02B0704700BF98
S21400691000E100E008B50EF0BDF80FF090FD15F0B0
S214006920E5F911F028FF15F061FF00BF08BD00B5BE
S21400693083B0019019F0DAFC20F0DBFE1AF0E0F8E4
S21400694000BF03B05DF804FB08B50DF02BFF00BFD9
S21400695008BD000000B583B06FF00100FFF7BEFF72
S2140069606FF00100FFF7A0FF0648FFF7E0FF0548BD
S2140069700DF0C6FC019004480DF0F2FC00BF03B019
S2140069805DF804FB9C7A0300CC7A030000B583B064
S21400699001900198FFF7FAFC00BF03B05DF804FB16
S2140069A082B001900123184602B0704700B5C5B00A
S2140069B00DF010FE0DF039FE4390439B002B15D0D2
S2140069C04398FFF7EDFF034683F00103DBB2002B8D
S2140069D00CD101AB184621F02EFD4290429B002BB5
S2140069E006D101AB1846FFF7D1FF02E000BF00E07A
S2140069F000BF45B05DF804FB08B50321802001F018
S214006A00D1FA03214FF4806001F0CCFA03214FF451
S214006A10906001F0C7FA09214FF4C06001F0C2FA95
S214006A2009214FF4F06001F0BDFA09213E2001F083
S214006A30B9FA09212D2001F0B5FA0023184608BD41
S214006A40024B1B681B0CDBB2184670470080E00F39
S214006A5000B583B0FFF7F4FF0346012B1ED1114BA0
S214006A605B6E03F48023002B0CBF012300238DF8FC
S214006A7007300C4B03F580531A464FF480235366B9
S214006A80094B04221A609DF80730002B06D0054BF0
S214006A9003F500531A464FF48023536600BF03B035
S214006AA05DF804FB008000402020014008B5FFF799
S214006AB0CFFF03F03DFC03F07BFB03F055FC03F037
S214006AC0A5FB03F005FCFFF797FF03F085FB00F03E
S214006AD0CBFB05F039F800BF08BD00BF704708B50E
S214006AE005F044FF03F046FC04F088F80BF062FB68
S214006AF004F064FF00F01EF800BF08BD08B503F000
S214006B0025FB03F02FFBFFF725FF00BF08BD08B5E8
S214006B1000F088FA00BF08BD00BF704708B500F057
S214006B20C7F900BF08BD08B5FFF740FF00BF08BDA6
S214006B3000BF704708B500F081F800BF08BD82B0FE
S214006B4001900091019B1A68009B22FA03F303F060
S214006B500103184602B0704700B583B00190019B50
S214006B601B6A019A1268104698470346184603B0F7
S214006B705DF804FB00B583B0034600918DF807303E
S214006B809DF80730002B0AD09DF80730012B06D061
S214006B909DF80730022B02D09DF80730032B9DF896
S214006BA0072013465B0013441B01103303F1804398
S214006BB003F5703300991846FFF7C1FF03461846E1
S214006BC003B05DF804FB000030B593B0164B0AAC7A
S214006BD01D460FCD0FC495E8070084E807004FF464
S214006BE0E1330C930023ADF836304FF48053ADF804
S214006BF0383003238DF841300C4B06AC0FCB84E8BD
S214006C000F000B4B02AC0FCB84E80F0006AB0AAAB2
S214006C1002A908480090084804F0EAFB1190119B6E
S214006C20184613B030BD00BFF47A0300107B030093
S214006C30207B0300B81000209410002008B50449FB
S214006C40044805F0B5F9FFF7BFFF00BF08BD00BF59
S214006C50140B00208C10002008B5034B1B68184648
S214006C6004F008FD00BF08BD9410002008B5034BD3
S214006C701B68184604F0FEFC00BF08BD94100020F8
S214006C8008B50348FFF768FF0346184608BD00BF6F
S214006C909410002000B585B003460A468DF80730EC
S214006CA013468DF806309DF80730022B03D09DF86A
S214006CB00730032B13D19DF80630012B03D09DF827
S214006CC00630002B0BD105210020FFF753FF039061
S214006CD0039B04220521002002F0C2FC1AE09DF866
S214006CE00630022B03D09DF80630032B12D19DF8F8
S214006CF00730012B03D09DF80730002B0AD1052161
S214006D000020FFF737FF0390039B00220521002099
S214006D1002F0A6FC00BF05B05DF804FB0123184690
S214006D20704701231846704700B583B001238DF8DD
S214006D3007300DF0BBFC034683F00103DBB2002BEB
S214006D4002D000238DF8073000F002F9034683F0E6
S214006D500103DBB2002B02D000238DF80730FFF7CB
S214006D60DDFF034683F00103DBB2002B02D00023D5
S214006D708DF807309DF80730184603B05DF804FB21
S214006D8000B583B000238DF8073000238DF8063059
S214006D9005F046F903468DF807300DF095FC0346DE
S214006DA08DF805309DF80530042B03D101238DF8AE
S214006DB0063006E09DF80530022B02D101238DF83F
S214006DC00730FFF75DFF03468DF805309DF8053068
S214006DD0042B03D101238DF8063006E09DF805301C
S214006DE0022B02D101238DF8073000F09FF80346EE
S214006DF08DF805309DF80530042B03D101238DF85E
S214006E00063006E09DF80530022B02D101238DF8EE
S214006E100730FFF786FF03468DF805309DF80530EE
S214006E20042B03D101238DF8063006E09DF80530CB
S214006E30022B02D101238DF807309DF80630002B77
S214006E4002D000238DF807309DF80730184603B0AF
S214006E505DF804FB00B585B00190019B002B01D1C5
S214006E6022231EE0019B184605F01EFE019800F046
S214006E7081F803468DF80F309DF80F30002B0FD0A9
S214006E80019B93F82830002B0AD002F0A9F8029054
S214006E90064B1B68013B054A1360029802F0B0F8E7
S214006EA00023184605B05DF804FB00BF181100204B
S214006EB000B583B01B4B1B68002B2FD01A4B1B68EA
S214006EC0019328E0019B93F82830002B20D002F095
S214006ED087F80090019B002283F82820114B1B683E
S214006EE0013B104A1360009802F08AF8019B93F861
S214006EF0293083F00103DBB2002B02D0019800F0AA
S214006F0039F8019BDB69019A126A11460198984785
S214006F10019B5B6A0193019B002BD3D100BF03B09A
S214006F205DF804FB181100201C11002082B001231C
S214006F308DF80730054B1B68002B02D004238DF814
S214006F4007309DF80730184602B070471811002029
S214006F5082B001238DF80730054B1B68002B02D04A
S214006F6000238DF807309DF80730184602B07047AA
S214006F701811002084B0019000230393124B1B6865
S214006F80029304E0029B0393029B5B6A0293029BBC
S214006F90002B03D0029A019B9A42F3D1029A019BDE
S214006FA09A4201D000230CE0039B002B04D0019BE7
S214006FB05A6A039B5A6203E0019B5B6A024A1360AB
S214006FC00123184604B070471C11002000B585B098
S214006FD001900F4B1B680F49184603F08FFD03F016
S214006FE031FD03900A4B1B68184603F017FD019805
S214006FF000F036F8039803F011FD054B1B680649B0
S214007000184603F07BFD00BF05B05DF804FB00BF2B
S21400701020110020307B0300347B030000BF704744
S21400702000BF704708B5094B01221A70084B0022B2
S2140070301A70084B04221A70074B1F221A7003F0AE
S21400704001FD0346054A136000BF08BD1C0B002067
S214007050241100201D0B00201E0B002020110020F4
S21400706000B583B00190054B1B680549184603F030
S21400707045FD00BF03B05DF804FB00BF20110020F3
S214007080387B030000B583B000F01CF8094B019371
S214007090094B009307E0019A131D0193009B191DED
S2140070A0009112681A60009B044A9342F3D3FFF7DC
S2140070B06BF800BF48C50300C00A0020301000204F
S2140070C0FEE70000064B074A9A60054BD3F8883067
S2140070D0034A43F47003C2F8883000BF704700BF0D
S2140070E000ED00E000600000014B1B68184670478A
S2140070F0280B002000B583B0002301930E4B1B6FB6
S21400710003F00703032B09D0032B0ED8012B09D05D
S214007110022B0AD1FFF7E8FF019007E0074B1B6838
S214007120019303E0064B019300E0FEE7019B18463F
S21400713003B05DF804FB00BF00800040200B002079
S214007140002D310100B583B0FFF7D4FF01900A4B44
S2140071501B6F1B0B03F00F030093009B0133019A78
S214007160B2FBF3F30193054A019B1360019B18469B
S21400717003B05DF804FB00BF008000402C0B00202D
S214007180014B1846704700BF00B4C404014B1B688F
S21400719018467047200B002000B583B00190074AC0
S2140071A0019B1360064B1B6F03F00703032B01D1F3
S2140071B0FFF7C8FF00BF03B05DF804FB200B0020FC
S2140071C0008000400023184670470000014B184618
S2140071D0704700BF002D31014FF40043184670473A
S2140071E04FF47A7318467047014B1B681846704771
S2140071F0240B002082B00190019B00221A6000BF81
S21400720002B0704782B001900091009B002B02D024
S214007210019B002B00BF019B1A68009B1A60019B14
S214007220009A1A6000BF02B07047000084B0019058
S2140072300B4B1A68019B13440A4A934202D94FF03B
S214007240FF3309E0064B1B680393054B1A68019B46
S2140072501344034A1360039B184604B0704700BFEC
S214007260300B00200080002008B5054B1B68054A3F
S21400727012681146184626F015F90346184608BD4A
S214007280340B0020540B002082B0074B9B68DBB207
S2140072900193019B0A3303F01F03012202FA03F352
S2140072A0184602B0704700BF0080E00F84B0034667
S2140072B08DF807309DF90730B3F1FF3F04D0002B5F
S2140072C005D10023039305E0044B039302E0044B2F
S2140072D0039300BF039B184604B0704721E000F0FC
S2140072E024E000F086B001900091019B0493009B7F
S2140072F09B080393002305930CE0049B1B68B3F1E3
S214007300FF3F01D000230AE0049B04330493059B4F
S21400731001330593059A039B9A42EED30123184640
S21400732006B0704700B583B00190009102F018FADD
S2140073300023184603B05DF804FB08B502F028FAEF
S21400734000BF08BD00B585B0019003AB184602F03B
S21400735007FB9DF80E309AB2019B1A80019B012212
S214007360DA70019B00229A70FFF78EFF0246019B9F
S2140073705A600023184605B05DF804FB82B0034649
S2140073808DF8073000BF02B0704700B587B0039095
S21400739002910192039B0593029B0493059B03F0C5
S2140073A00303002B14D1049B03F00303002B0FD11F
S2140073B00AE0059A131D0593049B191D0491126893
S2140073C01A60019B013B0193019B002BF1D106E063
S2140073D0019B9B001A46039902982DF01DFF00237F
S2140073E0184607B05DF804FB00B58BB00390029119
S2140073F00192029B0893039B0793019B9B000693B5
S214007400069A089907982EF07FFF03468DF81730E6
S2140074109DF917301846FFF749FF0990099B002B86
S21400742009D1069A089907982DF0E6FE0346002B28
S21400743001D0034B0993099B18460BB05DF804FB7B
S21400744010E000F000B585B0019001982EF054FFD2
S21400745003468DF80B309DF90B301846FFF726FFD4
S2140074600390039B002B0ED1FFF70EFF0346194631
S2140074700198FFF737FF034683F00103DBB2002BCA
S21400748001D0034B0393039B184605B05DF804FB3D
S2140074900EE000F008B501F08DFD0346014A1360CA
S2140074A000BF08BDB817002008B5034B1B68184678
S2140074B001F08CFD00BF08BDB817002000B583B0F2
S2140074C0019000910198019A009B1344013B009A99
S2140074D0194604F0DFFA00BF03B05DF804FB08B5F8
S2140074E0FFF730FE0346184608BD86B003900291AB
S2140074F00192019B002B04D0039B03F58053059358
S21400750003E0039B03F500530593059B0121029AB4
S21400751001FA02F21A6000BF06B0704782B001900E
S2140075200091019B1A68009B22FA03F303F0010303
S214007530184602B07047000008B500BF0421044892
S214007540FFF7ECFF0346002BF8D100BF00BF08BDD5
S2140075508440004008B5FFF7EFFF4FF04023D3F814
S21400756084309B0903F00303DBB2184608BD000015
S21400757084B00346ADF8063000230393BDF806300A
S214007580B3F5607F1AD0B3F5607F2EDCB3F5207FAD
S21400759024D0B3F5207F28DCB3F5007F16D0B3F5F2
S2140075A0007F22DC002B02D0B3F5C07F1DD1124B2A
S2140075B01B6F1B0B03F00F03039317E00E4BD3F860
S2140075C080301B0903F0030303930FE00A4BD3F844
S2140075D090301B0E03F01F03039307E0064B1B6F50
S2140075E09B0A03F00103039300E000BF039B0133F3
S2140075F0184604B0704700BF0080004010B582B047
S21400760003460091ADF80630BDF80630B3F5607F4E
S21400761043D0B3F5607F7ADCB3F5207F66D0B3F550
S214007620207F74DCB3F5007F4DD0B3F5007F6EDCB1
S214007630002B02D0B3F5C07F69D1009B012B0AD086
S214007640009B022B07D0009B042B04D0009B082B2A
S21400765001D0009B102B00BF01F024FC01F0C0FB02
S21400766001F0F6F92C4B1B6F23F47042009B013B94
S2140076701B03294913430B67FFF731FF0446FFF747
S21400768069FF0346C3F102031946204601F040F99C
S21400769001F0AEFB01F0E8F93AE0009B012B04D0C4
S2140076A0009B022B01D0009B042B00BF1A4BD3F883
S2140076B0803023F03002009B013B1B011649134328
S2140076C0C1F8803024E0009B002B02D0009B202BCA
S2140076D000BF114BD3F8903023F0F852009B013BCB
S2140076E01B060D491343C1F8903011E0009B012B97
S2140076F001D0009B022B00BF074B1B6F23F4806258
S214007700009B013B9B02044913430B6700E000BF4C
S21400771000BF02B010BD00BF0080004000B585B0BD
S21400772003460A46ADF8063013468DF805300023AA
S2140077300393BDF806305B099BB2002B13D0BDF84F
S21400774006305B099BB2012B02D10F4B03930AE074
S214007750BDF806305B099BB2022B02D10B4B03939C
S21400776001E00B4B0393BDF8063003F01F030293B2
S2140077709DF805301A4602990398FFF7B6FE00BF3B
S21400778005B05DF804FB00BF6480004068800040E0
S2140077906082004010B584B00346ADF80630002382
S2140077A0039300230293BDF80630B3F5F06F00F0A4
S2140077B0A982B3F5F06F00F3AB82B3F5E06F00F08B
S2140077C09B82B3F5E06F00F3A382B3F5D06F00F0B1
S2140077D08D82B3F5D06F00F39B82B3F5C06F00F0D7
S2140077E07F82B3F5C06F00F39382B3F5B06F00F0FD
S2140077F06B82B3F5B06F00F38B82B3F5A06F00F029
S2140078005D82B3F5A06F00F38382B3F5906F00F04E
S2140078104F82B3F5906F00F37B82B3F5806F00F074
S2140078204182B3F5806F00F37382B3F5607F00F09A
S2140078302A82B3F5607F00F36B82B3F5407F00F0D9
S2140078401582B3F5407F00F36382B3F5207F00F026
S2140078500182B3F5207F00F35B82B3F5007F00F072
S214007860ED81B3F5007F00F35382B3F5C07F00F0DF
S214007870E081B3F5C07F00F34B82002B00F0D98186
S214007880002BC0F24582B3F5807F00F34182202BA7
S214007890C0F23E82203BE02B00F23A8201A252F870
S2140078A023F000BF337C0000557C0000337C0000D2
S2140078B0557C0000A57C0000A57C0000A57C00008F
S2140078C0A57C0000557C0000557C0000C97C0000AB
S2140078D06D7C0000E17C0000ED7C00006D7C00000B
S2140078E0557C0000557C0000557C0000117D000092
S2140078F0117D0000117D0000117D0000117D00004B
S214007900117D0000BD7C0000B17C0000557C0000AD
S214007910557C0000557C0000057D0000F97C0000C9
S214007920557C0000117D0000117D0000117D0000D7
S214007930117D0000117D0000117D0000117D00000A
S214007940117D0000117D0000117D0000117D0000FA
S214007950117D0000117D0000337C0000117D0000C9
S214007960337C0000337C0000337C0000A57C0000E4
S214007970117D0000117D0000117D0000117D0000CA
S214007980117D0000117D0000117D0000117D0000BA
S214007990117D0000117D0000117D0000117D0000AA
S2140079A0117D0000337C0000337C0000117D000058
S2140079B0117D0000117D0000117D0000117D00008A
S2140079C0117D0000117D0000117D0000117D00007A
S2140079D0117D0000117D0000117D0000117D00006A
S2140079E0117D0000117D0000117D0000117D00005A
S2140079F0117D0000117D0000117D0000117D00004A
S214007A00117D0000117D0000117D0000117D000039
S214007A10117D0000117D0000117D0000117D000029
S214007A20117D0000297C0000117D0000117D000002
S214007A30117D0000117D0000117D0000117D000009
S214007A40117D0000117D0000117D0000117D0000F9
S214007A50117D0000117D0000117D0000117D0000E9
S214007A60117D0000117D0000117D0000117D0000D9
S214007A70117D0000117D0000117D0000117D0000C9
S214007A80117D0000117D0000117D0000117D0000B9
S214007A90117D0000117D0000117D0000117D0000A9
S214007AA0117D0000117D0000117D0000117D000099
S214007AB0117D0000117D0000117D0000117D000089
S214007AC0117D0000117D0000117D0000117D000079
S214007AD0117D0000117D0000117D0000117D000069
S214007AE0117D0000117D0000117D0000117D000059
S214007AF0117D0000117D0000117D0000117D000049
S214007B00117D0000117D0000117D0000117D000038
S214007B10117D0000117D0000117D0000117D000028
S214007B20117D0000117D0000117D0000117D000018
S214007B30117D0000117D0000117D0000117D000008
S214007B40117D0000117D0000117D0000117D0000F8
S214007B50117D0000117D0000117D0000117D0000E8
S214007B60117D0000117D0000117D0000117D0000D8
S214007B70117D0000117D0000117D0000117D0000C8
S214007B80117D0000117D0000117D0000117D0000B8
S214007B90117D0000117D0000117D0000117D0000A8
S214007BA0117D0000117D0000117D0000117D000098
S214007BB0117D0000117D0000117D0000117D000088
S214007BC0117D0000117D0000117D0000117D000078
S214007BD0117D0000117D0000117D0000117D000068
S214007BE0117D0000117D0000117D0000117D000058
S214007BF0117D0000117D0000117D0000117D000048
S214007C00117D0000117D0000117D0000117D000037
S214007C10117D0000117D0000117D0000117D000027
S214007C20117D0000D57C0000FFF764FA034603933D
S214007C306FE0FFF787FA034603936AE0FFF75AFA06
S214007C4004464FF40070FFF793FC0346B4FBF3F3CF
S214007C5003935EE0FFF776FA04464FF42070FFF7D2
S214007C6087FC0346B4FBF3F3039352E0FFF76AFA8C
S214007C7004464FF42070FFF77BFC0346B4FBF3F397
S214007C805B08039345E002AB0021184600F002FFB4
S214007C90029C4FF46070FFF76BFC0346B4FBF3F3F3
S214007CA0039336E003AB0021184600F059FF30E09E
S214007CB003AB0021184600F03FFE2AE003AB00218C
S214007CC0184600F099FE24E003AB0021184601F0A8
S214007CD04FF81EE003AB0021184601F03DF918E00E
S214007CE003AB0021184600F07BFF12E003AB002137
S214007CF0184601F0E1F80CE003AB0021184601F04D
S214007D0091F806E003AB0021184600F0A9FF00E05A
S214007D1000BF039B184604B010BD00BF00B585B079
S214007D200346ADF8063000238DF80F30BDF8063058
S214007D30B3F5086F00F01881B3F5086F00F32981DA
S214007D40B3F5006F00F00281B3F5006F00F32181F8
S214007D50B3F5F06F00F0F380B3F5F06F00F3198120
S214007D60B3F5E06F00F00E81B3F5E06F00F311811C
S214007D70B3F5D06F00F0F180B3F5D06F00F3098152
S214007D80B3F5C06F00F0D480B3F5C06F00F3018187
S214007D90B3F5B06F00F0B780B3F5B06F00F3F980BD
S214007DA0B3F5A06F00F0E780B3F5A06F00F3F180A5
S214007DB0B3F5906F00F0CA80B3F5906F00F3E980DA
S214007DC0B3F5806F00F0A680B3F5806F00F3E18016
S214007DD0B3F5807F00F0A580B3F5807F00F3D980EF
S214007DE0522B67DC242BC0F2D480243B2E2B00F2CF
S214007DF0D08001A252F823F0157F0000157F000006
S214007E00157F0000157F0000937F0000937F000021
S214007E10077F0000937F0000317F00005B7F00003B
S214007E20937F0000937F0000937F0000937F000005
S214007E30937F0000937F0000937F0000937F0000F5
S214007E40937F0000937F0000777F0000937F000001
S214007E50937F0000937F0000937F00003F7F000029
S214007E60857F0000937F0000937F0000937F0000D3
S214007E70937F0000937F0000937F0000937F0000B5
S214007E80937F0000937F0000937F0000937F0000A5
S214007E90937F0000937F0000937F0000937F000095
S214007EA0937F0000937F0000937F0000937F000085
S214007EB0157F0000802B6CD1394B1B6F03F0070336
S214007EC0013B032B1AD801A252F823F0F57E0000DE
S214007ED0DD7E0000E57E0000ED7E000005238DF8C7
S214007EE00F300FE003238DF80F300BE007238DF8DB
S214007EF00F3007E002238DF80F3003E000238DF8E3
S214007F000F3000BF46E00DF10F031946002000F0C9
S214007F102FFF3FE00DF10F031946002000F020FE72
S214007F2038E00DF10F031946002001F015F831E096
S214007F300DF10F031946002000F052FE2AE00DF165
S214007F400F031946002000F08BFE23E00DF10F030F
S214007F501946002000F0F0FC1CE00DF10F03194656
S214007F60002000F0A9FF15E00DF10F0319460020D0
S214007F7000F0AEFD0EE00DF10F031946002000F0F4
S214007F803BFD07E00DF10F031946002000F04AFF05
S214007F9000E000BF9DF80F30184605B05DF804FB02
S214007FA00080004010B584B003460A46ADF806309F
S214007FB013468DF805300023039300238DF80B300D
S214007FC000238DF80A30BDF80630B3F5086F00F0D0
S214007FD08982B3F5086F00F3EF82B3F5006F00F007
S214007FE01982B3F5006F00F3E782B3F5F06F00F087
S214007FF0EF81B3F5F06F00F3DF82B3F5E06F00F0CA
S214008000B982B3F5E06F00F3D782B3F5D06F00F016
S2140080103B82B3F5D06F00F3CF82B3F5C06F00F0AC
S214008020B581B3F5C06F00F3C782B3F5B06F00F04B
S2140080300781B3F5B06F00F3BF82B3F5A06F00F011
S2140080408182B3F5A06F00F3B782B3F5906F00F0AE
S214008050E181B3F5906F00F3AF82B3F5806F00F067
S2140080600781B3F5806F00F3A782B3F5807F00F039
S2140080701F81B3F5807F00F39F82522B68DC242B90
S214008080C0F29A82243B2E2B00F2968201A252F86E
S21400809023F000BF71820000718200007182000030
S2140080A071820000B9850000B98500004182000099
S2140080B0B98500008D83000089840000B985000022
S2140080C0B9850000B9850000B9850000B9850000B3
S2140080D0B9850000B9850000B9850000B9850000A3
S2140080E0B985000045850000B9850000B985000007
S2140080F0B9850000B9850000D183000075850000B1
S214008100B9850000B9850000B9850000B985000072
S214008110B9850000B9850000B9850000B985000062
S214008120B9850000B9850000B9850000B985000052
S214008130B9850000B9850000B9850000B985000042
S214008140B9850000B9850000B9850000718200007D
S214008150802B40F031829DF80530023B052B32D84B
S21400816001A252F823F000BFC18100008781000001
S214008170C781000081810000C7810000BB8100002C
S2140081800223039320E003230393AF4B03F58053AE
S2140081901A464FF400235366AC4B9B6A03F0020367
S2140081A0002B14BF012300238DF80B30A74B03F5DB
S2140081B080531A460123936206E00423039303E0E8
S2140081C00123039300E000BF0121022001F0C2F862
S2140081D000F068FE00F004FE00F03AFC9A4B1B6FBD
S2140081E023F007029849039B13430B67FFF777F9C1
S2140081F00446FFF7AFF90346C3F1020319462046CB
S21400820000F086FB0121002001F076F800F0F0FD7A
S21400821000F02AFC9DF80B3083F00103DBB2002B44
S2140082200AD09DF80530032B08D1884B03F5005380
S2140082301A460123936202E000BFBEE100BFBCE124
S2140082409DF80530022B04D00F2B05D10123039394
S21400825003E00223039300E000BF7B4BD3F880319A
S21400826023F003027849039B1343C1F88031A4E14D
S2140082709DF80530052B06D0052B0DDC022B08D00B
S214008280032B03D008E00123039306E002230393A5
S21400829003E00323039300E000BF6B4BD3F82031C9
S2140082A023F003026849039B1343C1F8203184E19D
S2140082B09DF80530083B082B66D801A252F823F03B
S2140082C0E5820000E582000089830000E582000068
S2140082D037830000898300008983000089830000BB
S2140082E0E5820000584B5B6E03F48033002B0CBF16
S2140082F0012300238DF80A30534B03F580531A46AA
S2140083004FF480335366524B1B6A514A43F00103C5
S21400831013629DF80A30002B06D04B4B03F5005332
S2140083201A464FF4803353664A4B1B68494A23F07B
S2140083300403136029E0444B5B6E03F48033002B88
S2140083400CBF012300238DF80A303F4B03F5805302
S2140083501A464FF4803353663D4B1B6A3C4A23F063
S214008360010313629DF80A30002B06D0364B03F546
S21400837000531A464FF480335366364B1B68354A13
S21400838043F00403136000E000BF16E19DF80530DB
S2140083900B2B0ED00B2B0FDC082B07D0082B0BDB80
S2140083A0093B012B08D80123039306E0022303931D
S2140083B003E00323039300E000BF234BD3F84031D0
S2140083C023F003022049039B1343C1F84031F4E035
S2140083D09DF805300B2B0ED00B2B0FDC082B07D08F
S2140083E0082B0BDB093B012B08D80123039306E07F
S2140083F00223039303E00323039300E000BF124B22
S214008400D3F8603123F003020F49039B1343C1F8EE
S2140084106031D2E09DF80530023B052B28D801A23A
S21400842052F823F059840000438400006B84000057
S2140084303D840000658400005F84000001230393F0
S21400844017E00223039314E00080004000C00040C1
S21400845000C0074010E000E00323039309E0042374
S214008460039306E00523039303E00623039300E04B
S21400847000BF534BD3F8243123F007025049039B27
S2140084801343C1F8243198E09DF80530083B062BCD
S2140084901CD801A252F823F0BB840000B58400006B
S2140084A0B5840000C1840000CD840000CD840000A7
S2140084B0C78400000123039309E00223039306E028
S2140084C00323039303E00423039300E000BF3C4B25
S2140084D0D3F8003223F007023949039B1343C1F84F
S2140084E000326AE09DF80530013B072B1ED801A23A
S2140084F052F823F0278500002D8500001585000022
S2140085002D8500002D8500002D85000021850000AA
S2140085101B8500000123039309E00223039306E072
S2140085200323039303E00023039300E000BF244BE0
S214008530D3F8003123F003022149039B1343C1F80B
S21400854000313AE09DF805300F2B02D0102B03D0F7
S21400855005E00123039302E00223039300BF184BB8
S214008560D3F8203223F003021549039B1343C1F8C6
S214008570203222E09DF805300B2B0ED00B2B0FDCA3
S214008580082B07D0082B0BDB093B012B08D801234F
S214008590039306E00223039303E00323039300E020
S2140085A000BF074BD3F8403223F003020449039B75
S2140085B01343C1F8403200E000BF00BF04B010BD56
S2140085C00080004000B585B00346ADF80630BDF823
S2140085D006301846FFF7A2FB03468DF80D309DF8CF
S2140085E00D30082B05D0082B1FDB093B012B1CD8B0
S2140085F004E0134B1B88ADF80E301BE0114B03F55F
S21400860080531A464FF4001353660F4B5B6A03F011
S2140086100103002B04D04FF4FA73ADF80E3009E0D6
S2140086204FF6FF73ADF80E3004E04FF6FF73ADF86B
S2140086300E3000BFBDF80E30184605B05DF804FBDE
S214008640580B0020008000400040024000B583B078
S21400865001908020FFF762FB0346032B00F0DB80CF
S2140086606F4B03F580531A464FF4002353666D4B49
S21400867045F60E02C3F880206A4B03F580531A466F
S21400868002239362674B03F500531A460123936255
S21400869000BF644B9B6D03F48033002BF9D1019B24
S2140086A01B781A06019B5B781B051A43019BDB7837
S2140086B01B041A43019B1B791B031A43019B5B791E
S2140086C09B011343019A92791A43564B1A61554BF4
S2140086D09B6903F00043019AD27992061343019AEC
S2140086E0127A12061343019A527A12041343019A1D
S2140086F0927A12021343019AD27A1146494A0B43E0
S2140087009361484B1B6A23F00D03019A527B002AA3
S21400871001D1002200E008221343019A127B920046
S2140087201343019A527B11463E4A0B431362019B48
S2140087305B7B002B54D13B4B9B6A23F03303019A9F
S214008740927B52011343019AD27B12011343354A9E
S21400875043F00103936200BF324B9A6D324B1340D5
S214008760314A9342F8D12F4B03F580531A46022321
S21400877093622C4B02221A6500BF2A4B9B6D03F0B6
S2140087808043002BF9D1274B1B6923F47003019A11
S214008790927812051146234A0B431361214B03F5C9
S2140087A080531A464FF000439361019B1B7C83F075
S2140087B00103DBB2002B05D01A4B03F500531A4613
S2140087C002239362019B5B7C83F00103DBB2002BE8
S2140087D018D0144B03F500531A460123936211E098
S2140087E0104B9B6A23F03303019A927B520113438A
S2140087F0019A127C52001343019A527C1146094A90
S2140088000B439362019B9B7C002B05D0054B074ACC
S214008810C3F8802000E000BF03B05DF804FB00BF93
S2140088200080004000C0004003000140F1A7FFFFA9
S214008830024B93F900301846704700BF6C180020B2
S21400884000B587B003468DF8073000230393002356
S214008850059300230493274B03F580531A464FF4E1
S21400886000135366244B02225A6000BF224B9B68BB
S21400887003F48033002BF9D19DF80730012B2ED15D
S214008880FEF784FC0390039B1C4A934205D11C4BC5
S214008890059345F67A13049317E0039B194A93420F
S2140088A005D1194B059345F61A0304930DE0039A78
S2140088B013469B0013445B0A0593144B0493039BD7
S2140088C05B0A049AB2FBF3F304930B4A059BD3624C
S2140088D0094A049B1363084B01225A6202E0064BC6
S2140088E000225A62044B00225A6000BF07B05DF8AF
S2140088F004FB00BF008000400040024000F0490238
S214008900D8B80500C0175302BBCF0500646666667C
S21400891000B583B001900091009B002B04DD01217F
S214008920019800F0DDF903E00021019800F0D8F985
S21400893000BF03B05DF804FB00B585B00190009160
S214008940002303932B4BD3F8243103F00703013B9A
S214008950052B39D801A252F823F000BF7589000014
S21400896091890000AD890000BB8900008389000062
S2140089709F890000FEF7B8FB039005238DF80B30A7
S21400898026E0FEF7B1FB039006238DF80B301FE0C0
S214008990FEF7FCFB039003238DF80B3018E0FEF780
S2140089A0F5FB039004238DF80B3011E0FEF70EFC68
S2140089B0039002238DF80B300AE0FEF703FC0390C9
S2140089C007238DF80B3003E000238DF80B3000BF33
S2140089D0019B002B02D0019B039A1A60009B002B80
S2140089E003D0009B9DF80B201A7000BF05B05DF801
S2140089F004FB00BF0080004000B583B001900091EA
S214008A00124BD3F8203203F00303012B02D0022BC3
S214008A1005D009E00099019800F0A2F811E000994D
S214008A20019800F0DDF80CE0019B002B02D0019BC2
S214008A3000221A60009B002B02D0009B00221A70B6
S214008A4000BF00BF03B05DF804FB00BF008000401D
S214008A50044B03F580531A464FF48033136700BF68
S214008A60704700BF0080004008B58020FEF792FEE9
S214008A700346064A934206D8054B03F500531A46AA
S214008A804FF48033136700BF08BD00BF005A620270
S214008A900080004000B585B001900091002303934C
S214008AA0FEF728FB03900D238DF80B30019B002B5F
S214008AB002D0019B039A1A60009B002B03D0009BF8
S214008AC09DF80B201A7000BF05B05DF804FB00008F
S214008AD000B585B001900091002303931F4BD3F897
S214008AE0003103F00303032B23D801A252F823F02E
S214008AF02B8B0000018B00000F8B00001D8B0000ED
S214008B00FEF744FB039003238DF80B3015E0FEF7C9
S214008B106BFB039008238DF80B300EE0FEF752FB3C
S214008B20039007238DF80B3007E001238DF80B30F8
S214008B3003E000238DF80B3000BF019B002B02D012
S214008B40019B039A1A60009B002B03D0009B9DF8A4
S214008B500B201A7000BF05B05DF804FB00800040D3
S214008B6000B585B001900091002303931B4BD3F80A
S214008B70203103F00303032B14D0032B19D8012B49
S214008B8002D0022B07D014E0FEF7AEFA03900523BE
S214008B908DF80B3011E0FEF7F9FA039003238DF8F9
S214008BA00B300AE0FEF712FB039002238DF80B3021
S214008BB003E000238DF80B3000BF019B002B02D092
S214008BC0019B039A1A60009B002B03D0009B9DF824
S214008BD00B201A7000BF05B05DF804FB0080004053
S214008BE000B585B001900091002303931B4BD3F88A
S214008BF0403103F00303032B14D0032B19D8012BA9
S214008C0002D0022B07D014E0FEF7E6FA0390092301
S214008C108DF80B3011E0FEF7E7FA039008238DF885
S214008C200B300AE0FEF7DCFA03900B238DF80B30CE
S214008C3003E000238DF80B3000BF019B002B02D011
S214008C40019B039A1A60009B002B03D0009B9DF8A3
S214008C500B201A7000BF05B05DF804FB00800040D2
S214008C6000B585B001900091002303931B4BD3F809
S214008C70603103F00303032B14D0032B19D8012B08
S214008C8002D0022B07D014E0FEF7A6FA03900923C1
S214008C908DF80B3011E0FEF7A7FA039008238DF845
S214008CA00B300AE0FEF79CFA03900B238DF80B308E
S214008CB003E000238DF80B3000BF019B002B02D091
S214008CC0019B039A1A60009B002B03D0009B9DF823
S214008CD00B201A7000BF05B05DF804FB0080004052
S214008CE000B585B0019000911E4B03F580531A46DF
S214008CF04FF4003393660020FEF73AFC0246019BD1
S214008D0002FB03F30193184BDB6903F48033B3F5DE
S214008D10803F0CBF012300238DF80B30124B41F629
S214008D207132DA63104B9B6823F440130393019B64
S214008D300E4A934207D9009B002B04DC039B43F4A6
S214008D408013039300E000BF074A039B93609DF8DF
S214008D500B30002B02D0044B0022DA6300BF05B0B4
S214008D605DF804FB0080004000000340005A6202E9
S214008D7000B585B00190009100230293174BD3F8FD
S214008D80803103F00303012B02D0022B09D010E040
S214008D9002AB00211846FFF7E3FE0F238DF80F30D5
S214008DA00BE0FEF713FA0346029302238DF80F300A
S214008DB003E000238DF80F3000BF019B002B02D08C
S214008DC0029A019B1A60009B002B03D0009B9DF823
S214008DD00F201A7000BF05B05DF804FB008000404D
S214008DE008B502214FF42070FEF708FC00BF08BD4E
S214008DF000B583B0022301934FF4C070FEF7CAFC9F
S214008E000346074A934201D80123019301994FF480
S214008E102070FEF7F3FB00BF03B05DF804FB00BF55
S214008E2080F0FA0200B585B001900091002303930C
S214008E301B4BD3F8403203F00303032B14D0032B51
S214008E4019D8012B02D0022B07D014E0FEF7C4F984
S214008E50039009238DF80B3011E0FEF7C5F9039057
S214008E6008238DF80B300AE0FEF7BAF903900B23BF
S214008E708DF80B3003E000238DF80B3000BF019B0C
S214008E80002B02D0019B039A1A60009B002B03D094
S214008E90009B9DF80B201A7000BF05B05DF804FB20
S214008EA00080004008B5FEF76BF90346002118461F
S214008EB0FFF716FF00BF08BD00B585B00190009112
S214008EC000230393234BD3F8003203F00703013B40
S214008ED0032B29D801A252F823F000BFED8E000024
S214008EE0FB8E0000098F0000178F0000FEF774F954
S214008EF0039009238DF80B301AE0FEF775F90390FE
S214008F0008238DF80B3013E0FEF76AF903900B2365
S214008F108DF80B300CE0FEF715F903469B0A039319
S214008F200E238DF80B3003E000238DF80B3000BFC6
S214008F30019B002B02D0019B039A1A60009B002B1A
S214008F4003D0009B9DF80B201A7000BF05B05DF89B
S214008F5004FB00BF0080004000B585B00190009182
S214008F6000230393124B1B6803F00403002B07D067
S214008F70FEF7E8F8034603930C238DF80B3006E063
S214008F800DF10B0203AB11461846FFF729FE019BB5
S214008F90002B02D0039A019B1A60009B002B03D083
S214008FA09DF80B20009B1A7000BF05B05DF804FB0F
S214008FB010E000E082B0EFF310830093009B019373
S214008FC072B600BF019B184602B0704782B001908F
S214008FD0019B002B01D162B600BF00BF02B07047F4
S214008FE084B0EFF311830193019B03933023029324
S214008FF0029B83F3118800BF039B184604B070479A
S21400900084B00190019B0393039B83F3118800BFF8
S21400901000BF04B0704708B5FEF794F800BF08BD5F
S21400902082B001900091019B1A68009B22FA03F31C
S21400903003F00103184602B070470000024B034AD3
S2140090401A6400BF704700BF004009403254FFFF5B
S214009050024B4AF6CD321A6400BF70470040094002
S21400906008B500BF04210448FFF7DAFF0346002BCB
S214009070F8D100BF00BF08BD8440004008B5FFF728
S214009080EFFF4FF04023D3F884309B0903F003032F
S214009090DBB2184608BD82B003468DF807309DF84F
S2140090A00730013B4FF4806202FA03F3184602B021
S2140090B07047000000B585B003468DF807309DF870
S2140090C00730002B13D12D4B00221A602C4B03F5D2
S2140090D080531A464FF4003353662A4B5B68012BC5
S2140090E047D1274BD3F80031244A136041E0234B85
S2140090F01B68002B3DD0234B5B68012B39D0204AE0
S2140091001E4B1B68C2F800318020FEF707FE0346A0
S214009110052B28D14FF4C070FEF72AFA0390039B64
S214009120012B04D102214FF4C070FEF767FA154BED
S21400913003F500531A4607231361124B03F58053B9
S2140091401A460123536000BF0E4B1B6903F0010350
S214009150002BF9D0039B012B0BD101214FF4C070DB
S214009160FEF74CFA05E0074B03F580531A46012339
S214009170536000BF05B05DF804FB00BF7418002004
S2140091800080004000C0014000B583B00190019B04
S2140091901A78054B1A700121002000F0ADF800BFC8
S2140091A003B05DF804FB00BF7018002082B0019089
S2140091B04FF040235B6F23F44072019B5B781B02E9
S2140091C04FF0402113434B6700BF02B0704700BF0B
S2140091D0704700BF7047000000B585B003468DF8A5
S2140091E007309DF80730002B02D00020FFF762FF03
S2140091F0144B1B69134A43F00403136103F09EFAF1
S214009200FFF7E5FFFFF7D6FE03902DF085F80398ED
S214009210FFF7DCFEFFF7DDFF03F0A8FA9DF8073046
S214009220002B02D00120FFF745FF9DF8073083F0A2
S2140092300103DBB2002B01D0FFF7EDFE00BF05B047
S2140092405DF804FB00ED00E000B585B003468DF840
S21400925007309DF80730002B02D00020FFF72AFFCA
S214009260124B1B69114A43F00403136103F066FABC
S214009270FFF7A0FE03902DF04FF80398FFF7A6FE29
S21400928003F074FA9DF80730002B02D00120FFF798
S21400929011FF9DF8073083F00103DBB2002B01D0ED
S2140092A0FFF7B9FE00BF05B05DF804FB00ED00E077
S2140092B008B50020FFF7FEFE00BF08BD08B5012078
S2140092C0FFF7F8FE00BF08BD82B001904FF04023C4
S2140092D0DB6E23F03003019A127911464FF04022DC
S2140092E00B43D36600BF02B0704782B003468DF8CA
S2140092F0073000BF02B0704700B585B001900B463E
S2140093008DF80330019B002B03D1FDF7F3FE03908D
S21400931001E0019B03930D4B1B78002B0AD0039BA7
S2140093200B4A934206D89DF803301946012000F0F8
S21400933011F806E09DF803301946022000F00AF8FE
S21400934000BF00BF05B05DF804FB00BF701800202A
S214009350005A620210B586B003460A468DF80730FA
S21400936013468DF80630FFF789FE03461A469DF829
S2140093700730934245D0FDF7BDFE0590059B04934C
S2140093809DF80730012B03D101210598FFF7C0FA9D
S214009390FFF710FE03904FF0402303F500531A46E4
S2140093A04FF0007353669DF807301846FFF79DFF91
S2140093B04FF040249DF807301846FFF76CFE034632
S2140093C0236703E04FF04023D3F884304FF0402368
S2140093D05B6E03F00073002B07D14FF04023D3F8E9
S2140093E0843003F02003002BECD00398FFF7EEFD4B
S2140093F09DF80730022B05D100210598FFF788FA63
S21400940000E000BF06B010BD00B585B001902A4B45
S21400941003F580531A464FF000435366274B03F577
S21400942080531A4601235360244B5B6C03F0010300
S214009430002B14BF012300238DF80F30FFF708FE22
S214009440019B5B785B004FF0402243F00103D3633F
S2140094501A4B9B6823F07402019B9B781B011343F5
S214009460019AD278002A01D0042200E00022134993
S21400947013438B60019B1B791B02019A927911465C
S2140094800E4A0B431361019B5B791B02019AD2794A
S21400949011460A4A0B435361019B1B78184600F09D
S2140094A00FF89DF80F30002B01D0FFF7C7FD012302
S2140094B0184605B05DF804FB0080004000400940F7
S2140094C000B585B003468DF807302E4B03F5805364
S2140094D01A464FF0004353662B4B03F580531A464B
S2140094E001235360284B5B6C03F00103002B14BF71
S2140094F0012300238DF80F30FFF7AAFD9DF80730F3
S214009500002B1BD1204B9B6803F001030293029BA8
S214009510002B0CD01C4B03F500531A460123936016
S21400952000BF194BDB6A03F00103002BF9D0164B82
S21400953003F500531A460123536019E000BF124B8F
S214009540DB6A03F00803002BF9D10F4B03F5005339
S2140095501A46202353620C4B03F580531A46012308
S214009560936000BF084B5B6A03F02003002BF9D022
S2140095709DF80F30002B01D0FFF760FD00BF05B04F
S2140095805DF804FB008000400040094000B587B04D
S214009590039002910192FFF70DFD0590039B1A6858
S2140095A0029BDB431A400199029B0B401A43039B24
S2140095B01A600598FFF70AFD00BF07B05DF804FBC8
S2140095C082B0034600918DF807309DF80730002BD7
S2140095D00AD09DF80730012B06D09DF80730022BE5
S2140095E002D09DF80730032B08489DF8072001217C
S2140095F0009B994013465B0013441B01034403F58C
S21400960000531033196000BF02B0704700C003401B
S21400961082B0034600918DF807309DF80730002B86
S2140096200AD09DF80730012B06D09DF80730022B94
S21400963002D09DF80730032B08489DF8072001212B
S214009640009B994013465B0013441B01034403F53B
S21400965080531033196000BF02B0704700C003404B
S21400966000B585B00291019303468DF80F3013467E
S2140096708DF80E309DF80F30002B0AD09DF80F3075
S214009680012B06D09DF80F30022B02D09DF80F302C
S214009690032B9DF80E30002B0FD0019B002B06D01D
S2140096A09DF80F3002991846FFF7B2FF05E09DF8C7
S2140096B00F3002991846FFF783FF029B072B1AD834
S2140096C09DF80F2013465B0013441B01043303F17F
S2140096D0804303F57033029A92000F2101FA02F0DC
S2140096E09DF80E10029A920001FA02F20146184600
S2140096F0FFF74CFF1BE09DF80F2013465B0013445A
S2140097001B010C3303F1804303F57033029A083AC9
S21400971092000F2101FA02F09DF80E10029A083A04
S214009720920001FA02F201461846FFF72FFF9DF855
S2140097300E30002B0FD1019B002B06D09DF80F306A
S21400974002991846FFF764FF05E09DF80F3002996E
S2140097501846FFF735FF00BF05B05DF804FB0000B4
S214009760094B03F580531A464FF400339366074BB4
S21400977041F67132DA63054B03F500531A460123AE
S214009780D36000BF704700BF008000400000034069
S2140097900A4B41F67132DA63084B03F500531A465A
S2140097A00123D360054B0022DA63054B03F5005313
S2140097B01A464FF40033936600BF7047000003401C
S2140097C00080004000BF4FF090435B68002B04D041
S2140097D04FF090439B6A002BF5D100BF704708B549
S2140097E0FFF7F0FF4FF090430122DA6000BF08BD9C
S2140097F008B5FFF7E7FF4FF090430222DA6000BF9C
S21400980008BD000084B001900091009B1B781A46AA
S214009810009B5B789B001A43009BDB785B011A4336
S214009820009B1B791B014FF0904042EA0301019A0E
S21400983013465B0013449B00034430331960009BBF
S2140098401B78012B09D1064B0393009B9978019B4B
S2140098509B00039A13440A461A6000BF04B0704780
S214009860E880034000B583B003468DF807304FF01C
S21400987090435B68002B06D19DF8073083F0010308
S214009880DBB2002B20D14FF090435B68002B01D059
S214009890FFF798FF9DF80730002B09D04FF0904354
S2140098A003F580531A4601235360FFF798FF0CE038
S2140098B0FFF79EFFFFF786FF4FF0904303F5005338
S2140098C01A460123536000E000BF03B05DF804FBB6
S2140098D000B583B001904FF090435B68002B01D039
S2140098E0FFF770FF4FF0904303F500531A4601232D
S2140098F05360019B5B78002B01D0012200E0002220
S214009900019B9B78002B01D0022300E00023134329
S214009910019AD278002A01D0042200E000221A43DD
S214009920019B1B791B011A43019B5B79DB004FF0FF
S214009930904113438B604FF0904303F580531A46D3
S21400994001235360019B1B78002B01D0012300E00C
S21400995002234FF09042D36000BF03B05DF804FBD3
S21400996084B00190104B03F580531A464FF48033B1
S21400997053660E4B5B690393039B9B09DBB203F0B4
S2140099803F03DAB2019B9A70039BDBB203F03F03FE
S214009990DAB2019B5A70039B1B0BDAB2019B1A705A
S2140099A000BF04B0704700BF0080004000C0074002
S2140099B082B001900B468DF80330019B0D4A93420E
S2140099C005D10D4A9DF80330C2F88C3108E0019BA2
S2140099D00A4A934204D1084A9DF80330C2F89C31E3
S2140099E0019BDB6D43F08002019BDA6500BF02B08D
S2140099F0704700BF00C005400080034000000640DE
S214009A0000B587B00390029101928DF803300023D1
S214009A100593029B002B04D14FF42070FDF7BAFE8D
S214009A2002909DF80330602B13D0602B14DC402B83
S214009A300CD0402B10DC002B02D0202B03D00BE0E8
S214009A401023059309E00823059306E006230593F3
S214009A5003E00423059300E000BF059B002B2AD0FB
S214009A60029B5A01059B019901FB03F35B08134413
S214009A700493059B019A02FB03F3049AB2FBF3F3EB
S214009A800493049B203B0493049BDB000493049AFA
S214009A900B4B13400493039B9B6823F06002039BCD
S214009AA09A60039B9A689DF803301A43039B9A605A
S214009AB0039B049ADA6100BF07B05DF804FB00BFA1
S214009AC0F8FF7F0084B001900B468DF80330019BB1
S214009AD0144A934202D0019B134A934200BF019B53
S214009AE003F580531A46012353609DF80330DB4389
S214009AF00393039B03F005030393039B5A00019B08
S214009B005A619DF80320019B5A619DF80330002B93
S214009B1005D1019B03F500531A460123536000BF8D
S214009B2004B0704700C005400000064000B583B092
S214009B3001900091019B564A934202D0019B554AE0
S214009B40934200BF019800F0A9F8019B03F58053EB
S214009B501A4601235360009B9B7C002B05D0019B7B
S214009B609B6843F08042019B9A60009BDB7C002B45
S214009B7005D0009B1B7D19460198FFF719FF009B37
S214009B805B7B1A46009B1B8A1343009AD2891A43B2
S214009B90019BDA60009B5968009B9A68009B1B7BC0
S214009BA00198FFF72DFF009B5B7D002B05D0019BE6
S214009BB09B6843F48032019B9A60009B9B7D002B40
S214009BC005D0019B9B6843F40042019B9A60009B72
S214009BD0DB7D1B0703F0E042009B1B7E1B0503F4A6
S214009BE0E0031A43019B9A65009B5B7E022B03D021
S214009BF0009B5B7E032B16D1274A019B24498B4290
S214009C0008D0019B23498B4201D1012303E04FF08A
S214009C10FF3300E000235B01134403F5B0531C330D
S214009C2002221A6015E01C4A019B19498B4208D093
S214009C30019B18498B4201D1012303E04FF0FF330B
S214009C4000E000235B01134403F518531C33022283
S214009C501A60009B5B7E012B03D0009B5B7E032B70
S214009C6006D1019B03F580531A460423D36505E00D
S214009C70019B03F500531A460423D365009B1B780B
S214009C801A46019B5A6100BF03B05DF804FB00BF93
S214009C9000C005400000064000C0034082B00190AE
S214009CA0019B264A934202D0019B254A934200BF5D
S214009CB0019B03F580531A4601235360019B40F62F
S214009CC0AA625A61019B00229A60019B0022DA6513
S214009CD0019B41F20502DA60019B00221A61019B9A
S214009CE00022DA61019B0022DA64019B03F500532F
S214009CF01A46144B9364019B00229A65019B0F4AF7
S214009D00934203D0019B0E4A934202D1019B00224C
S214009D101A65019B094A934203D0019B084A934265
S214009D2002D1019B00225A65019B03F500531A4697
S214009D300123536000BF02B0704700BF00C005405B
S214009D4000000640FFFF010082B0019000BF019BAB
S214009D509B6903F08003002BF9D0019B5B6ADBB2A2
S214009D60184602B0704782B001900B468DF803305B
S214009D7000BF019B9B6903F04003002BF9D09DF8C0
S214009D800320019BDA6300BF02B0704730B583B092
S214009D900190019824F0D0FC064A019B14461D460B
S214009DA00FCD0FC495E8030084E80300002318468F
S214009DB003B030BD781800208CB001900B468DF8AB
S214009DC003301346ADF8003000230A93BDF9003087
S214009DD047F6FF72934201D1FF23DEE09DF8033081
S214009DE0022B01D90023D8E09DF80330DB006C4A33
S214009DF013440793079B9B780693079B1B78012BBE
S214009E002BD100230993079BDB781A46069BD31AAF
S214009E100A9317E00A9A099BD31A5B080A9AD31A80
S214009E200393079B5A68039B5B001344B3F9003007
S214009E30BDF900209A4203DA039B013B0A9301E036
S214009E40039B0993099A0A9B9A42E3D30A9BDAB2C8
S214009E50069BDBB21344DBB29FE0079B5B6805936F
S214009E60059B002B01D1002397E0059BB3F900303A
S214009E70BDF900209A4204DD059B1B88ADF8003032
S214009E800AE0059BB3F90230BDF900209A4203DAD6
S214009E90059B5B88ADF80030C823ADF82230282338
S214009EA0ADF82030059B9B88FF2B0AD10A9B013317
S214009EB00A93059BDB88ADF82230059B9B68ADF8BE
S214009EC02030BDF92220BDF90030D21ABDF920306D
S214009ED092FBF3F31A460A9B13440A93079B5B789C
S214009EE0013B0A9A9A4203D9079B5B78013B0A9387
S214009EF00A9BDB00059A134404330493049B5A68B8
S214009F00049BB3F902301946BDF9003001FB03F398
S214009F101344002B02DA00230B930BE0049B5A68D1
S214009F20049BB3F902301946BDF9003001FB03F378
S214009F3013440B930B9B03F5FA731A4AA2FB0323F5
S214009F409B090B930A9B01330A93079B5B781A467F
S214009F500A9B934208D2059A0A9BDB0013449B880F
S214009F601A460B9B9342C3D90A9B013B059ADB001A
S214009F7013449B881A460B9B934206D90A9B013BC7
S214009F80059ADB0013449B880B930B9A069B9A4218
S214009F9001D2069B0B930B9BDBB218460CB07047A6
S214009FA078180020D34D621088B001900B468DF8CB
S214009FB0033013468DF802309DF80330022B01D98A
S214009FC0604BBBE09DF80330DB005F4A134406930A
S214009FD0069B1B78012B26D1069BDB789DF802207A
S214009FE09A4203D9069BDB788DF80230069B9B7855
S214009FF09DF80220D31A8DF802309DF80220069BA9
S21400A000DB781946069B9B78CB1A9A4202DD002322
S21400A0108DF80230069B5A689DF802305B001344A8
S21400A020B3F900308AE0069B5B680593059B002B1E
S21400A03001D1444B82E0059B04330493049B002B20
S21400A04001D1404B7AE0069B9B789DF802209A420D
S21400A05003D8059BB3F9023070E0069BDB789DF8C9
S21400A06002209A4203D3059BB3F9003066E0002332
S21400A0708DF81F30069B5B78013B8DF80F30049BF4
S21400A0801B88FF2B14D101238DF81F3010E09DF89C
S21400A0901F300133DB00049A13441A889DF80230FF
S21400A0A09BB29A420BD39DF81F3001338DF81F30B8
S21400A0B09DF81F209DF80F309A42E8D300E000BFBD
S21400A0C09DF802304FF47A7203FB02F29DF81F30BF
S21400A0D0DB0004990B445B68D31A02939DF81F308B
S21400A0E0DB00049A1344B3F90230DA0F13445B1012
S21400A0F01BB21A46029B13449DF81F20D2000499F7
S21400A1000A44B2F9022093FBF2F30293059BB3F9DB
S21400A11000301A46029B934203DD059BB3F90030DC
S21400A1200CE0059BB3F902301A46029B934203DA11
S21400A130059BB3F9023001E0029B1BB2184608B03B
S21400A140704700BF0080FFFF7818002008B504485D
S21400A150FFF71CFE012024F0F1FA00BF08BD00BF87
S21400A1600C7C030000B587B001AB00221A605A6071
S21400A1709A60DA601A6102238DF804300B4B029362
S21400A18002238DF80D3004238DF80E3002238DF84F
S21400A190133005238DF8143001AB19464FF0FF300D
S21400A1A024F032FB00BF07B05DF804FB006A18001D
S21400A1B000B583B0074A6B4692E8030083E80300C5
S21400A1C06B461846FFF720F90023184603B05DF8E3
S21400A1D004FB00BF247C030000B583B04FF040238F
S21400A1E05B6F4FF0402243F0010353676B4600223B
S21400A1F01A601A7100238DF804306B461846FFF774
S21400A20063F80023184603B05DF804FB30B587B04A
S21400A2102B4B6C461D460FCD0FC42B681A4622806A
S21400A22002341B0C237000238DF80D304FF0FF33E3
S21400A2300593244BD3F84C3103F40023002B04D1B0
S21400A240204BD3F85031DBB20593059BB3F1FF3FAB
S21400A25008D11D4B1B884FF6FF72934202D01A4B53
S21400A2601B880593059BB3F1FF3F01D18C23059313
S21400A270059BB3F1FF3F18D0059BDBB28DF80A3083
S21400A280FEF7D6FA0246059B13440593059B002B62
S21400A29002DA0023059304E0059BFF2B01DDFF2374
S21400A2A00593059BDBB28DF809300848FCF774FF70
S21400A2B06B461846FEF7CAF90023184607B030BDAD
S21400A2C02C7C03000080E00F0001E00F00F0490244
S21400A2D008B50120FEF7B4FA0023184608BD0000B2
S21400A2E082B0034600918DF807309DF90730002BA9
S21400A2F00ADB009BDAB20C499DF907301201D2B294
S21400A3000B4483F800230BE0009BDAB207499DF864
S21400A310073003F00F03043B1201D2B20B441A7647
S21400A32000BF02B0704700BF00E100E000ED00E0B3
S21400A33000B583B0FB238DF807300CE09DF907309D
S21400A34005211846FFF7CCFF9DF90730DBB2013335
S21400A350DBB28DF807309DF907303F2BEEDD00238A
S21400A360184603B05DF804FB08B500F021F900BFFD
S21400A37008BD000000B583B002F0F8FA0090009B1C
S21400A380002B01D0009B2CE002F06AFC03464FF441
S21400A390167202FB03F303F5742303F23F23134AFA
S21400A3A0A2FB03239B0C124A136000238DF8073090
S21400A3B012E09DF807300E4A12680E4941F8232035
S21400A3C00D4B1A680A4B1B6813440B4A13609DF822
S21400A3D0073001338DF807309DF80730092BE8D990
S21400A3E00023184603B05DF804FB00BF83DE1B4362
S21400A3F09018002098180020C418002000BF70474E
S21400A40008B5054B01221A7002F01AFC0346034AEF
S21400A410136000BF08BD00BFCC180020C81800207D
S21400A42008B5294B1B7883F00103DBB2002B49D11A
S21400A43002F006FC0246254B1B68D31A244A13601A
S21400A440234B1B68002B02D0214B1B6800E0012326
S21400A4501F4A13601F4B1B681F4A127811461F4A7B
S21400A46052F8212011461A4A12688A1A9B1A194A6B
S21400A4701360194B1B781946154B1B68174A42F890
S21400A4802130144B1B680933154AA2FB0323DB0853
S21400A490144A1360104B1B780133DAB20E4B1A7055
S21400A4A00D4B1A780E4BA3FB0213D9080B469B00E4
S21400A4B00B445B00D31ADAB2074B1A70024B002229
S21400A4C01A7000E000BF08BDCC180020C818002095
S21400A4D094180020C4180020C018002098180020E7
S21400A4E0CDCCCCCC90180020014B1B68184670478A
S21400A4F09018002082B003468DF807309DF907308B
S21400A500002B0CDB9DF8073003F01F0205499DF970
S21400A51007305B09012000FA02F241F8232000BF51
S21400A52002B0704700E100E082B003468DF80730C5
S21400A5309DF90730002B0DDB9DF8073003F01F0256
S21400A54006499DF907305B09012000FA02F26033E4
S21400A55041F8232000BF02B0704700BF00E100E0D2
S21400A56082B0034600918DF807309DF90730002B26
S21400A5700ADB009BDAB20C499DF907301201D2B211
S21400A5800B4483F800230BE0009BDAB207499DF8E2
S21400A590073003F00F03043B1201D2B20B441A76C5
S21400A5A000BF02B0704700BF00E100E000ED00E031
S21400A5B008B502212C20FFF7D3FF104B03F580537C
S21400A5C01A464FF4002353660D4B03F500531A4604
S21400A5D00C4B53670A4B03F500531A46094B136797
S21400A5E02C20FFF7A1FF2C20FFF784FF044B03F578
S21400A5F080531A46034B536700BF08BD00800040D7
S21400A60000C00040010000A084B003468DF807306B
S21400A61000238DF80F30144B9B6D03F00103002BC5
S21400A62008D0124B1B7883F00103DBB2002B01D05D
S21400A630012300E000238DF80F309DF80F3003F063
S21400A64001038DF80F309DF80F3083F00103DBB265
S21400A650002B03D09DF80730002BDCD19DF80F307F
S21400A660184604B0704700BF00C00040CD18002058
S21400A67008B500F003F800BF08BD000000B583B0C1
S21400A680A34B1B6F0193A24B9B6A03F00203002BA4
S21400A69014BF012300238DF803309D4B9B6A03F003
S21400A6A00103002B14BF012300238DF80230019B09
S21400A6B003F00103002B00F08680954A019B03F00F
S21400A6C0010302F500521367924B1B78002B73D0E0
S21400A6D0904B00221A70904B1B78012B66D88C4B3F
S21400A6E003F500531A4601239362894B03F5805302
S21400A6F01A460223936200BF854B9B6D03F480339A
S21400A700002BF9D1824B5B6B23F47062834B1B6882
S21400A7107F4913434B637E4B9B6923F47F0323F4EB
S21400A7207F437F4A12681A437E4B1B68784913435F
S21400A7308B61774B1B6923F47F6323F00F037A4A00
S21400A74012681A43794B1B68714913430B61704BAF
S21400A7509B6923F0FF02764B1B686D4913438B61A0
S21400A7609DF8033083F00103DBB2002B06D0684B64
S21400A77003F500531A460223936205E0644B03F583
S21400A78080531A46022393629DF80230002B06D0AF
S21400A7905F4B03F580531A460123936213E05C4B2C
S21400A7A003F500531A46012393620CE0FFF726FEDA
S21400A7B0604B01221A7006E0FFF732FE01F01AFE27
S21400A7C0554B00221A70019B03F00053002B00F03B
S21400A7D0D0804F4A019B03F0005302F500521367E6
S21400A7E04C4B01221A704C4B1B780133DAB24A4BA1
S21400A7F01A70474B5B6B03F47063484A1360444B14
S21400A8009B6903F47F43464A1360414B9B6903F4FC
S21400A8107F03444A13603E4B9B69DBB2444A136095
S21400A8203B4B1B6903F47C633F4A1360384B1B6940
S21400A83003F03F033D4A1360354B03F500531A46B9
S21400A84001239362324B03F580531A460223936228
S21400A8502F4B03F580531A464FF00043936200BF18
S21400A8602B4B9B6D03F48033002BF9D1284B03F55B
S21400A87000531A464FF000439362254B5B6B23F45C
S21400A88070622D4B1B68224913434B63244B1B6895
S21400A8901B0A642B04D8234B1B681B0C642B0FD994
S21400A8A01B4B9B6923F47F0323F47F43234A1268E0
S21400A8B012021A43214B1B681B04154913438B6174
S21400A8C0134B1B6923F47F6323F00F031C4A1268A3
S21400A8D092081A431A4B1B689B089B010C491343AA
S21400A8E00B610B4B9B6923F0FF02154B1B68084955
S21400A8F013438B619DF8033083F00103DBB2002B1A
S21400A90020D0034B03F500531A46022393621FE040
S21400A91000C00040CD180020CE180020D01800201F
S21400A920D4180020D8180020E0180020E4180020D2
S21400A930DC180020CF1800205C0B0020600B0020E5
S21400A940640B0020334B03F580531A4602239362B0
S21400A9509DF80230002B06D02E4B03F580531A4686
S21400A9600123936205E02B4B03F500531A4601239F
S21400A9709362019B002B49DA264A019B03F00043B1
S21400A98002F500521367244B1B78002B3ED0214B58
S21400A99003F500531A46012393621E4B03F58053BA
S21400A9A01A460223936200BF1A4B9B6D03F4803352
S21400A9B0002BF9D1174B03F580531A464FF000438E
S21400A9C093619DF8033083F00103DBB2002B06D0C1
S21400A9D0104B03F500531A460223936205E00D4B15
S21400A9E003F580531A46022393629DF80230002B2B
S21400A9F006D0084B03F580531A460123936205E000
S21400AA00044B03F500531A460123936200BF03B0BC
S21400AA105DF804FB00C00040CF18002000B585B0EC
S21400AA200190FEF7C7FA0390054A019B136003984E
S21400AA30FEF7CCFA0023184605B05DF804FB00BF0D
S21400AA40E818002000B583B000230193FEF7B2FAA1
S21400AA500090054B1B6801930098FEF7B7FA019B20
S21400AA60184603B05DF804FBE818002000B585B072
S21400AA70039002910192039B002B02D1FFF7E2FFA5
S21400AA800390039B002B0CD0039B5B68002B08D025
S21400AA90039B5B68039A1068019A029998470346DD
S21400AAA000E02323184605B05DF804FB10B586B019
S21400AAB0039002910192009304AB0593039B002B35
S21400AAC002D1FFF7BFFF0390009B002B01D0009B35
S21400AAD00593039B002B0DD0039B9B68002B09D08E
S21400AAE0039B9C68039B1868059B019A0299A047E4
S21400AAF0034600E02323184606B010BD0EB400B58A
S21400AB0088B00190019B0693002305930AAB03933C
S21400AB10069B002B05D1FFF795FF0790079B069332
S21400AB2009E0FFF78FFF0790079A069B9A4202D02C
S21400AB300698FFF773FF039909982AF025FD0490FD
S21400AB40079A069B9A4202D00798FFF767FF049B76
S21400AB50002B01DC37230593059B184608B05DF8EB
S21400AB6004EB03B0704782B001900023184602B091
S21400AB70704782B00190FEE782B001900091009B82
S21400AB804FF400525A600023184602B0704782B055
S21400AB9001900123184602B0704784B003900291DA
S21400ABA001920023184604B0704700B587B00390A2
S21400ABB00291019200230593019A05AB02990020A9
S21400ABC0FFF774FF059B002B02D14FF0FF3300E028
S21400ABD0059B184607B05DF804FB00B587B00390E8
S21400ABE002910192019B1A4602990020FFF73EFF50
S21400ABF00590019B184607B05DF804FB08B5054BA9
S21400AC001B6898680023022200212AF0F9FB00BF87
S21400AC1008BD00BF880C002082B003468DF80730C0
S21400AC209DF90730002B0CDB9DF8073003F01F0260
S21400AC3005499DF907305B09012000FA02F241F848
S21400AC40232000BF02B0704700E100E082B0034658
S21400AC508DF807309DF90730002B13DB9DF8073081
S21400AC6003F01F0209499DF907305B09012000FA2D
S21400AC7002F2203341F82320BFF34F8F00BFBFF30B
S21400AC806F8F00BF00BF02B0704700BF00E100E05A
S21400AC9082B003468DF807309DF90730002B0DDB98
S21400ACA09DF8073003F01F0206499DF907305B093F
S21400ACB0012000FA02F2603341F8232000BF02B000
S21400ACC0704700BF00E100E000B585B003468DF890
S21400ACD00730FEF76FF903909DF8073001211846FC
S21400ACE001F074F80398FEF771F900BF05B05DF83F
S21400ACF004FB00B585B003468DF80730FEF75AF919
S21400AD0003909DF807300021184601F05FF803987D
S21400AD10FEF75CF900BF05B05DF804FB00B585B032
S21400AD200390029101920093019B5B68002B01D176
S21400AD30222390E0019B9B68002B01D121238AE00F
S21400AD403022002102982AF08EFA019B5A68029B54
S21400AD50DA61019B9A68029B1A62019B1A7B029B2E
S21400AD6083F82420019B9A7B029B83F82520029B74
S21400AD70012283F82620029B012283F82720029BCB
S21400AD80009A1A60029B069A5A60029B079A9A607B
S21400AD90029B089ADA60019B93F90020029B83F8D5
S21400ADA02820019B93F90120029B83F82920039B0E
S21400ADB0029A1A60039B2A4A5A60039B294A9A60A1
S21400ADC0039B294A1A61039B284A5A61039B284A17
S21400ADD0DA60039B274A1A62029B012283F82E2020
S21400ADE0039B254A9A61039B244ADA61029B9DF8DD
S21400ADF0282083F82D20029B9DF8242083F82C2001
S21400AE00029B002283F82B20029B012283F82A2033
S21400AE10019B5B7B1946029800F06EF8019B93F944
S21400AE2001301846FFF734FF019B93F901301846AE
S21400AE30FFF7F2FE019B93F900301846FFF728FF54
S21400AE40019B93F900301846FFF7E6FE039B184671
S21400AE50FFF7E4FD0023184605B05DF804FB00BFCD
S21400AE607DB200009BB20000BFAE0000DDAE000069
S21400AE70CFB0000081AE0000F9AE000071AF000058
S21400AE8084B00190019B0393039B93F82A30DBB2B6
S21400AE90002B10D0039B93F82E30022B0BD1039B74
S21400AEA093F82E308DF80B30039B012283F82E206A
S21400AEB09DF80B3000E00123184604B0704784B0BC
S21400AEC001900B468DF80330019B0393039B9DF87E
S21400AED0032083F8242000BF04B0704784B001909C
S21400AEE0019B0393039B93F824308DF80B309DF859
S21400AEF00B30184604B0704700B585B001900B467D
S21400AF008DF80330019B0393039B93F82B308DF849
S21400AF100B309DF80330002B11D09DF80B3083F0DA
S21400AF200103DBB2002B0AD0039B93F82C301846A3
S21400AF30FFF7CAFE039B012283F82B2014E09DF83E
S21400AF40033083F00103DBB2002B0DD09DF80B30ED
S21400AF50002B09D0039B93F82C301846FFF7C9FE48
S21400AF60039B002283F82B2000BF05B05DF804FB8E
S21400AF7084B00190019B0393039B93F82B308DF8CC
S21400AF800B309DF80B30184604B0704700B585B0FE
S21400AF900190019B0393FEF723F80290039B9A69A6
S21400AFA0039B1B6A9A4204D20298FEF729F80123F3
S21400AFB003E00298FEF724F80023184605B05DF873
S21400AFC004FB00B587B001900B468DF80330019B5B
S21400AFD00593FEF705F80490059B93F82530002BA3
S21400AFE017D09DF80330132B07D1059B002283F85A
S21400AFF026200498FEF704F841E09DF80330112B54
S21400B00007D1059B012283F826200498FDF7F8FF58
S21400B01035E0059BDA69059B5B6913449DF80320C0
S21400B0201A70059B5B695A1C059B5A61059B9B69B8
S21400B0305A1C059B9A61059B5A69059B1B6A9A4296
S21400B04002D1059B00225A610498FDF7D9FF059BA3
S21400B050042283F82E20059B9A69059B1B6A9A4258
S21400B0600DD113238DF80F300DF10F030122194671
S21400B070019800F071F8059B002283F8272007B09E
S21400B0805DF804FB00B585B00190019B0393039B1C
S21400B09093F82A30DBB283F00103DBB2002B12D028
S21400B0A0039B5B68002101989847039B012283F865
S21400B0B02A20039B93F82D301846FFF71AFE039BB1
S21400B0C0022283F82E2000BF05B05DF804FB00B511
S21400B0D087B00190019B0593059B1B680493002392
S21400B0E00393FFF7AFFC0290029A059B9A4202D1A7
S21400B0F00020FFF793FC049B93F928301846FFF7CF
S21400B100C7FD049B93F928301846FFF79FFD049B64
S21400B11093F929301846FFF7BBFD049B93F92930B5
S21400B1201846FFF793FD059B00221A60059B002238
S21400B1305A60059B00229A60059B00221A61059BB7
S21400B14000225A61049BDB68049898470390039B8F
S21400B150184607B05DF804FB00B58DB00390029169
S21400B1600192039B0693029B0B9300238DF81730E6
S21400B17001230A93069B93F824308DF81730FDF7C9
S21400B1802FFF0990069B93F82A30DBB2002B0FD0D6
S21400B1900998FDF735FF069B93F82D301846FFF704
S21400B1A093FDFDF71DFF0990069B002283F82A20D9
S21400B1B00998FDF725FF9DF8173083F00103DBB2F1
S21400B1C0002B26D0002308931EE000238DF81530B0
S21400B1D0069B93F826308DF815309DF81530002B19
S21400B1E012D0069B1B680B9A127811460698984751
S21400B1F00A900A9B002B01D00A9B3BE00B9B013375
S21400B2000B93089B01330893089A019B9A42DCD360
S21400B2102AE00023079323E000238DF81630069BD0
S21400B22093F826308DF816309DF81630002B17D080
S21400B2300B9B1B780A2B05D1069B1B680D210698D5
S21400B24098470A90069B1B680B9A12781146069838
S21400B25098470A900B9B01330B93079B0133079388
S21400B260079A019B9A42D7D3069B5B6801210398F5
S21400B27098470A9B18460DB05DF804FB00B585B0EC
S21400B280039002910192019A02990398FFF764FFD6
S21400B2900023184605B05DF804FB00B589B003909E
S21400B2A0029101920093039B0693029B0793009BD7
S21400B2B000221A600FE00799069800F034F805900F
S21400B2C0059B002B0DD0079B01330793009B1B6843
S21400B2D05A1C009B1A60009B1B68019A9A42EAD887
S21400B2E000E000BF069B93F8273083F00103DBB233
S21400B2F0002B0DD011238DF813300DF1130301220E
S21400B30019460398FFF7BAFF069B012283F8272009
S21400B310009B1B68002B01D11B2300E0002318466E
S21400B32009B05DF804FB00B585B001900091FDF70B
S21400B33057FE0390019B9B690293029B002B04D14E
S21400B3400398FDF75DFE029B22E0019BDA69019BF4
S21400B3501B6913441A78009B1A70019B1B695A1CC0
S21400B360019B1A61019B1A69019B1B6A9A4202D1D2
S21400B370019B00221A61019B9B695A1E019B9A61E0
S21400B3800398FDF73DFE019B9B6801989847029B3A
S21400B390184605B05DF804FB82B001900091019B51
S21400B3A003F500531A46009B936400BF02B0704733
S21400B3B082B001900091019BDA6C009BDB431A403F
S21400B3C0019BDA6400BF02B0704782B00190009122
S21400B3D0019BDA6C009B1A43019BDA6400BF02B043
S21400B3E0704782B00190019B9B69184602B0704777
S21400B3F000B58DB0099008910792069300238DF84A
S21400B4002F3000238DF82E300E990123049301234C
S21400B4100393934B0293934B0193934B0093934B5D
S21400B420089A0998FFF77AFC0A900A9B002B01D02D
S21400B4300A9B11E1069B1A680E9B1A63069B9A8864
S21400B4400E9B9A86069BDA790E9B83F83720069B1E
S21400B4509A790E9B83F83620069B5A7A0E9B83F8C1
S21400B4603920069B1A7A0E9B83F83820069BDA7AD8
S21400B4700E9B83F83B20069B9A7A0E9B83F83A2015
S21400B480069B5A7B0E9B83F83D20069B1A7B0E9BE1
S21400B49083F83C2001213A20FCF740F9069B987976
S21400B4A0069BDB79194601230422FEF7D9F8069B92
S21400B4B0187A069B5B7A194601230222FEF7D0F81B
S21400B4C0069B9B8801211846FCF728F9079B00225B
S21400B4D01A70069B1B6807991846FEF727FB644AF6
S21400B4E0069B9B7B5B01134403F21C6314221A60C9
S21400B4F0069B9B791A46069BDB791B0442EA0301EE
S21400B5005B4A069B9B7B5B01134403F23463196022
S21400B510069B1B7A1A46069B5B7A1B0442EA0301CB
S21400B520534A069B9B7B5B01134403F22C63196012
S21400B5300E9B002283F83E20079B5B7E032B26D8BB
S21400B54001A252F823F000BF93B5000059B50000E1
S21400B55069B5000079B5000001238DF82F300E9BE9
S21400B560012283F83E2015E001238DF82E300E9B35
S21400B570022283F83E200DE001238DF82F300123B0
S21400B5808DF82E300E9B032283F83E2002E0232304
S21400B59062E000BF9DF82F30002B1FD0069B987AE4
S21400B5A0069BDB7A194600230222FEF759F8069B13
S21400B5B09B7A1A46069BDB7A1B0442EA03012C4A56
S21400B5C0069B9B7BB1335B01134404331960069BD7
S21400B5D01B6803F580531A460423D3659DF82E3066
S21400B5E0002B22D0069B187B069B5B7B194600230C
S21400B5F00422FEF735F81E4A069B9B7B5B0113442C
S21400B60003F5B0531C3302221A60069B1B7B1A46B6
S21400B610069B5B7B1B0442EA0301154A069B9B7B49
S21400B620B1335B01134408331960069B9A790E9B6D
S21400B63083F83620069BDA790E9B83F83720069B24
S21400B6401B6804211846FFF7C0FE069B1B680521F1
S21400B6501846FEF737FA002318460DB05DF804FBCF
S21400B6608DB700006FB7000029B70000FFB60000D6
S21400B67000C0034000B585B00190019B0393039B77
S21400B6801B6B9B6903F08003002B1AD00198FFF711
S21400B6907DFC0346002B0ED0039B1B6B1846FEF763
S21400B6A053FB03468DF80B309DF80B301946019876
S21400B6B0FFF787FC05E0039B1B6B04211846FFF78A
S21400B6C077FE039B1B6B9B6C03F00103002B12D0D1
S21400B6D0039B1B6B01211846FFF75EFE039B1B6B4B
S21400B6E01846FFF77EFE034603F02003002B02D029
S21400B6F00198FFF7C7FC00BF05B05DF804FB00B576
S21400B70085B001900B468DF80330019B0393039B95
S21400B7101B6B9DF8032011461846FEF724FB0023FA
S21400B720184605B05DF804FB00B585B001900B46E1
S21400B7308DF80330019B03939DF80330002B06D051
S21400B740039B1B6B01211846FFF73FFE0BE0039B94
S21400B7501B6B01211846FFF72BFE039B1B6B012179
S21400B7601846FFF719FE00BF05B05DF804FB00B5EC
S21400B77085B00190019B0393039B1B6B0421184625
S21400B780FFF723FE00BF05B05DF804FB00B585B0EB
S21400B7900190019B039300BF039B1B6B1846FFF7AA
S21400B7A020FE034603F04003002BF5D0039B93F8DE
S21400B7B03600039B93F83730194600230022FDF726
S21400B7C04FFF039B93F83800039B93F839301946D4
S21400B7D000230022FDF744FF039B93F83E3003F05E
S21400B7E00103002B0AD0039B93F83A00039B93F8BF
S21400B7F03B30194600230022FDF732FF039B93F8E7
S21400B8003E3003F00203002B0AD0039B93F83C0063
S21400B810039B93F83D30194600230022FDF720FFD6
S21400B820039B1B6B00211846FEF74CF9039B9B8E6F
S21400B83000211846FBF772FF0023184605B05DF896
S21400B84004FB0000BFF34F8F00BF064BDB6803F41A
S21400B850E0620449044B1343CB60BFF34F8F00BF35
S21400B86000BFFDE700ED00E00400FA0582B001909D
S21400B870BFF34F8F00BFBFF36F8F00BF064A019B19
S21400B88043F001035360054B5B6A044A43F480337C
S21400B890536200BF02B0704790ED00E000ED00E09C
S21400B8A0BFF34F8F00BFBFF36F8F00BF064B5B6ABF
S21400B8B0054A23F480335362044B5B68034A23F043
S21400B8C00103536000BF704700ED00E090ED00E01C
