:10600000C00A0020896B0000856B0000856B0000D2
:10601000E1970000856B0000856B0000856B000038
:10602000856B0000856B0000856B0000856B0000B0
:10603000856B00009C20030019670000856B000041
:10604000856B0000856B0000856B0000856B000090
:10605000856B0000856B0000856B0000856B000080
:10606000856B0000856B0000856B0000856B000070
:1060700061A70000856B0000856B0000456900008A
:1060800039690000856B0000856B0000856B00009E
:10609000856B0000856B0000856B0000856B000040
:1060A000856B0000856B0000856B0000856B000030
:1060B000856B00001DE80200856B0000DDF1020029
:1060C00095F1020091F10200E9E90200D9F1020024
:1060D00099F10200B1F102009DF102003DF20200CF
:1060E000F1CC0200B9CE02001DF20200856B000067
:1060F000A18D0000856B0000856B0000856B0000A2
:10610000856B0000856B0000856B0000856B0000CF
:10611000856B0000856B0000856B0000856B0000BF
:10612000856B0000856B0000856B0000856B0000AF
:10613000856B0000856B0000856B0000856B00009F
:1061400010B5054C237833B9044B13B1044800E073
:1061500000BF0123237010BDCC0F00200000000001
:10616000186B030008B5034B1BB10349034800E05B
:1061700000BF08BD00000000D00F0020186B030016
:10618000A3F5803A704700BF174B002B08BF134B95
:106190009D46FFF7F5FF00218B460F461348144A32
:1061A000121A29F014FB0E4B002B00D098470D4B10
:1061B000002B00D098470020002104000D000D485E
:1061C000002802D00C4800E000BF29F095FA20001A
:1061D000290000F087FA29F07BFA00BF00000800D0
:1061E0000000000000000000C00A0020CC0F0020CA
:1061F000F8280020000000000000000041F2843375
:1062000010B50D4C238000F06FFC00F06FFC0B4BC1
:1062100022880B49186802F01FFE01220023114654
:10622000104601F0E9FF074B5B6C9B0702D401228B
:10623000054B1A7010BD00BF22100020BC100020BA
:106240009008030000C00340E90F00201C4B70B50C
:106250005B6C9B0712D401211A4B1B4A1B781170EF
:106260008B4213D0194B1A4C1A8823881BB29342C5
:1062700003DD0023144A2380137070BD114B1B787B
:10628000012BEFD1104B1B78002BEBD0104C0F4D96
:1062900023882A881BB29342E7DC22880D4E0E4BDE
:1062A000152103FA82F332780120053A1CF002FC32
:1062B000218833782A880B44053B1BB22380D4E71E
:1062C00000C00340E80F0020E90F0020221000204A
:1062D00024100020211000208809030030B5036835
:1062E000A84A23F47F4323F007039342044689B06E
:1062F00061D00CD9A44A934263D002F10172934257
:1063000003D1B0F80530152B12D009B030BDA2F57D
:10631000002293421FD002F5A0229342F5D1002320
:106320009A489B499B4A03700B70138009B030BD9B
:10633000C379012B40F000810389DBB2012B00F00F
:10634000B081002BE1D1914A9348137009B0BDE8A8
:10635000304000F053BB0DF10D0104A81CF0C0FB50
:106360000446002868D08D4D8D49286802F074FDE0
:106370008C49286802F070FD00F0B6FB00F0B6FB17
:10638000894840F2B5130090884A8949286802F08C
:1063900063FD2346874A8849286802F05DFD204650
:1063A00000F0D0FB8549286802F056FD7C4928683A
:1063B00002F052FDFEE7824BB0F805201A7009B0DA
:1063C00030BD00237349724A704C734823700B80B0
:1063D000137000F013FB02227A4B114618781CF060
:1063E0001FFB0446002890D06C4D6D49286802F0D0
:1063F00033FD6C49286802F02FFD00F075FB00F0BA
:1064000075FB694840F222230090684A6849286871
:1064100002F022FD2346674A6749286802F01CFD06
:10642000204600F08FFB6549286802F015FD5C49A5
:10643000286802F011FDFEE74FF0FF0CFE259DF8E5
:1064400015209DF814308DF818208DF819309DF81E
:1064500013209DF812308DF81A208DF81D309DF80C
:1064600011209DF8103001468DF81E208DF81F3048
:106470000822122006AB8DF81BC08DF81C501CF0B2
:1064800003FB044600282FD14E4D28461CF08EFAFF
:106490000446002800F09E80404D4149286802F0E3
:1064A000DBFC4049286802F0D7FC00F01DFB00F03F
:1064B0001DFB3D4840F2C91300903C4A3C49286806
:1064C00002F0CAFC23463B4A3B49286802F0C4FC60
:1064D000204600F037FB3949286802F0BDFC3049FE
:1064E000286802F0B9FCFEE72C4D2D49286802F01F
:1064F000B3FC2C49286802F0AFFC00F0F5FA00F07C
:10650000F5FA294840F2C5130090284A284928681E
:1065100002F0A2FC2346274A2749286802F09CFC87
:10652000204600F00FFB2549286802F095FC1C4925
:10653000286802F091FCFEE7184D1949286802F01E
:106540008BFC1849286802F087FC00F0CDFA00F0B7
:10655000CDFA154940F2FD130091144A14492868F8
:1065600002F07AFC184A1949286802F075FC1849AB
:10657000E279286802F070FC0949286802F06CFC96
:10658000FEE700BFA0000900A0000601E80F002000
:10659000E90F002024100020EC0F0020BC10002088
:1065A000B4080300B808030078090300C00803001A
:1065B000CC080300D8080300DC080300F40803003B
:1065C00021100020C00A0020080903001009030060
:1065D000280903000DF10E01FA201CF037FAA02261
:1065E00000942346114628781CF0F8F9044638B385
:1065F000304D3149286802F02FFC3049286802F0FC
:106600002BFC00F071FA00F071FA2D4840F2D31320
:1066100000902C4A2C49286802F01EFC23462B4A85
:106620002B49286802F018FC204600F08BFA294913
:10663000286802F011FC2049286802F00DFCFEE7F2
:106640000222287811461CF0EBF9054600283FF499
:106650005CAE184C1849206802F0FEFB1749206810
:1066600002F0FAFB00F040FA00F040FA144840F261
:10667000D9130090134A1449206802F0EDFB2B4611
:10668000124A1349206802F0E7FB284600F05AFA44
:106690001049206802F0E0FB0749206802F0DCFBAB
:1066A000FEE70D4D0D4900790D4A2B7008701370EF
:1066B0002BE600BFBC100020B4080300B80803009C
:1066C00078090300C0080300CC080300D8080300C1
:1066D000DC080300F4080300E80F0020201000206D
:1066E000E90F002008B504F059F8FFF787FD04F022
:1066F00063F8FFF7ABFD03F0DFF9F8E708B508F042
:106700007DFC0AF050F90FF0A5FD0CF0E8FABDE8A9
:10671000084010F01FBB00BF08F0F8BA08B514F02D
:1067200099F81BF09AFA14F09FFC044808F09CF8C2
:10673000BDE80840024808F0C7B800BF24200300A5
:10674000042003000120704700B5C3B008F0F6F93B
:1067500008F01FFA10B943B05DF804FBFFF7F2FF31
:106760000028F8D001A81CF01AF90028F3D101A8DC
:10677000FFF7B4FD43B05DF804FB00BF08B503218B
:10678000802001F007F903214FF4806001F002F945
:1067900003214FF4906001F0FDF809214FF4C0602F
:1067A00001F0F8F809214FF4F06001F0F3F8092145
:1067B0003E2001F0EFF82D20092101F0EBF8002038
:1067C00008BD00BF144B10B51B68C3F30743012B72
:1067D0000DD14FF480230420104A114C526E114900
:1067E000520358BF104A6366086258BF536602F0EE
:1067F000C5F802F05DF802F0E5F802F07DF802F06D
:10680000B7F8FFF7BBFF02F065F800F079FABDE8D2
:10681000104003F057B800BF0080E00F0080004038
:10682000009000400020014000A00040704700BFE1
:1068300008B503F0E3FC02F0C7F802F069FB06F0CC
:1068400029FD02F0F9FEBDE8084000F067B800BF7E
:1068500008B501F0FDFF02F013F8BDE80840FFF7AE
:106860005DBF00BF00F044B9704700BF00F0F2B850
:10687000FFF76ABF704700BF154B2DE9F0419C46FA
:106880004FF0030892B0134B0DF12C0E00930CF156
:106890001C070CF12C06BCE80F00AEE80F009CE8CA
:1068A000070003AD07AC8EE8070097E80F008DF8EE
:1068B000458085E80F0096E80F0084E80F002B461E
:1068C00021460BAA044802F0C1FD12B0BDE8F081D8
:1068D000542003002810002090100020831E012B5C
:1068E0000ED90239012900D970470128FCD80022AD
:1068F000094B05211B691046C3F3401301F07CBC12
:106900000129F1D8044B04221B6905210020C3F39F
:10691000401301F071BC00BF00C0034008B504493A
:10692000044803F0A5F8BDE80840FFF7A5BF00BF85
:10693000140B002068100020014B186802F054BEB0
:1069400090100020014B186802F04EBE90100020FD
:10695000014B1A6A186810479010002001207047F8
:106960000120704710B508F055F9044600F0B4F85E
:10697000002808BF0024FFF7F1FF002814BF2046BD
:10698000002010BD38B503F0C7F9044608F050F9EF
:1069900004281ED0022808BF0124FFF7D9FF0428CD
:1069A0004FF000051BD0022808BF012400F08AF830
:1069B00004281AD0022808BF0124FFF7D1FF0428B9
:1069C00019D0022808BF0124002D18BF002420463A
:1069D00038BDFFF7BDFF04284FF00105E3D100F0FB
:1069E00071F804284FF00105E4D1FFF7B9FF04283E
:1069F0004FF00105E5D10024204638BD08B310B59D
:106A0000044603F065FC114A136843B19C4202D16D
:106A100019E09C4205D01A465B6A002BF9D1002090
:106A200010BD636A536294F82830002BF7D001F050
:106A3000D3F9074A1368013B136001F0D3F9002032
:106A400010BD22207047636A1360ECE7B410002089
:106A5000B8100020F8B5194D2B68EBB1184F3C6801
:106A6000D4B1002601E0646AB4B194F82830002B58
:106A7000F9D001F0B1F92B6884F82860013B2B6054
:106A800001F0B0F994F829303BB1D4E90731204640
:106A90009847646A002CE8D1F8BD3B68002BF4D01D
:106AA000A34208D01A465B6A002BEED0A342F9D16C
:106AB000636A5362E9E7636A3B60E6E7B810002067
:106AC000B4100020034B1B68002B0CBF01200420D6
:106AD000704700BFB8100020024B1868B0FA80F071
:106AE00040097047B8100020704700BF704700BFD2
:106AF00008B54FF0000E04214FF0010C1F22074B88
:106B0000074883F800E0074B80F800C01970064B77
:106B10001A7002F053F9054B186008BDC010002030
:106B20001C0B00201D0B00201E0B0020BC100020A1
:106B3000024B0349186802F08FB900BFBC10002057
:106B40009020030070B50C4C0C490646206802F0FA
:106B500083F902F033F90546206802F023F9304644
:106B6000FFF7E6FF284602F01DF920680449BDE85A
:106B7000704002F071B900BFBC10002094200300E7
:106B800098200300FEE700BF08B500F01BF80A4A92
:106B90000A498A420DD20A4801390346891A21F06E
:106BA00003010431014453F8040B8B4242F8040BF7
:106BB000F9D1FFF7E9FA00BFC00A0020CC0F00208E
:106BC000206B0300044B054A9A60D3F8882042F4F6
:106BD0007002C3F88820704700ED00E000600000FC
:106BE000014B1868704700BF240B0020094B1B6F36
:106BF00003F00703022B09D0032B04D0012B00D094
:106C0000FEE705487047054B18687047044B186845
:106C1000704700BF00800040002D3101280B00208C
:106C2000240B00200D4B1B6F03F00703022B12D027
:106C3000032B0DD0012B00D0FEE7094B0749094A71
:106C4000086FC0F303300130B3FBF0F01060704701
:106C5000054B1B68F2E7054B1B68EFE7008000401F
:106C6000002D3101200B0020280B0020240B0020D8
:106C70000048704700B4C404014B1868704700BF57
:106C8000280B0020054A064B10601B6F03F007031A
:106C9000032B00D07047FFF7C5BF00BF280B0020B3
:106CA000008000400020704700487047002D3101EF
:106CB0004FF40040704700BF4FF47A70704700BF38
:106CC000014B1868704700BF2C0B002000230360A5
:106CD000704700BF03680B6001607047064910B43D
:106CE0000A68064C1044A0428CBF4FF0FF32086087
:106CF0005DF8044B10467047300B002000800020E8
:106D0000024A034B1168186820F080BE380B00203F
:106D1000340B0020704700BF30B5920083B00446AA
:106D20000D46019229F0ACFD431C0FD058B92946FD
:106D30002046019A28F014FD064B00280CBF0020C5
:106D4000184603B030BD044803B030BD034803B05B
:106D500030BD00BF10E000F024E000F021E000F0C2
:106D600010B582B0044601A801F070FB4FF48071A9
:106D700001220020074B61809B689DF806C00A3302
:106D800003F01F0302FA03F3A4F800C0636002B02B
:106D900010BD00BF0080E00F01F0AABA08B501F0F5
:106DA00093FA002008BD00BF10B5044629F058FD35
:106DB000431C17D0A0B901200C4B9B680A3303F089
:106DC0001F03984080080AD0231F03EB800001E0D6
:106DD000834209D053F8042F0132F9D0044810BD82
:106DE000044810BD044810BD002010BD0080E00F15
:106DF0000EE000F024E000F021E000F008B50B46C2
:106E00000143890706D001469200184628F0B8FCD5
:106E1000002008BD002AFBD0043B50F8041B013AB7
:106E200043F8041FF9D1002008BD00BF08B500F0E9
:106E3000CBFF014B186008BD58170020014B1868A4
:106E400000F0C6BF581700200A460139014402F07D
:106E50006BBC00BFF0B44FF4003741F671350F4EF4
:106E60000F4AB766126F0F4BC2F3033202FB0000EA
:106E70000D4CDA69DD639B68A04202F4803223F492
:106E8000401303D9012918BF43F4801305498B60CF
:106E90000AB10023CB63F0BC704700BF00900040F4
:106EA0000080004000000340005A620238B5174BD2
:106EB0000546D3F824310C4603F00703013B052BAC
:106EC00020D8DFE803F00B0F13171B03FFF7D4FEE6
:106ED000042305B1286004B1237038BDFFF780FE9C
:106EE0000523F6E7FFF7C8FE0323F2E7FFF7DCFE12
:106EF0000223EEE7FFF7D6FE0723EAE7FFF770FE6F
:106F00000623E6E700231846E3E700BF00800040C1
:106F100038B5134B0546D3F800320C4603F007038F
:106F2000013B032B18D8DFE803F00F130B02FFF728
:106F300079FE0E23800A05B1286004B1237038BDA4
:106F4000FFF7BAFE0B23F6E7FFF7B2FE0923F2E7DD
:106F5000FFF7B6FE0823EEE700231846EBE700BF75
:106F60000080004070B54FF40036FFF781FE41F617
:106F700071340D4D0D4AAE66126F0D4BC2F30332E4
:106F800002FB0000DA69DC630A499B68884223F44B
:106F90004013074988BF43F4801302F480328B60AA
:106FA0000AB10023CB6370BD009000400080004018
:106FB00000000340005A6202B0F5207F21D005D8BE
:106FC000B0F5007F16D00BD901207047B0F5607F77
:106FD000FAD10F4BD3F88000C0F301100130704795
:106FE00010B1B0F5C07FEFD1094B186FC0F303307B
:106FF00001307047064BD3F89000C0F304600130B5
:107000007047034B186FC0F380200130704700BFFA
:1070100000800040420913D0012A1FD010B4154B44
:10702000154C00F01F00022A18BF234699B903F53A
:107030000053012202FA00F05DF8044B186070471B
:10704000134600F01F0071B1012203F5805302FACC
:1070500000F01860704703F58053EAE7074B00F033
:107060001F000029F0D1012203F5005302FA00F0BD
:107070001860704768800040608200406480004073
:10708000002300B5B0F5807F83B0019300F2F1805A
:107090001F2840F2E7802038E02800F2E680DFE891
:1070A00010F06E0160016E0160012D012D012D01B6
:1070B0002D0160016001AA01740120018B0174019E
:1070C000600160016001E400E400E400E400E40029
:1070D000E4004D019101600160016001F9007F0150
:1070E0006001E400E400E400E400E400E400E40003
:1070F000E400E400E400E400E400E4006E01E400E5
:107100006E016E016E012D01E400E400E400E40074
:10711000E400E400E400E400E400E400E400E4004F
:10712000E4006E016E01E400E400E400E400E40029
:10713000E400E400E400E400E400E400E400E4002F
:10714000E400E400E400E400E400E400E400E4001F
:10715000E400E400E400E400E400E400E400E4000F
:10716000E4008801E400E400E400E400E400E4005A
:10717000E400E400E400E400E400E400E400E400EF
:10718000E400E400E400E400E400E400E400E400DF
:10719000E400E400E400E400E400E400E400E400CF
:1071A000E400E400E400E400E400E400E400E400BF
:1071B000E400E400E400E400E400E400E400E400AF
:1071C000E400E400E400E400E400E400E400E4009F
:1071D000E400E400E400E400E400E400E400E4008F
:1071E000E400E400E400E400E400E400E400E4007F
:1071F000E400E400E400E400E400E400E400E4006F
:10720000E400E400E400E400E400E400E400E4005E
:10721000E400E400E400E400E400E400E400E4004E
:10722000E400E400E400E400E400E400E400E4003E
:10723000E400E400E400E400E400E400E400E4002E
:10724000E400E400E400E400E400E400E400E4001E
:10725000E400E400E400E400E400E400E400E4000E
:10726000E4009701002800F08A80002003B05DF858
:1072700004FBB0F5906F00F0A58019D9B0F5D06F80
:1072800000F09A8026D9B0F5E06F00F08980B0F563
:10729000F06FEAD1634BD3F8603103F00303022BA4
:1072A00026D0032B6ED0012BDFD1FFF701FDDDE7E8
:1072B000B0F5407F69D030D9B0F5607F1BD1FFF7C2
:1072C00095FC584BD3F88030C3F301130133B0FB66
:1072D000F3F0CBE7B0F5B06F00F08D80B0F5C06F84
:1072E00029D1504BD3F8403103F00303022BD8D1FE
:1072F000FFF7E6FCBAE7B0F5806FB6D1494BD3F89B
:10730000203103F00303022B00F08980032B7CD093
:10731000012BAAD1FFF764FCA8E7B0F5007F1DD1CF
:10732000FFF764FC3F4BD3F89030C3F304630133A1
:10733000B0FBF3F09AE7B0F5A06F96D1394AD2F8D6
:10734000203203F00303012B62D0022B8DD1D2F83F
:10735000403103F00303022BA3D1C9E7B0F5207F2E
:1073600009D1FFF75FFC2F4B1B6FC3F38023013361
:10737000B0FBF3F07AE7B0F5C07F7FF476AFFFF7AC
:1073800051FC73E7FFF798FC70E7FFF74BFC254BC8
:107390001B6FC3F380230133B0FBF3F0400865E7B4
:1073A000204BD3F8403203F00303022B7FF479AF74
:1073B0009EE7FFF71BFC59E701A80021FFF7A8FD96
:1073C000019853E701A80021FFF770FD01984DE7F0
:1073D0004FF0E023186910F00400D0D1114BD3F81E
:1073E000403103F00303022B82D0032BCAD0012BC0
:1073F0007FF43CAF59E70B4AD2F8803103F0030326
:10740000012B05D0022B7FF430AFFFF74DFC2DE7A9
:10741000D2F8203103F00303022B7FF477AFFFF79C
:107420002BFC23E700800040002310B5B0F5807FDF
:1074300082B08DF8073000F092801AD9B0F5D06F85
:1074400000F0BB8036D9B0F5006F71D058D9B0F5D7
:10745000086F45D17A4BD3F8003103F00303022BB8
:107460005BD0032B00F0D080012B00F0C580012001
:1074700037E0522837D8232832D924382E282FD85D
:10748000DFE800F05E5E5E5E2E2E862E239B2E2EA3
:107490002E2E2E2E2E2E2E2EA32E2E2E2E44932E1C
:1074A0002E2E2E2E2E2E2E2E2E2E2E2E2E2E2E2EFC
:1074B0002E2E5E00B0F5A06F00F0878032D9B0F5B7
:1074C000B06F65D0B0F5C06F0AD15D4BD3F84031D5
:1074D00003F00303022B20D0032B55D0012B4FD0F8
:1074E000002002B010BD8028FAD1554B1B6F03F06D
:1074F0000703013B032BF3D8DFE803F0552F808807
:10750000B0F5E06F51D0B0F5F06FE9D14C4BD3F846
:10751000603103F00303022BDED1FFF7D1FB08201B
:1075200002B010BDB0F5806F0AD0B0F5906FD7D122
:1075300000200DF10701FFF7B9FC9DF80700D0E727
:107540003F4BD3F8203103F00303022B54D0032B1D
:1075500027D0012BC4D1FFF743FB0520C1E74FF033
:10756000E023186910F004004AD1354BD3F84031BC
:1075700003F00303022BD0D0032B05D0012BB0D195
:10758000FFF796FB0920ACE7FFF796FB0B20A8E777
:107590002B4BD3F8804104F00304012C38D0022C8B
:1075A0009ED1FFF781FB02209BE7254BD3F84032A9
:1075B00003F00303022B8FD1AFE700200DF1070189
:1075C000FFF7A6FC9DF807008BE71D4AD2F8203292
:1075D00003F00303012B09D0022B81D1D2F84031F3
:1075E00003F00303022B7FF477AF96E7D2F8203144
:1075F00003F00303022BAAD1FFF73EFB032070E741
:10760000FFF710FB0C206CE7FFF74CFB072068E747
:10761000D3F8203103F00303022B0DD0032B07D046
:10762000012B01D00F205CE7FFF7DAFA0F2058E7B3
:10763000FFF73AFB0F2054E7FFF71EFB0F2050E740
:107640000080004008B5FFF7EFFE082811D0093888
:10765000C0B2012810D84FF40011094A094B5166F5
:107660005B6A4FF6FF7013F0010F18BF4FF4FA700A
:1076700008BD054B188808BD4FF6FF7008BD00BF58
:107680000090004000400240580B002038B50446EE
:107690008020FFF7C9FE032854D04FF4002545F69B
:1076A0000E0302200121424A556602F54052C2F8FB
:1076B0008030404B986203F580539962936DD903F3
:1076C000FCD463782078A1791B0543EA0063E07855
:1076D0000B43217943EA004343EA0133617943EAEA
:1076E000811313619369E07AE17903F00043034366
:1076F000207A43EA8163617A43EA006343EA014303
:10770000A17A43EA01239361136A617B23F00D039D
:10771000C9B1207B43EA80030B4343F008031362A3
:10772000936A607CA17B23F03303034343EA411354
:10773000217C43EA41039362A37C1BB11E4B1F4A89
:10774000C3F8802038BD207BE17B43EA80031362CD
:10775000906AA57B0B0143EA451320F033010B43EC
:1077600043F001031449164893628B6D30EA03031A
:10777000FBD102230F48104A83620B65936D5B00B7
:10778000FCD44FF000401369A17823F4700343EA5E
:10779000015313610749237C886113B90222094B05
:1077A0009A62637C002BC7D10122064B9A62C3E721
:1077B0000090004000D0004000C00040F1A7FFFF53
:1077C0000300014000E00040014B93F900007047C6
:1077D0000C18002010B502234FF400141849194A60
:1077E0004C665360936813F48033FBD1012804D0B6
:1077F00053620022134B5A6010BDFFF73DFA124B43
:10780000984215D003F5122303F5F863984213D07C
:107810000E4B00EB8002400AB3FBF0F0520A094B1A
:107820000121DA62002218635962064B5A6010BDCA
:1078300045F67A10064AF2E745F61A00054AEEE7E1
:10784000009000400040024000F049026466666615
:10785000D8B80500BBCF0500002916DD10B44FF4E1
:10786000003441F671320A480A4B0B498466096FAD
:10787000D969DA639A6822F440129A60CA0301D582
:107880000022DA635DF8044B70470021FFF7E2BA8B
:10789000009000400000034000800040B0F5207FD1
:1078A00038B50C4662D048D8B0F5007F53D043D8E5
:1078B00010B1B0F5C07F3FD14FF48035FFF7D8F954
:1078C0000021FFF7C7FA2E4B2E481A6F611E42F4B3
:1078D00080621A6705671C6F24F4704444EA013122
:1078E0001967FFF79FF94FF04022D2F8844014F057
:1078F0001004FAD1D2F88410C1F38111C1F1020150
:10790000FFF7AAFF4FF4C070FFF7BAFB84461E4989
:107910001B4A8C4588BF4FF48064136F802023F48A
:10792000806323431367FFF7ABFB184B984203D8E0
:107930004FF48032164B1A6738BDB0F5607FFBD12B
:107940000F4B0139D3F8804024F0300444EA011190
:10795000C3F8801038BD0A4B0139D3F8904024F0A9
:10796000F85444EA0161C3F8901038BD044B013962
:107970001C6F24F4806444EA8121196738BD00BF7C
:10798000008000400090004080F0FA02005A62023D
:1079900000A00040B0F5807F70B50C4600F03E813D
:1079A00056D9B0F5D06F00F0278132D9B0F5006F0D
:1079B00000F0BD8014D9B0F5086F10D1CC1EE4B230
:1079C000052C8CBF0021AD4BAD4A98BF53F8241055
:1079D000D2F8003123F003030B43C2F8003170BD2D
:1079E000B0F5E06F00F0E680B0F5F06FF7D1083C3D
:1079F000E4B2032C8CBF0021A24BA14A98BF53F8DC
:107A00002410D2F8603123F003030B43C2F8603135
:107A100070BDB0F5A06F00F0DF8040F28180B0F55E
:107A2000B06F00F0B780B0F5C06FD8D1083CE4B2B9
:107A3000032C8CBF0021944B914A98BF53F824101B
:107A4000D2F8403123F003030B43C2F8403170BD3C
:107A500052287ED82328C2D924382E28BFD801A383
:107A600053F820F0717B0000717B0000717B0000F7
:107A7000717B0000DF790000DF790000957B00005A
:107A8000DF7900002D7A0000F97B0000DF7900002B
:107A9000DF790000DF790000DF790000DF79000086
:107AA000DF790000DF790000DF790000DF79000076
:107AB000DF790000D97B0000DF790000DF7900006A
:107AC000DF790000DF790000EF790000B57B00006E
:107AD000DF790000DF790000DF790000DF79000046
:107AE000DF790000DF790000DF790000DF79000036
:107AF000DF790000DF790000DF790000DF79000026
:107B0000DF790000DF790000DF790000DF79000015
:107B1000DF790000DF790000DF790000717B000071
:107B2000B0F5806F24D0B0F5906F7FF458AF023C71
:107B3000E4B2052C8CBF0021544B514A98BF53F836
:107B40002410D2F8243123F007030B43C2F8243168
:107B500070BD80287FF443AF8B1E052B00F203819C
:107B6000DFE813F0FE00F100010104010101A200B1
:107B7000023CE4B2032C8CBF0021454B404A98BF25
:107B800053F82410D2F8203123F003030B43C2F83A
:107B9000203170BD022C04D0A4F10F04B4FA84F497
:107BA0006409374AD2F8803123F003031C43C2F83A
:107BB000804170BD083CE4B2032C8CBF0021354BE2
:107BC0002F4A98BF53F82410D2F8403223F0030311
:107BD0000B43C2F8403270BD0F2C00F0E080102C37
:107BE00014BF00210221264AD2F8203223F00303D9
:107BF0000B43C2F8203270BD083CE4B2062C8CBFA7
:107C00000021254B1E4A98BF53F82410D2F80032A9
:107C100023F007030B43C2F8003270BDA1F1080442
:107C2000082C3FF6DCAE01A353F824F0517C000091
:107C3000517C0000DF790000517C0000737D000062
:107C4000DF790000DF790000DF790000517C00005F
:107C50004FF48031114B0A48114A406E5966136A3D
:107C600043F001031362C2034FF0E0225CBF0D4BEF
:107C70005966136923F00403136170BD5421030096
:107C80000080004010210300102103002021030088
:107C90000021030010210300382103000090004060
:107CA00000C0074000A0004000260425012102205A
:107CB00000F09EF9FFF756F94FF48031394A136FFF
:107CC00043F480631367384B1967136F23F007037E
:107CD0002B431367FEF7A6FF4FF04022D2F88450E3
:107CE00015F01005FAD1D2F88410C1F38111C1F159
:107CF0000201FFF7B1FD0121284600F0D1F94FF450
:107D0000C070FFF7BDF984462849264A8C4588BFD4
:107D10004FF48065136F802023F480632B43136737
:107D2000FFF7AEF9224B984203D84FF48032214B33
:107D30001A67002E7FF453AE032C7FF450AE01225D
:107D40001D4B9A6270BD4FF40026012216481B4954
:107D500046668E6A1A4B03259A62C6F34006A5E76B
:107D600000260125A2E7002635469FE700260225CA
:107D70009CE74FF480310C4B0A48124A406E59661A
:107D8000136A23F0010313624FF0E022C3035CBFC8
:107D9000084B5966136943F00403136170BD012158
:107DA00021E700BF008000400090004080F0FA0210
:107DB000005A620200A0004000E0004000C0004005
:107DC00000D0004000C00740EFF3108072B670474B
:107DD00000B962B6704700BFEFF31180302383F320
:107DE0001188704780F31188704700BF38B51A4B6F
:107DF0001B681BB1194A5268012A00D138BD184AC4
:107E00008020C2F80031FFF70FFB052803D00122C4
:107E1000144B5A6038BD4FF4C070FFF7CDF80128FD
:107E2000044612D0072501210F480E4B0B4A05616D
:107E300059601369DB07FCD5012CDFD12146BDE871
:107E400038404FF4C070FFF729BD02214FF4C070D5
:107E5000FFF724FDE6E700BF1018002000C0014036
:107E60000080004000D0014000E001404FF040227F
:107E7000536F417823F4407343EA012353677047FB
:107E8000704700BF704700BF38B5B0B91E4A1369CC
:107E900043F00403136102F00FF8FFF7F1FFFFF75F
:107EA00093FF28F0E5FCFFF793FFFFF7EBFF02F0ED
:107EB00017F8BDE83840FEF7B5BE4FF40030002497
:107EC0001249134B134A1C6048665268124D012A2E
:107ED00004BFD5F800211A600B4A136943F004036C
:107EE000136101F0E9FFFFF7CBFFFFF76DFF28F00B
:107EF000BFFCFFF76DFFFFF7C5FF01F0F1FFBDE825
:107F00003840FFF773BF00BF00ED00E00090004075
:107F10001018002000C001400080004038B590B922
:107F20001A4A136943F00403136101F0C5FFFFF718
:107F30004BFF28F09DFCFFF74BFF01F0D1FFBDE8A0
:107F40003840FEF76FBE4FF4003000241049114B4B
:107F5000114A1C6048665268104D012A04BFD5F8CA
:107F600000211A60094A136943F00403136101F008
:107F7000A3FFFFF729FF28F07BFCFFF729FF01F0A3
:107F8000AFFFBDE83840FFF731BF00BF00ED00E0B4
:107F9000009000401018002000C001400080004008
:107FA00030B44FF400300024064B0749074A1C60E8
:107FB00048665268012A03D1054DD5F800211A60A0
:107FC00030BC7047101800200090004000C00140F5
:107FD00000800040FFF70ABF4FF04022D36E0179C6
:107FE00023F030030B43D366704700BF704700BFD8
:107FF000F8B54FF040240546D4F88430DE06FBD4B3
:10800000D4F88430C3F381139D4227D0FEF7EEFDF0
:10801000012D074629D0FFF7D7FE4FF000721F4B06
:1080200006465A662846FFF7E1FF4FF480636A1E52
:1080300093402367636E98010BD44FF0402304E014
:10804000D3F884205A6E910103D4D3F88420920689
:10805000F6D53046FFF7BCFE022D00D0F8BD3846FD
:10806000BDE8F8400021FFF7F7BB2946FFF7F4FB16
:10807000FFF7AAFE4FF00072084B06465A662846E4
:10808000FFF7B4FF4FF480632367636E9C01D4D580
:108090003046BDE8F840FFF79BBE00BF00600040DF
:1080A00010B50C4680B10A4B21461B7813B1094B21
:1080B000984204D9BDE810400220FFF799BF012083
:1080C000BDE81040FFF794BFFEF790FDEBE700BF5F
:1080D00014180020005A6202037810B5094C23706E
:1080E000FEF784FD2378012113B1074B984204D990
:1080F000BDE810400220FFF77BBF0846BDE81040F6
:10810000FFF776BF14180020005A620270B40122F3
:108110004FF000464AF6CD341349144D144B6E66A9
:108120004A60596C1C64114080B99868C40704D532
:1081300010488260DA6AD007FCD501220D4B5A60E4
:1081400011B10B4B0C4A1A6470BC7047DA6A120703
:10815000FCD420250120074C034B054A656298603A
:10816000536A9B06FCD5EBE70050094000900040A5
:1081700000400940006009403254FFFF38B54FF01D
:10818000004401254AF6CD334FF04021164A54668B
:10819000164C02F50B226560556C1364437805F0AC
:1081A00001055B0043F00103CB6393688178C278DB
:1081B00023F0740343EA01130AB143F004030C4CA7
:1081C000A3600279837943EA022323614279C37968
:1081D00043EA022363610078FFF798FF0DB1054B76
:1081E0002364012038BD00BF0090004000500940CA
:1081F000004009403254FFFF2DE9F04705460E4686
:1082000017469846002A45D14400072E28D8DFF8A3
:10821000B09063191B019944FFF7D6FD0F23D9F8DD
:1082200000104FEA860C07FA0CF24A4003FA0CF3EE
:1082300013404B40C9F80030FFF7CAFD77B9012160
:10824000B8F1000F39D142F210032C44240104F19B
:10825000804404F5703401FA06F6E650BDE8F08774
:108260006319DFF860901B019944A6F108034FEAF7
:10827000830AFFF7A9FD0F23D9F8001007FA0AF2C5
:108280004A4003FA0AF313404B40C9F80030FFF7A5
:108290009FFDD3E701226BB942F2100105EB4503C4
:1082A0001B0103F1804303F5703305FA02F4B24079
:1082B0005A50AAE741F21001F0E741F21003C4E777
:1082C00004C003400CC0034030B441F671304FF499
:1082D00000350121044B054C03F50052A566D86317
:1082E00030BCD160704700BF0000034000900040E8
:1082F00030B4002041F6713501244FF40031054BB4
:10830000054A03F5005CDD63CCF80C40D86330BC53
:10831000916670470000034000A00040CB784A7887
:1083200091F800C05B0143EA82030A7943EA0C0337
:1083300043EA021300EB4002920002F19042BCF1CA
:10834000010F136303D1024B8A7843F82020704752
:10835000E88003404FF090435A68002A32D1002849
:1083600034D05B68F3B14FF0904301E09A6A12B1E8
:108370005A68002AFAD1A8B94FF0904301E09A6AEE
:1083800012B15A68002AFAD14FF090430222DA6003
:1083900001E09A6A12B15A68002AFAD101220C4B04
:1083A0005A60704701210B4A4FF09043516001E041
:1083B0009A6A12B15A68002AFAD14FF0904301220A
:1083C000DA6070475B68002BD5D0CCE7704700BF00
:1083D00000200048001000484FF090435A6830B524
:1083E0005ABB01218278C378002A027814BF4FF06B
:1083F000020E4FF0000E002B14BF4FF0040C4FF094
:10840000000C002A18BF0C464FF0904208BF02240F
:108410000C4B596043790579DB00407843EA05133A
:10842000034343EA0E03084843EA0C0393604160A8
:10843000D46030BD9A6A002AD3D05A68002AF9D194
:10844000CFE700BF00200048001000484FF4803103
:10845000064A074B51665B69C3F3851103F03F027F
:108460001B0B817042700370704700BF009000408A
:1084700000C0074070B5054616461C4611B3402C97
:1084800027D019D8E4B1202C08BF082313D103FB4F
:1084900006F24FEA520C0CEB4113B3FBF2F3A9685E
:1084A0000D4A21F06001A960A968203B0C4302EA53
:1084B000C303AC60EB6170BD602CFCD10423E6E724
:1084C0001023E4E74FF42070FEF7DAFD402C01465C
:1084D000D7D10623DBE700BFF8FF7F000122CB43A3
:1084E000934000F5805C03F00A03CCF8042043615C
:1084F000416111B900F50050426070472DE9F0412B
:10850000002341F205074FF0010840F6AA6E4F4ADA
:10851000DFF840C100F58056C6F804809042C0F8EC
:1085200014E08360C365C76000F50057036104462B
:10853000C3610D46C364C7F848C083655ED002F5C9
:10854000804290425AD00123AA7C7B6073601AB1AA
:10855000A36843F08043A360EB7C73B13B4B2A7D5F
:108560009C426BD03A4B9C4204BFA3F52033C3F826
:108570009C21E36D43F08003E3652A8A6B7B2046F0
:108580001343EA891343E3602B7BD5E90112FFF71C
:1085900071FF6B7D1BB1A36843F48033A360AB7D97
:1085A0001BB1A36843F40043A360EB7D2A7E1B0745
:1085B000120502F4E00203F0E0431343A3656A7E70
:1085C000931E012B214B1DD99C4235D003F58043CE
:1085D0009C420CBF01234FF0FF3342F21C6102208A
:1085E0005B0103F1804303F57033012A58501DD11C
:1085F0000423F3652B786361BDE8F08123650023D4
:108600006365A0E79C421ED003F580439C420CBFEB
:1086100001234FF0FF3341F21C6102205B0103F1A3
:10862000804303F57033032A5850E1D00423FB65DF
:108630002B786361BDE8F0810023CEE7A3F510330A
:10864000C3F88C2195E70023E5E700BF00C0054093
:1086500000000640FFFF010083691B06FCD5406A4D
:10866000C0B2704783695B06FCD5C163704700BF29
:1086700047F6FF739A4273D0022949D82DE9F04199
:10868000384DCE0015F8313005EBC104012B94F8BC
:1086900002E04DD06068002838D0B0F900C09445A1
:1086A00038DA8388FF2B3DD02822C8210023A1EB94
:1086B0000C0191FBF2F135446D780B44691E99422F
:1086C00028BF1946284E00EBC10202E0BF899F4235
:1086D00012D39768D3880C461CFB037323EAE37319
:1086E00003F5FA73A6FB038301318D4217464FEA67
:1086F000931302F10802E9D800EBC4008088984285
:1087000028BF1846704538BF7046C0B2BDE8F0813A
:1087100000207047B0F902C083889445B8BF9446E2
:10872000FF2BC1D10123B0F90610B0F90820BEE734
:10873000E1780023A1EB0E0107E0606830F91C002E
:108740009042D4BF63460CF1FF31A1EB030C8B4286
:10875000A1EB5C0CF1D30EEB0100C0B2BDE8F081DF
:10876000FF20704718180020D34D6210022967D8E7
:10877000354BF0B513F83100012844D003EBC101AB
:108780004C68002C5ED08B78934239D2CB789342E0
:108790004FD9A38891F801E0A3F1FF03B3FA83F363
:1087A0000EF1FF3E5B095FFA8EFE734504F104078C
:1087B0000DD296B204F10C0502E0E6450B463DD918
:1087C00035F83300591CB0425FFA81FCF5D24FF402
:1087D0007A7606FB02F207EBC303B3F902105B687B
:1087E00001EBD175D31A03EB650393FBF1F3B4F9F5
:1087F0000000984203DBB4F9020098421CDDF0BD92
:10880000B4F90200F0BD03EBC100C4788578C9005B
:10881000944294BFC5EB0400C5EB0200641BC2B2D6
:10882000A242C8BF002219444B68D8BF5200985ECC
:10883000F0BDB4F90000F0BD18B2F0BD6346C6E764
:10884000024870470148F0BD181800200080FFFF63
:1088500010B5094C204620F023FAA446074CBCE88A
:108860000F000FC49CE8030084E80300BDE810403B
:10887000012020F017BA00BF6C2103001818002057
:1088800010B54FF00072052302240748074986B04F
:10889000CDE9020101A94FF0FF30CDE90423019495
:1088A00020F066FA06B010BD006A1800000204004D
:1088B00000B583B06B46064A92E8030083E80300E4
:1088C0001846FFF75BFC002003B05DF804FB00BF17
:1088D000F02103004FF0402210B50024536F82B006
:1088E00043F001035367684600948DF80440FFF796
:1088F00073FB204602B010BD70B5194C194D86B0FF
:108900000DF1040CD5F84C610FCCACE80F002368D6
:108910002CF8023B1B0C8CF80030330316D4D5F82E
:108920005041E4B223468DF80E30FEF74DFF03466A
:108930001C440D4884F308048DF80D40FEF7A2F99D
:1089400001A8FEF7A3FE002006B070BD4FF6FF732E
:10895000064A14889C420ABF8C23E3B21C46E2E715
:10896000F82103000080E00F00F049020001E00F51
:1089700008B50120FEF72EFF002008BD30B5FC2110
:10898000FB234FF0500E0D4D0D4C05E040298CF8A7
:1089900000E311D0C3B2D1B25AB2002A04EB020CE8
:1089A00003F1010001F10102F0DA03F00F03043BCF
:1089B0002B4483F818E0EDE7002030BD00ED00E027
:1089C00000E100E000F086B8F8B501F017FC0446BD
:1089D00008B12046F8BD01F00DFD4FF4167200FB02
:1089E00002F2DFF840C002F5742202F23F22ACFB33
:1089F0000202094D094F0A4B920C2E6803F128011F
:108A00003A6043F8042B8B42FBD102EBC2033244A1
:108A10001A4420462A60F8BD381800206C1800203F
:108A20003C18002083DE1B43704700BF012208B5BD
:108A3000034B1A7001F0D2FC024B186008BD00BF56
:108A4000341800206818002070B5174C237803B93B
:108A500070BD01F0C3FC154B00211A68144D801A3B
:108A6000012838BF01202B7821701249124C51F88F
:108A7000232041F823000133D9B22368121A9B1A2C
:108A8000236003F109020D4B0D4EA3FB0242A3FB31
:108A90000143DB08306003EB83030A48D208A1EBF3
:108AA000430302602B7070BD34180020681800204A
:108AB000641800203C18002038180020CDCCCCCC05
:108AC000301800206C180020014B1868704700BF58
:108AD0006C18002030B54FF480504FF0200E4FF44A
:108AE00000250949094B0A4A0A4C81F82CE303F591
:108AF000005C03446566CCF87420CCF87020C1F8A3
:108B0000840148605A6730BD00E100E000C00040C9
:108B1000010000A000900040054B064A1978936DB3
:108B2000DB0702D509B9012070470028F7D170474B
:108B30008418002000C000402DE9F84F8A4B1C6FBC
:108B40009E6A9D6AE10706F0020605F0010549D517
:108B50000127864A864992F800800F67B8F1000F16
:108B600000F0E48000201070824A1278BA4200F2CD
:108B7000E5808F620221804A91629A6DD203FCD413
:108B80007E495A6B096822F470620A435A637C4832
:108B90007C4A99690068126821F47F0121F47F41C1
:108BA00002430A439A617848784A19691268006852
:108BB00021F47F6121F00F0102430A431A617449D5
:108BC0009A69096822F0FF020A439A610222002E84
:108BD00040F0C680664B9A620122002D00F0BD80F5
:108BE000654B9A6214F0005374D04FF0010E4FF0B1
:108BF00002094FF00048DFF878C15E49CCF87030C8
:108C00005A4B594A83F800E00B78DFF884A173448B
:108C10000B70516B594B01F4706018609069594B9F
:108C200000F47F4018609769554B07F47F071F6079
:108C30009369DFF854B1DBB2CAF800301369DFF88A
:108C40004CA103F47C63CAF800301369DFF828A153
:108C500003F03F03CBF80030CCF828E0CAF82890A6
:108C6000CAF82880936DDB03FCD421F4706141F4D1
:108C7000007151634FF000423D4BB0F5C84F9A620E
:108C80002CD9394A43499369096823F47F0323F4B3
:108C90007F4343EA012343EA01439361324A3E4959
:108CA0001369096823F47F6323F00F0343EA9103F8
:108CB000880843EA80131361936923F0FF030B4391
:108CC00093610222002E2ED1294B9A6201223DB3DC
:108CD000294B9A62002C05DBBDE8F88FB7F5C80F69
:108CE000DCD9CEE74FF000412C4A214B12781967AE
:108CF000002AF1D0012402201F491B4A9C6288628D
:108D0000936DDB03FCD44FF000421B4B9A610222AF
:108D1000CEB19A620122E5B1174B9A62BDE8F88F95
:108D2000134B9A62D6E7144B9A62CFE7FFF78CFE9B
:108D300001F002F80F4B83F8008053E7FFF774FE51
:108D4000164B1F704EE703F580539A620122002DE7
:108D5000E2D1074B9A62BDE8F88F054B9A6241E772
:108D6000054B9A6238E700BF00C00040841800201D
:108D700000E000408518002000D000408818002046
:108D8000801800207C18002078180020741800201B
:108D900070180020600B00205C0B0020861800205B
:108DA000FFF7CABE10B50446FFF70EF8024B1C6071
:108DB000FFF70EF8002010BD8C18002010B5FFF74B
:108DC00003F8034B1C68FFF703F8204610BD00BFF3
:108DD0008C18002010B582B038B10446636883B1A6
:108DE000206802B0BDE810401847CDE90012FEF738
:108DF000EBFF054B1C68FEF7EBFFDDE90012002CD2
:108E0000ECD1232002B010BD8C18002030B587B003
:108E100038B10446BBB1A56895B12068A84707B032
:108E200030BD0C4CCDE902230191FEF7CDFF246843
:108E3000FEF7CEFFDDE90112039B33B1002CEAD12E
:108E4000232007B030BD05ABE5E705AB002CF7D01C
:108E5000E1E700BF8C1800200EB4F0B582B007AB7C
:108E600053F8046B019300B30446154DFEF7ACFFB5
:108E70002F68FEF7ADFFBC421BD0FEF7A5FF2C60AC
:108E8000FEF7A6FF0199304626F032FE0446FEF7B3
:108E90009BFF2F60FEF79CFF002CCCBF00203720EB
:108EA00002B0BDE8F04003B07047FEF78DFFFEF75B
:108EB0008FFF3046019926F01BFE0446ECE700BF09
:108EC0008C18002000207047FEE700BF4FF40053CD
:108ED00000204B60704700BF0120704700207047A2
:108EE000002000B583B001AB0190FFF78FFF019820
:108EF000002808BF4FF0FF3003B05DF804FB00BF4F
:108F000010B514460020FFF765FF204610BD00BFD6
:108F100000230349022209688868194626F024BD07
:108F2000840C002090F82A301BB190F82E30022BD0
:108F300002D0012318467047012280F82E201846DF
:108F4000704700BF80F82410704700BF90F82400DD
:108F5000704700BF90F82B00704700BF2DE9F04725
:108F6000044616460D4690F82470FEF735FF94F837
:108F70002A207ABB03461846FEF734FF2E4487B9F1
:108F8000013D013E02E094F82630D3B9AE42FAD159
:108F9000204663680121BDE8F047184794F8263061
:108FA00013B9AE42FAD1F3E729780A2904D10D2189
:108FB000204623689847297820462368013598473A
:108FC000EFE72046236815F8011F98470028DDD0F9
:108FD000BDE8F087FEF706FF94F82D90FEF7F4FE4B
:108FE00080460121484600F0A1FC4046FEF7F0FE15
:108FF000FEF7F2FE002384F82A300346BBE700BFE9
:109000002DE9F0414FF000081D46044682B0C3F838
:109010000080002A42D017464E1EFEF7DDFEA369EF
:109020001BB32369E169CB5C06F8013F2169236A20
:109030000131994214BF8C46C446A369C4F810C0DC
:10904000013BA361FEF7CEFE2046A368984729683E
:109050000131B9422960E0D394F827305BB12B6825
:10906000C3B1002002B0BDE8F081FEF7BBFE94F86A
:109070002730002BF3D11123012220460DF10701E7
:109080008DF80730FFF76AFF012384F827302B683B
:10909000002BE6D11B2002B0BDE8F08190F827300C
:1090A000002BF7D1E7E700BF08B5FFF757FF002017
:1090B00008BD00BFF8B5044690F82B3009B993B944
:1090C000F8BD002BFCD190F82C60FEF77DFE054624
:1090D0000121304600F02AFC2846FEF779FE0123E4
:1090E00084F82B30F8BD0D4690F82C70FEF76CFE1E
:1090F00006462946384600F019FC3046FEF768FE61
:1091000084F82B50F8BD00BF70B504460568FFF722
:1091100055FE844238D095F92820002A12DB01211F
:1091200053099B0002F01F0203F1604303F5614302
:1091300001FA02F2C3F88021C3F88020BFF34F8FF9
:10914000BFF36F8F95F92920002A12DB0121530903
:109150009B0002F01F0203F1604303F5614301FA33
:1091600002F2C3F88021C3F88020BFF34F8FBFF312
:109170006F8F0023EA682846C4E90033C4E904334A
:10918000A360BDE8704010470020FFF70BFEC2E768
:109190002DE9F047154652689DF82C909DF830A0B7
:1091A000002A72D01F46AB68002B6BD00C460646D7
:1091B00030220021204626F00AFB40F201116A68A5
:1091C0004FF00108E261AA68002322622A7B204650
:1091D00084F82420AA7BE18484F82520089A27605B
:1091E0006260099AA2600A9AE2602A7884F82820CC
:1091F0006A7884F82920264A34607260254AB26071
:10920000254A3261254A7261254AF260254A326256
:10921000254A84F82E80B261244AF26184F82DA098
:1092200084F82C9084F82B30697B84F82A80FFF72F
:1092300041FF95F90130002B0CDB03F01F025B09A5
:109240009B0003F1604308FA02F203F56143C3F89F
:1092500080211A6095F90020002A0DDB01215309B5
:109260009B0002F01F0203F1604303F5614301FA22
:1092700002F2C3F880211A603046FFF793FD002008
:10928000BDE8F0872120BDE8F0872220BDE8F08707
:10929000A990000001900000458F00004D8F000054
:1092A00009910000258F0000B5900000558F000047
:1092B00010B50446FEF790FDA269236A9A4203D3D3
:1092C000FEF790FD002010BDFEF78CFD012010BDC3
:1092D00030B5044683B00D46FEF77EFD94F8253088
:1092E00002462BB1132D08BF00231ED0112D1BD019
:1092F0006369E169CD54206AD4E9053101338342C1
:1093000001F10101C4E9053108BF0023104608BF7F
:109310006361FEF767FD0421A269236A84F82E10B9
:109320009A4209D003B030BD012384F8263003B03F
:10933000BDE83040FEF756BD1323012220460DF153
:1093400007018DF80730FFF709FE002384F8273066
:1093500003B030BD90F82A30DBB970B503F0FF01DF
:1093600082B04368044601919847012384F82A306B
:1093700094F82D60FEF728FD05460199304600F06F
:10938000D5FA2846FEF724FD022384F82E3002B0D9
:1093900070BD7047026BD36C43F00403D364704715
:1093A00010B50446026B93695906FCD5002394F866
:1093B00037101A4694F83600FEF71EFF002394F883
:1093C00039101A4694F83800FEF716FF94F83E302C
:1093D000DA070BD49B0715D4206B0021FFF77EF82A
:1093E000A08E0021FDF716FE002010BD002394F88A
:1093F0003B101A4694F83A00FEF7FEFE94F83E3011
:109400009B07E9D5002394F83D101A4694F83C00D8
:10941000FEF7F2FEE0E700BF08B5006BFFF722F9A8
:10942000002008BD29B1026BD36C43F00103D36463
:10943000704710B40124036BDA6C03F5005122F07D
:109440000102DA648C645DF8044B70472DE9F04149
:109450004FF0010817465E4A86B002925D4A0C9DA5
:1094600001925D4A1C460092CDE903880A465B4B97
:109470002946FFF78DFE064618B1304606B0BDE816
:10948000F081236841462B63A3883A20AB86E379B9
:1094900085F83730A37985F83630637A85F8393026
:1094A000237A85F83830E37A85F83B30A37A85F85B
:1094B0003A30637B85F83D30237B85F83C30FDF7FF
:1094C000A9FD43460422E179A079FEF795FE4346C3
:1094D0000222207A617AFEF78FFE4146A088FDF7CE
:1094E00099FD3E7039462068FFF708F81422A37BE7
:1094F0005B0103F1804303F57033C3F81C2694F835
:1095000006C0E1794CEA0142C3F83426607A227A37
:1095100042EA0042C3F82C2685F83E607B7E032B8E
:1095200053D8DFE803F01E4D022E022385F83E30AB
:1095300000230422617B207BFEF75EFE022741F2BE
:109540001C61A27B264B03EB42104750B132617B7A
:1095500003EB4213227B42EA01429A6094F806C070
:10956000E179206885F8371085F836C0C36C05218D
:1095700043F00403C364FEF7B1FF304606B0BDE814
:10958000F0810323012785F83E3000230222E17A8F
:10959000A07AFEF731FE4FF0040CE37AA27AA17BA9
:1095A000206842EA03420F4B49015A5000F58053AC
:1095B000C3F85CC0002FBBD194F806C0E179D1E7B5
:1095C0000123002785F83E30DFE7232655E700BF5B
:1095D000A1930000959300002594000019940000C9
:1095E00000C0034024D60340036B10B59A690446BB
:1095F00011060AD49A6CD20706D5012103F5005250
:1096000091649B699B0609D410BDFFF751FE50B9C8
:10961000236BDA6C22F00402DA64EBE72046BDE843
:109620001040FFF797BE206BFFF716F80146204663
:10963000FFF74EFE236BDDE710B4BFF34F8FBFF390
:109640006F8F314B3148596A314A21F48031596268
:10965000D3F89410904221F00101C3F8941031D056
:10966000D3F8C01022F01F0221F0FF01203A41F090
:10967000A001B2F1005F2748C3F8C01037D20168DB
:10968000254B214A254C23F01F03C2F8981043F0C4
:1096900003030131C2F89C30C2F8A0400160BFF35F
:1096A0004F8FBFF36F8F0522174BC3F894205A6A70
:1096B00042F480325A62BFF34F8FBFF36F8F5DF871
:1096C000044B7047D3F8C020124922F0FF0242F049
:1096D000A002C3F8C0200A68114C1248C3F89820B1
:1096E0000132C3F89C40C3F8A0000A60D7E70168C4
:1096F0000B4C42F00102C3F89810C3F89C400131B2
:10970000C3F8A020BCE700BF00ED00E0C40F0020BC
:10971000E80C002090180020E30F0020E1FFFF3F3D
:10972000030000200100004010B4BFF34F8FBFF3CF
:109730006F8F204B1F2A5C6A24F480345C62D3F85C
:10974000944024F00104C3F8944013D8BFF34F8F22
:10975000BFF36F8F0522174BC3F894205A6A42F467
:1097600080325A62BFF34F8FBFF36F8F00205DF8D6
:10977000044B7047D3F8C0200F4C22F47F4242F4D0
:109780008072C3F8C02023680A4A10F01F0F20F02F
:109790001F0018BF203021F01F01C2F8983040F0A0
:1097A000030041F003010133C2F89C00C2F8A0108D
:1097B0002360CBE700ED00E090180020BFF34F8F4F
:1097C0000549064BCA6802F4E0621343CB60BFF35D
:1097D0004F8F00BFFDE700BF00ED00E00400FA0579
:1097E00008B5FFF7EBFF08BDF8B5124B06460F466C
:1097F00053F82150032805D8DFE800F019161302AA
:1098000045F080050C4B1C6854B163681A6815421A
:1098100003D0394630465B6898472468002CF4D161
:10982000F8BD45F02005EDE745F00805EAE745F00D
:109830000205E7E70C220300C018002038B5144CDD
:1098400023786BB1134D2B78BBB9002000F09CFB43
:1098500038B901221048114B114900781A7008706C
:1098600038BD00F09BFB00230B4D012128782370AD
:10987000FFF7BAFF01232B7038BD00F061FB002316
:1098800000202B7000F080FB0028E2D0E9E700BF49
:10989000BE180020B9180020B0180020BD18002004
:1098A000D018002010B5FEF78FFA054B1B781BB9B6
:1098B0000446FFF7C3FF2046BDE81040FEF788BA14
:1098C000B818002070B5FEF77FFA134E05463378BE
:1098D0006BB900F093FC0446C0B900F08BFD024662
:1098E0000E4B0F481A60FDF7F1F90E4B1C6000F0AB
:1098F00043FA00F087FB0024014601230A4A284668
:1099000011603370FEF764FA204670BD2846FEF7FA
:109910005FFA204670BD00BFBA180020CC180020A6
:10992000C0180020D4180020B4180020F0B5284C2E
:10993000431EE25C83B079B1264D01322878E254AF
:10994000012807D923788BB903284FF002042CD0C3
:10995000A04205D103B0F0BD013AE25403B0F0BD1E
:109960002146FFF741FF2C7003B0F0BD1A4EFEF701
:109970002BFA3378A3B1194F3B781BB901223A7007
:10998000174A1370174C23789BB9FEF721FA012070
:1099900000F0FAFAFEF718FA3B788BB9002333701F
:1099A000FEF716FA01242878D2E700F049FB287860
:1099B000CEE7019000F0C4FA002301982370E4E799
:1099C000019000F0EBFA002301983B70E6E700BF3E
:1099D000C4180020B0180020BE180020B8180020BD
:1099E000BD180020B918002038B50446FEF7ECF980
:1099F000002C14BF0122FF220649074D0B781344A7
:109A0000DBB2B3FA83F20B7052092A70BDE838401A
:109A1000FEF7DEB9C7180020C618002038B5FEF7DB
:109A2000D3F90A4B1B78012B0BD9094B04461D684F
:109A300000F0ECFA034620461D44FEF7C9F928461B
:109A400038BD0025FEF7C4F9284638BDB0180020FF
:109A5000D418002000B583B0FEF7B6F90190FFF7E7
:109A6000EDFE019803B05DF804EBFEF7B1B900BF5D
:109A700010B541600446FEF7A7F9034621461C468F
:109A80000348FDF727F92046BDE81040FEF7A0B9CE
:109A9000C0180020064A074B126802FB00F000F5D0
:109AA000742000F23F20A3FB0030800C704700BF01
:109AB000CC18002083DE1B432DE9F04F87B0FEF762
:109AC00083F9044600E000BFFCF74CFF002800F0DB
:109AD0009E80834F834E844DDFF82C82DFF82CA2CA
:109AE000DFF82C92DFF82CB23B78002B40F0978007
:109AF0003378002B40F09C80184605A9029300F0B3
:109B000037FC029B002840F0C580784A059912680E
:109B100091420CD9764A03931168029100F076FACB
:109B20000299039B084405998842C0F0AB803378C2
:109B30002A780133DBB2012A337004D998F8002067
:109B4000002A00F0BF8001223A70002B70D1694BCF
:109B50001B78002B00F0A08002210B462878884259
:109B60006BD000228AF8002098F80020002A7FD0CD
:109B70002970022B71D0287800F02EFA98F8003066
:109B800013B15D4B1B782B7000E000BF2046FEF741
:109B90001FF9FEF719F999F8003004463BB100228D
:109BA000554B28781B7889F80020984279D0584680
:109BB00000F08EFBFCF7E6FE002895D14D4B8AF8AD
:109BC00000001B78D3B188F80000DFF8388198F8DE
:109BD00000304BB17CE0012000F0FEF92046FEF79A
:109BE000F7F8FEF7F1F80446002000F0CDF9002860
:109BF000F1D000F0D3F900233E4A13703B78002BDC
:109C000054D100212878FFF7EFFD00232B7000E0EE
:109C100000BF204607B0BDE8F04FFEF7D9B80022DC
:109C200033783A70013BDBB23370002B3FF464AF02
:109C3000012128780B46884293D19AF80020002A07
:109C400097D02A78022A94D1002202938AF8002021
:109C50001FF032FD029B022B8DD1264B1B78002B6F
:109C600089D1264B1B783BB30123224A137082E72C
:109C7000CDE90213FFF7B8FD02999AF80020039B83
:109C80002970DCE70222091ACDE9003258461C4A45
:109C900000F04EFB337858E700F00CF902210B4638
:109CA0005CE701212970FFF79FFD80E73378013BD6
:109CB000337000233B70A4E700F03CF90122114B04
:109CC0001A70D1E7FFF7BAFD012233783A703CE70A
:109CD000029000F035F9029888F8000084E700BF90
:109CE000C8180020C4180020B0180020B4180020A4
:109CF000D4180020BE180020D0180020C71800205B
:109D0000A5980000B9180020BD180020C618002032
:109D1000BC1800209418002010B5FEF755F800225A
:109D2000044B1C781A70FEF753F800F053FC2043E4
:109D3000C0B210BDBB18002038B5094B1B7813B159
:109D4000084C237803B938BD00F028F9002201231C
:109D500005480649064D22702B7002700B7038BD05
:109D6000B0180020BD180020BE180020BB1800202D
:109D7000BC180020704700BFF0B5002583B0454EE9
:109D800068468DF80050FEF7A7F93378002B79D09C
:109D900001A88DF804508DF80550FEF767F84020B3
:109DA000FFF778FE3C4C35702368184420604FF470
:109DB00000274FF400363949394A0B6F394803F010
:109DC00007031360D1F82051D1F824214766466675
:109DD00000F598308069032B00F002002AD002F0D1
:109DE000070205F00305022D18BF022A0CBF01224D
:109DF00000222D4B1A70A8B14AB9D1F8002102F007
:109E00000302A2F10102B2FA82F252091A70234B44
:109E1000D3F8003103F00303022B17D0032B36D005
:109E2000012B31D06420FFF735FE236818442060F1
:109E300003B0F0BD01221C4B1A700028F2D0174B62
:109E4000D3F8003103F00303022BE7D1FCF738FF0E
:109E50000028E7D00023411E0E461946134AD56854
:109E60000246C5F30B051248013505EB8505E5FBF8
:109E70000061304625F094FAFFF70CFE2368184481
:109E80002060CFE7044C92E7FCF7F6FEE0E7FCF732
:109E900009FFDDE7640B0020E0180020008000408F
:109EA000D818002000900040DE18002000C00140BB
:109EB00040420F00FEF774B8074B1A7802B970479A
:109EC0000021064A1970136F23F0070343F00103C2
:109ED0001367FCF7A7BE00BFDC180020008000401D
:109EE000104B1B7803B9704710B5022000F028FC16
:109EF00000B910BD00F06CFA0028FAD00A4B9A6D38
:109F0000D20302D5DB6D9B0707D40124074B1C70DD
:109F1000FEF78CFD064B9C6210BD0122044B9A6239
:109F200010BD00BFDE18002000C00040DD1800207A
:109F300000D000400122014B1A707047DC1800204D
:109F40000D4B1B7893B110B50C4C23785BB90C4BBF
:109F50009A6DD20302D5DB6D9B0708D4FEF766FD30
:109F60000122084B9A620023237010BD7047012222
:109F7000044B9A6210BD00BFDE180020DD180020DF
:109F800000C0004000D00040034B1B780BB90120FB
:109F90007047FEF7C1BD00BFDE18002008B5FEF710
:109FA00019F8094A0949136F086823F0070308499B
:109FB000034313670B7813B10122064B9A62BDE885
:109FC0000840FCF72FBE00BF00800040D8180020DA
:109FD000DE18002000E00040022804D003280CD046
:109FE000012803D070470020FDF74EBF044A1369D3
:109FF00023F00403136130BF70470020FDF78EBFCC
:10A0000000ED00E04FF4C870FFF744BD08B5074B02
:10A01000187818B9064B1B68184408BDFEF754FDA4
:10A02000034B00EBD0001B68184408BDDE1800206D
:10A03000E01800200122014B1A707047DE18002042
:10A04000704700BF38B500F015FB0B4D0B4B29686E
:10A050001A68411A32B129B1002453698B4203D3E3
:10A060005B1A5361286038BD54619268C91A002A8E
:10A07000F3D1286038BD00BFE8180020FC1800208C
:10A08000C38870B505460C4693B1164E6C613368B3
:10A09000DBB1002000E00B465A69A24218D899684B
:10A0A000A41A18466C610029F5D19D60A96070BDA5
:10A0B000FFF7B4FC84420646E7D23446094EFFF768
:10A0C000C9FC33686C61002BE3D13560AB6070BDB7
:10A0D00020B93560AB60121B5A6170BD8560AB6002
:10A0E000F9E700BFFC18002038B5134D2B685B69F9
:10A0F000BBB1124A022014681C4400F0F1FA204659
:10A1000000F0C0FA00210A460D482B680170D9887A
:10A1100089070DD49B681BB159690A44012AF6D9F5
:10A1200038BD022000F0DCFA022000F001FBE9E774
:10A130000123037038BD00BFFC180020E818002080
:10A14000F0180020F8B5154600279DF81CE0BDF872
:10A1500020C0069AC0E9033580F804E002608760F9
:10A16000A0F806C004460E4600F084FA2844A06118
:10A17000C6B9E368666113B12046216898477DB18E
:10A18000FDF722FE0646FFF75DFF29462046FFF752
:10A1900077FF074B1B68A34206D03046FDF718FE39
:10A1A0000020F8BD3546EBE7FFF79EFFF5E700BF5F
:10A1B000FC180020104A1368B3B1834202D115E0A5
:10A1C000984206D01A469B68002BF9D108B10220AC
:10A1D0007047836893602BB141695A6900200A4433
:10A1E0005A617047184670470028F0D183681360A1
:10A1F000002BF1D1F6E700BFFC18002070B5FDF789
:10A20000EBFD144E05463478D4B9134B134A1C6049
:10A21000134B14601C8000F0E9F9012000F060FA93
:10A2200000F0B8FA0F4B0246186070B1234640F2B6
:10A23000E7310D4825F0B4F801230C4C3370206051
:10A240002846FDF7CFFD002070BD2846FDF7CAFD6A
:10A25000232070BDE4180020E8180020FC1800201E
:10A26000F2180020F818002018FCFFFFEC1800205E
:10A270002DE9F04784B09DF83090BDF834A018B3B4
:10A280001E460F4690460546FDF7A6FD0F4B1C687F
:10A2900024B1A54212D0A468002CFAD1FDF7A2FD8A
:10A2A0004346394628460022CDF808A0CDF8049050
:10A2B0000096FFF747FF04B0BDE8F087FDF792FD79
:10A2C000032004B0BDE8F0872220F4E7FC1800204A
:10A2D00070B540B30446FDF777FD144E0546FFF711
:10A2E000B1FE3068A0420CD02046FFF763FF044661
:10A2F000A0B9336873B100242846FDF769FD2046F4
:10A3000070BDFFF757FF044640B9336813B1FFF73C
:10A31000EBFEF0E7022000F0EFF9ECE72846FDF74E
:10A3200057FD204670BD2224204670BDFC18002039
:10A330002DE9F04385B09DF83080BDF8349098B198
:10A3400017461D460E460446FFF7C2FF3B46314600
:10A3500020460022CDF80890CDF804800095FFF744
:10A36000F1FE05B0BDE8F083222005B0BDE8F08322
:10A37000F8B505460F46FDF72FFD134B06461B6843
:10A38000B3B1002401E09B6893B1DA885969AA420D
:10A390000C44F8D100F06EF90C4D2B68C01AA042A5
:10A3A0000BD3002430463C60FDF71CFD0020F8BDB7
:10A3B0003046FDF717FD1B20F8BD00F05BF92B6858
:10A3C0001C44241AEEE700BFFC180020E818002007
:10A3D000014B1878704700BFF018002038B5FDF722
:10A3E000FBFC054600F046F904462846FDF7FAFC5A
:10A3F000204638BD014B1868704700BFF818002090
:10A4000038B50C4B1B68834212D300240D4640F232
:10A41000E7332146084A1268E0FB02314FF47A72B2
:10A420001846002324F0BCFF034620462B6038BDAD
:10A43000212038BDEC180020F818002008B5114B79
:10A440001A689AB1531E134212D14FF47A71B2FABC
:10A4500082F2A0FB0101C2F11F03D840531CD2437A
:10A4600001FA03F3184321FA02F20243104608BD31
:10A470004FF47A710023A0FB010124F091FF024602
:10A48000104608BDF81800202DE9F047C207044621
:10A4900082B004D4A30711D402B0BDE8F0874A4AC1
:10A4A000138801339BB21380FFF7CCFD474B1B6829
:10A4B000002BEFD0FFF718FEA307EDD5FDF78CFCBE
:10A4C000424E8046FFF7BEFD3468002C79D04FF035
:10A4D00000094D464F466369002B60D1234601E0D9
:10A4E0005A693AB91A792179914288BF1C469B680A
:10A4F000002BF5D14046FDF775FCD4F81090B9F16A
:10A50000000F3DD1C846FDF767FC82462046FFF7A5
:10A5100051FE5046FDF766FC236983B1B9EB080193
:10A520000191FDF759FC804601992046FFF7A8FDEF
:10A53000A369226940461344A361FDF753FCE36815
:10A54000B4F80690013513B1204621689847FDF70D
:10A5500043FC8046FFF776FD3468002CBBD11C4BD2
:10A56000012D1C7003D1B9F1020F08BF1D7002202C
:10A5700000F0C2F8404602B0BDE8F047FDF732BC3B
:10A5800000F078F8A369A0EB03084FEAE872C14530
:10A5900077EB0202B7DA22691344A361CFE7002206
:10A5A0000B4B012D1A7007D0FFF79EFD404602B0FD
:10A5B000BDE8F047FDF716BCB9F1020FF4D11D70EC
:10A5C000F2E7034B1C70D2E7F2180020FC180020C1
:10A5D000F418002010B5FDF7FFFB034B1C78FDF7C6
:10A5E00001FC204610BD00BFF418002010B5002467
:10A5F0001D4B84B003F1080293E803000290ADF80C
:10A600000C1092E8030000908DF804103E20012108
:10A61000FCF700FD02A88DF808408DF80C40FDF70E
:10A62000DBFE012069468DF80040FDF777FE4FF014
:10A63000904240F2FF3093690C4923F47F7323F07A
:10A64000030393614861936A13F00803FBD113621B
:10A650000120FDF77FFE4FF48052054BC3F88021A7
:10A660001A6004B010BD00BF1C2203000020004887
:10A6700000E100E04FF09042936A1B07FCD4106A9F
:10A68000704700BF4FF09042936A1907FCD4136AD9
:10A69000116C5269520602D4CA1A032A1AD9C21A74
:10A6A000022A98BFD81CB0F1FF3F38BF01384FF0E5
:10A6B000904318649A6942F040029A61074B1A78F5
:10A6C0003AB14FF090410020CA6B42F00202CA63D7
:10A6D000187070479942F1D1E1E700BF650B002087
:10A6E00082074FF0904200F00103916948BF43F0A8
:10A6F00040030B4393617047820700F0010307D4C6
:10A700001A464FF090418B6923EA02038B61704730
:10A710004FF090414FF0010C43F04002CB6B0348E7
:10A7200023F0030380F800C0CB63EAE7650B002049
:10A73000830702D54022014B5A6170470010004840
:10A740004FF0904301285B6906D0022802D1C3F381
:10A75000801070470020704703F00100704700BF71
:10A7600010B5FDF739FB4FF0904304465B695A067C
:10A77000074A03F0010003F0510348BF40F0020014
:10A780005361FFF781FE2046BDE81040FDF72ABB6C
:10A79000002000483E20FCF773BC00BF08B5FCF762
:10A7A00011F8FCF743F8FCF743F8FCF751F8BDE863
:10A7B0000840FCF757B800BF08B5FCF755F8FCF7A0
:10A7C00055F8FCF755F8BDE80840FCF753B800BF52
:10A7D00038B50446FDF7F8FA0546204624F0B0FFE8
:10A7E00004462846FDF7F4FA204638BD30B583B05C
:10A7F00004460191FDF7E8FA01990546204624F048
:10A800005FFF04462846FDF7E3FA204603B030BD5B
:10A8100038B50546FDF7D8FA0446284624F098FFD7
:10A820002046BDE83840FDF7D3BA00BF21B1034B45
:10A830000A461B6800211847704700BF680B0020BC
:10A84000B0F5105F0DD009D8B0F5885F14D0B0F521
:10A85000905F11D041F2010398420DD06FF0850056
:10A86000704721F04003802B0DD0B1F5807F0CBFE5
:10A8700000206FF08600704711F0070F0CBF00201A
:10A880006FF0860070470020704700BF43680A469B
:10A890001B0A2ED1438853B3018801F4E040B0F580
:10A8A000805F1FD0B0F5005F1CD047F201008142ED
:10A8B00021D044F20100814224D047F202008142BB
:10A8C00023D044F20200814224D021F0FF01B1F5EF
:10A8D000E24F07D0B1F5824F21D10733DB105B0087
:10A8E000013301E00733DB10002013607047184686
:10A8F000704701F0E7B85B080133DB1003EBC303DB
:10A900003B33F1E7DB081033EEE7DB0803EB4303EF
:10A910005A33E9E7DB0803EB43034A33E4E76FF01C
:10A92000850070470023F0B5044645680E4628466A
:10A93000114683B01360A76801F04EFB844610B146
:10A94000604603B0F0BD284601F048FB844600286D
:10A95000F6D1EDB255BB002F2ED1E36823F47F432F
:10A9600023F0030343BB4FF6F87362889A4226D85C
:10A97000238B23F00103FBB9314601A801F074FADF
:10A9800084460028DCD10FCC366835460FC594E8E4
:10A990000700337985E807000BB9019BB360604677
:10A9A000338B23F00103338303B0F0BD0146A0686D
:10A9B00001F022FA0028D0D16FF0860CC0E76FF0CA
:10A9C000850CBDE700F0FE43B3F1407F28D1654B15
:10A9D0000340B3F1607F20D0B3F1707F20D101F448
:10A9E000E043B3F5005F1BD111F4E06F4FEA112C87
:10A9F000C1F3022314D010F47C1F14D1012101FAF9
:10AA000003F3032B137016D901220CF0070C02FA82
:10AA10000CFC9C4504D300207047B1F5885F0DD035
:10AA20006FF086007047C0F30543C0F3074010F095
:10AA30003C0F1370E8D16FF08500704710F47C1361
:10AA40002DD14949C0B240F00070884262D000F177
:10AA50007E410439012954D9444B984267D0444B74
:10AA600098426DD0434B984270D0434B984273D07C
:10AA7000424B98425BD00133984261D003339842F5
:10AA800055D0013398425BD0013398425ED00133F8
:10AA9000984261D000236FF0850013707047C0F3B7
:10AAA0000741C0F3054311F03C0F1370C3D02E4A89
:10AAB000C0B240F00070904230D000F17E410439C5
:10AAC000012924D9294A90422BD0013290422BD01F
:10AAD0000132904231D0013290429CD001329042FA
:10AAE0001FD0013290421FD00332904219D0013260
:10AAF000904219D0013290421FD0214B98428FD101
:10AB000089E74FF0140C634682F800C0D8E74FF095
:10AB1000140C7EE710211846117070474FF0100C8E
:10AB200077E74FF01C0C74E74FF0200C71E74FF003
:10AB30001C0C634682F800C0C2E74FF0300C68E797
:10AB40004FF0200C634682F800C0B9E74FF0300C9C
:10AB5000634682F800C0B3E74FF0400C634682F8CA
:10AB600000C0ADE70000C07F030000020800000243
:10AB7000090000020A0000020B0000020C000002A3
:10AB8000130000028A4272D070B422F4FF73A34C07
:10AB900023F00103A3421BD0A14B22F0FF049C42EF
:10ABA00016D0A04C22F47F7323F00303A3420FD0EE
:10ABB00001F0FE43B3F1A06F2CD0B3F1407F3FD141
:10ABC00002F0FE43B3F1407F53D0002070BC7047C9
:10ABD000924C21F4FF7323F00103A3420BD0904B5E
:10ABE00021F0FF049C4206D08E4C21F47F7323F0A9
:10ABF0000303A342DCD111F0FF03D9D08A4C43F008
:10AC00000073A342D4D14A4032F0FF030CBF0120AD
:10AC10000020DBE702F0FE43B3F1A06FD5D182EA5A
:10AC2000010333F47E13D0D111F40040CED0C1F330
:10AC30000541C2F3054291428CBF00200120C5E7C7
:10AC4000B3F1106FC1D121F01F6323F47023002BE7
:10AC5000BBD102F0FE43B3F1106FB6D17348104080
:10AC600040F01060401AB0FA80F04009AEE70120D1
:10AC7000704782EA010333F47E13A6D16C4C0C407A
:10AC8000B4F1607F2CD0B4F1707F9ED100F4E04429
:10AC9000B4F5005F99D110F4E06F96D012F47C14F3
:10ACA00023D0634DC2F305441540B5F1607F3BD01E
:10ACB000B5F1707F00F08E8011F47C1FC1F3054068
:10ACC0002DD012F47C1F02D1984200F08D8011F437
:10ACD00000413FF47AAFA0428CBF0020012075E70D
:10ACE000B0F5885F7FF471AFD8E7514D1540B5F1ED
:10ACF000607F44D0B5F1707F01D02346DCE700F4DB
:10AD0000E043B3F5005FF8D10124C0F302239C4077
:10AD1000000A012500F0070305FA03F3CCE7181B2E
:10AD2000B0FA80F0400951E7424DD0B240F00070D7
:10AD3000A8425BD000F17E45043D012D52D93E4D25
:10AD4000A84258D00135A84259D00135A8425CD05C
:10AD50000135A8425BD00135A8424CD00135A8424C
:10AD60004DD00335A84246D00135A84247D0013521
:10AD7000A8424AD00135A84208BF40239CE72D4D88
:10AD8000D0B240F00070A84232D000F17E45043DC0
:10AD9000012D32D9284EB04233D00136B04232D0E4
:10ADA0000136B04235D00136B04234D00136B0421F
:10ADB00027D00136B04226D00336B04221D001362A
:10ADC000B04220D00136B04223D00136B04208BF95
:10ADD0004024B2E700F4E045B5F5005F7FF46CAFC6
:10ADE000000A96E7142367E70120EFE6102363E7E4
:10ADF00010231C4660E71C235EE714249DE72023F4
:10AE00005AE71C2499E7202497E7302354E740238E
:10AE100052E7302491E740248FE700BF000200068C
:10AE20000009000600040006FF0000020000FFF613
:10AE30000000C07F0300000208000002F0B50668B1
:10AE40000546378883B007F4E043B3F5804FF368D5
:10AE500008BF21F0010131EA030337D1002A3FD0B6
:10AE6000234922F4FF7323F001038B4219D0214BB5
:10AE700022F0FF01994214D01F4922F47F7323F07E
:10AE800003038B420DD002F0FE43B3F1407F2BD081
:10AE9000B3F1A06F28D0194B9A420AD16FF0860403
:10AEA00016E012F0FF0304D0144943F000738B4204
:10AEB000F4D0384631690192FFF764FE044678B950
:10AEC0003846019A7169FFF75DFE30B96FF084046E
:10AED000002330462B6001F073F8204603B0F0BD2C
:10AEE0000024204603B0F0BD1304E2D5D6E700BF2E
:10AEF000000200060009000600040006FF00000230
:10AF00002DE9F0474FF0000C16462422814692B0FE
:10AF10001D9C0DEB02000D4661461F468DF81FC0BB
:10AF2000DDF86C8024F053FC002C484608A914BFBF
:10AF30004FF4805A4FF4005A00F0F0FF0446F8B97D
:10AF400051462A4608A8FFF779FF0446C0B9DDF844
:10AF500020C009ACBCE80F000FC49CE8070084E8DF
:10AF600007002846BDF824100DF11F02FFF72AFD47
:10AF7000044628B99DF81F40444511D96FF0890453
:10AF800000231C9A8DF81F30C2F80080B8F1000F22
:10AF900023D1089801F014F8204612B0BDE8F087DC
:10AFA00008992B46D1E9081203941C9CCDE900674F
:10AFB00004941A9C09A8029400F06AFE0446002832
:10AFC000DED19DF81F0080450DD8089800F0F8FFED
:10AFD0000446204612B0BDE8F087424621211A9867
:10AFE00024F0F5FBD5E71A9BA8EB000221211844B9
:10AFF00024F0EDFBE9E700BF2DE9F041002605460E
:10B000008CB00C4617463146242203A802961E46F1
:10B0100024F0DDFB2B68002B44D1002E204602A932
:10B0200014BF4FF480584FF4005800F077FF0446E7
:10B0300078BB41463A4602A8FFF700FF044640BBF2
:10B04000DDF808C003ACBCE80F000FC49CE80700A3
:10B0500084E807003846BDF80C102A1DFFF7B2FC43
:10B060000446B0B96B79029A66F300036B71D2E9BA
:10B070000823284603A9009716B300F017FE0446DC
:10B080003CB9029800F09CFF044620460CB0BDE895
:10B09000F0812B6843B9029800F092FF20460CB073
:10B0A000BDE8F0816FF08804284600F03FFE0022E2
:10B0B000AB882A6023F4FF7323F00103AB80EAE737
:10B0C00000F008FE0446DBE7F8B5066A7EB90446E0
:10B0D0000F46012011461546FFF788FB206248B154
:10B0E00039462A46656224F04BFB3046F8BD6FF0C6
:10B0F0008A00F8BD6FF08C00F8BD00BF2DE9F0416B
:10B10000089E00884AB100F4E044B4F5805F0F4621
:10B110001D4607D0B4F5005F04D06FF085084046A7
:10B12000BDE8F081336803B3B2F1005FF5D24FF6AA
:10B13000F87331689942F0D8FFF782FB8046002807
:10B14000EDD1CC1D0699E308B1EBD40F13D3934294
:10B150000ED13946284624F013FB3368079A07338B
:10B16000DB0840461360BDE8F081D3003360DBE7C5
:10B170006FF08608D3E76FF08908D0E738B504464A
:10B18000006A18B1616AFFF751FB206AFFF740FBC4
:10B190000021E3692822012B0CBF0D466FF09605B4
:10B1A0002046C4E9081124F012FB284638BD00BF30
:10B1B00030B5044683B010B9204603B030BD01A9B4
:10B1C00000F0ACFE04460028F6D1019DEB69012B8E
:10B1D00026D82B79FF2B1BD0A3B9286A18B1696A2E
:10B1E000FFF724FB286AFFF713FB0021EB692822F5
:10B1F000012B2846C5E908110DD124F0E8FA2046B4
:10B2000003B030BDA86800F023FF019D0446E4E7C9
:10B210006FF08404E1E724F0DAFA6FF09604CBE7EC
:10B22000284600F0CDFE6FF08304C5E730B5054633
:10B2300083B008460C4600F017FC284601A900F030
:10B240006DFE88B9019DA446AE46BEE80F00ACE88D
:10B250000F009EE807008CE80700238B284603F0C8
:10B260000103238300F0ACFE03B030BD008870B54D
:10B270001D4600F4E043B3F5805F1446049E0DD0F4
:10B28000B3F5005F0AD044F2010320F440529A4221
:10B2900004D000F44F40B0F5824F0ED1B4420FD825
:10B2A0002246284624F06CFA0021321B281924F08B
:10B2B0008EFA059B00201C6070BD6FF0850070BD8C
:10B2C0006FF0890070BD00BF2DE9F0418CB0002AFD
:10B2D0003ED01F46002388463B6002A9164600F078
:10B2E0001DFE054670B90298038803F4E043B3F5E8
:10B2F000804F0BD0C368DB0708D4029500F060FED6
:10B300006FF0840528460CB0BDE8F0810023D0E939
:10B31000084E844603ADCDE90A33BCE80F000FC5E3
:10B320009CE80700434685E80700214672460197DE
:10B33000009603A800F06CFC0446029800F040FE62
:10B34000002C14BF2546054628460CB0BDE8F08108
:10B350006FF08905D6E700BF38B544F2010EB0F8AA
:10B3600000C014462CF4405070451D4604D00CF427
:10B370004F42B2F5824F04D10CF4E04CBCF5804F43
:10B3800002D06FF0850038BD049B9C420DD8224648
:10B39000284624F0F5F9049B00211A1B281924F0F3
:10B3A00016FA059B00201C6038BD6FF0890038BD7F
:10B3B000002A38D02DE9F0411E4600238CB00F46FC
:10B3C000336002A9154600F0A9FD40B9029C23880C
:10B3D0005B0407D4204600F0F3FD6FF086000CB04C
:10B3E000BDE8F081A446D4E908480DF10C0ECDE982
:10B3F0000A00BCE80F00AEE80F009CE807003B46DF
:10B400008EE80700214642460196009503A800F009
:10B410000BFC0446029800F0D3FD002C18BF204618
:10B420000CB0BDE8F0816FF0890070472DE9F04362
:10B43000002489B0CDE904441C600792002A75D02D
:10B440001546884605AA04A91E460746FFF76AFA6C
:10B450000446A0B1049D75B1286A18B1696AFFF766
:10B46000E5F9286AFFF7D4F9002128222846C5E922
:10B47000081124F0ACF9204609B0BDE8F083384645
:10B4800007A9FFF703FA04460028E3D1049C236AC6
:10B49000002B38D02A460DF1180C04F124056088E1
:10B4A000CDE9015C0690606A41460090384600F0A4
:10B4B00085FB04460028CDD1049D6B88002B2FD13D
:10B4C000069B6B803B8813B12A889A422BD13B6A3A
:10B4D0004BBB7B8813B16A889A4224D12B793BB14C
:10B4E000D5E90812284600F02BFE04460028B1D109
:10B4F000AB682846336000F063FD04460028BAD0EC
:10B5000000233360A6E7DDF81C9001204946FFF7D1
:10B510006DF9206268B1C4F82490049C236AB9E7ED
:10B52000069A9342CED06FF0860495E76FF08604BA
:10B53000A1E76FF08C048DE703680BB918467047DC
:10B5400010B5044600F0F2FB0022A388226023F429
:10B55000FF7323F00103A38010BD00BF0123FFF799
:10B560004BBD00BF38B50568C5B112B900252846E6
:10B5700038BD044600F0C2FB05460028F6D023681B
:10B58000002BF4D0204600F0D1FB0022A3882260DB
:10B5900023F4FF7323F00103A380E8E76FF088052D
:10B5A000E5E700BF2DE9F0411546026804460F4665
:10B5B00098464AB14279D20706D5027922B1AA4209
:10B5C00022D96FF0890601E06FF088060023C8F8E1
:10B5D000005023719D4211D8206850B1204600F0E0
:10B5E000A5FB0022A388226023F4FF7323F001034C
:10B5F000A380002E18BF3046BDE8F0812121EA1A51
:10B60000F81824F0E4F8E7E700F082FB064600288B
:10B61000DCD12379DEE700BF30B585B0089C099DF9
:10B620000094012401950A9DCDE90254FFF768FCBE
:10B6300005B030BD2DE9F047002492B01F46DDF87B
:10B64000708001F0FE43B3F1806FC8F800407DD1F7
:10B650000D4607A9164600F061FC0446002834D1C7
:10B660002A464FF4807107A8FFF7E8FB044660BB49
:10B67000DDF81CE009ACF446CDE91000BCE80F0091
:10B68000BEF800900FC49CE8070009F4E04ABAF540
:10B69000005F84E807001CD042F20403994531D0D2
:10B6A000DEE908121B9C2B4603941A9C09A80294FD
:10B6B000CDF810800197009600F0DCFA0446079858
:10B6C00000F07EFC002C08BF0446204612B0BDE806
:10B6D000F0874FF0010AC9F302230AFA03FA002B9C
:10B6E000DAD0224A25F48073934210D002F500721A
:10B6F00095420CD01E4A954209D0A2F53F42934292
:10B70000CAD104E01B4B9D42CAD14FF00C0A1B9BCF
:10B71000534505D2704600F053FC6FF08904D4E71E
:10B720001548037ADB0758BF6FF0880413D5002350
:10B73000524608931A9908AB03F004F8044640B93E
:10B74000089B9A450BD1DDF81CE0A9E76FF0860451
:10B75000BBE7DDF81CE0704600F032FCB5E7079867
:10B7600000F02EFC6FF09304AFE700BF0010C004A0
:10B7700000FF400400018004001900202DE9F04181
:10B780000024174600F0FE4286B0B2F1106F0D9E05
:10B79000049415D06FF086042348037ADB0706D59E
:10B7A000002532460C9905AB059502F0CBFF0E9BA8
:10B7B00004981E6000F004FC204606B0BDE8F0814D
:10B7C0000546084604A9984600F0A8FB0446002850
:10B7D000E2D12A464FF4804104A8FFF72FFB04462C
:10B7E0000028D9D125F01F6323F4702304996BB985
:10B7F0000E9C4346CDE901640C9C3A4600942846D1
:10B8000000F09EFA10F1860F044602D16FF0850415
:10B81000C2E70028C0D1049800F0D2FB04462046BD
:10B8200006B0BDE8F08100BF0019002070B50C4DD6
:10B8300082B02A7AD30710D500260C460A4601ABFF
:10B8400001462846019602F07DFF20B9019BA342E4
:10B8500018BF6FF0930002B070BD6FF08800FAE778
:10B860000019002030B51446C269038883B00AB3BA
:10B8700003F4E043B3F5805F06D0B3F5005F03D077
:10B880006FF0850003B030BD0D48037ADB0758BF69
:10B890006FF08800F6D50025224601AB019502F035
:10B8A00051FF0028EED1019B9C4218BF6FF093001E
:10B8B00003B030BD026A002ADAD06FF08600E1E7FB
:10B8C000001900200023F0B5428885B0CDE901338E
:10B8D0000B60002A00F086800F4602AA01A90646E6
:10B8E000FFF720F80446C0B9019D2A6A5AB31146F1
:10B8F00005F124036A6A304600F040F9019D0446D0
:10B90000002854D12B79002B40D0D5E908122846C5
:10B9100000F016FC0446002838D0019D85B12A6A43
:10B9200022B11046696AFEF781FF2A6A1046FEF7C7
:10B930006FFF002128222846C5E9081123F047FFA0
:10B94000204605B0F0BD73681B0A3CD13088718871
:10B9500000F4E043B3F5805F23D0B3F5005F20D05F
:10B9600020F0FF00B0F5E24F18BF6FF08504DDD185
:10B970000731CC10039421460120FEF737FF2862DF
:10B98000002832D06C62019D2A6AB0E7AB68284675
:10B990003B6000F015FB04460028D1D000233B603B
:10B9A000BBE7FEF74DFF04460028BFD1E0E7286A59
:10B9B00018B1696AFEF73AFF286AFEF729FF0023EB
:10B9C000C5E90833A9E7304603A900F07BF804462F
:10B9D0000028A2D1019D039C2A6A002ACBD06FF0D7
:10B9E0008A049EE76FF08604AAE76FF08C0494E760
:10B9F00038B51C4D297A11F0010102D000242046EF
:10BA000038BD0822284623F0E2FE02222B7A62F398
:10BA100042032B7200F002FA044658B100F00AFA11
:10BA20002B7A13F0060F12D10C210E48FEF7FEFE02
:10BA3000204638BD00F044F810F1860F04460CD0C3
:10BA40000028EBD12B7A43F001032B72D6E70822B2
:10BA50000021044823F0BBFEE6E72B7A43F0010304
:10BA60002B72DBE70019002010B50446C069FEF711
:10BA7000CFFE2046BDE810402422002123F0A7BEBF
:10BA80002DE9F04104460E461D4653B99846E0693B
:10BA900008B1FEF7BDFE0020C4E907852680BDE899
:10BAA000F081194601201746FEF7A0FE804620B11E
:10BAB00039462A4623F064FEE9E76FF08C00EEE792
:10BAC00002F03EBE10B4446802884388200A4FD179
:10BAD00002F4E040B0F5805F25D0B0F5005F22D0E1
